:100000000C943A020C9455020C9455020C9455022F
:100010000C9455020C9455020C9455020C94550204
:100020000C9455020C9455020C9455020C94D40374
:100030000C9455020C9455020C9455020C945502E4
:100040000C9455020C9455020C9455020C945502D4
:100050000C9455020C9455020C9455020C945502C4
:100060000C9455020C9455023E0A4E65772070613F
:100070007373776F72643A203C696E707574207484
:100080007970653D74657874206E616D653D6E7044
:100090003E0A0A50617373776F72643A2020202001
:1000A000203C696E70757420747970653D70617361
:1000B00073776F7264206E616D653D70773E3C6949
:1000C0006E70757420747970653D68696464656EDE
:1000D000206E616D653D66642076616C75653D31AD
:1000E0003E0A3C696E70757420747970653D737555
:1000F000626D69742076616C75653D6170706C79B4
:100100003E3C2F666F726D3E0A3C2F7072653E005A
:100110003E0A4F666673657420746F205554433AE7
:100120003C696E70757420747970653D746578747F
:10013000206E616D653D747A2076616C75653D0059
:100140003E0A4E5450207365727665722049503ACB
:100150003C696E70757420747970653D746578744F
:10016000206E616D653D6E732076616C75653D0036
:100170003E0A44656661756C742047572049503AC1
:100180003C696E70757420747970653D746578741F
:10019000206E616D653D67772076616C75653D0009
:1001A0003C7072653E415652204E545020636C6F35
:1001B000636B2C20636F6E6669670A0A3C666F7218
:1001C0006D20616374696F6E3D2F636F6E66696742
:1001D000206D6574686F643D6765743E436C6F6342
:1001E0006B206F776E2049503A203C696E707574B1
:1001F00020747970653D74657874206E616D653D1D
:1002000069702076616C75653D00485454502F31FB
:100210002E3020323030204F4B0D0A436F6E746504
:100220006E742D547970653A20746578742F6874F3
:100230006D6C0D0A507261676D613A206E6F2D63AF
:10024000616368650D0A0D0A007570646174696EFA
:10025000672E2E2E003C703E4F4B2C2076616C7525
:10026000657320757064617465642E3C2F703E0A5E
:1002700000485454502F312E3020323030204F4B14
:100280000D0A436F6E74656E742D547970653A2053
:10029000746578742F68746D6C0D0A0D0A004854EB
:1002A00054502F312E302034303120556E6175740A
:1002B000686F72697A65640D0A436F6E74656E7457
:1002C0002D547970653A20746578742F68746D6C5C
:1002D0000D0A0D0A3C68313E34303120556E61758F
:1002E00074686F72697A65643C2F68313E005761AB
:1002F0006974696E6720666F72204E545020616E7B
:10030000737765722E2E2E003C2F7072653E0A3C6C
:1003100062723E3C6120687265663D222E2F223E4D
:10032000726566726573683C2F613E0A000A4C6113
:100330007374206E74702073796E63206973206FFC
:100340006C646572207468616E203120686F75720C
:100350000A00290A00202855544320003C68323EF8
:10036000415652204E545020636C6F636B3C2F6893
:10037000323E3C7072653E0A00485454502F312E74
:100380003020323030204F4B0D0A436F6E74656E53
:10039000742D547970653A20746578742F68746D83
:1003A0006C0D0A0D0A00485454502F312E30203263
:1003B0003030204F4B0D0A436F6E74656E742D54B0
:1003C0007970653A20746578742F68746D6C0D0AC5
:1003D0000D0A3C68313E323030204F4B3C2F6831A3
:1003E0003E0029002B002028004574682D6C696EA2
:1003F0006B20646F776E004E545020616E7377658A
:10040000720077616974696E6720666F7200475782
:100410002049500077616974696E6720666F7200C9
:100420004F4B00E30004FA0001000100004500000A
:100430004C00004000401100010800060400015378
:10044000756E4D6F6E547565576564546875467268
:100450006953617400253032753A253032753A257A
:100460003032750025732025752D253032752D25E8
:100470003032750011241FBECFEFD4E0DEBFCDBFF8
:1004800011E0A0E0B1E0EEEBF8E202C005900D92C1
:10049000A634B107D9F713E0A6E4B1E001C01D927C
:1004A000A73AB107E1F70C94CB040C940000CF936A
:1004B000DF93C0E0D0E046E050E0BC0182E091E094
:1004C0000E942C10892B11F4C1E0D0E0CE01DF9105
:1004D000CF910895CF93DF93DC01FB0120E011C0A1
:1004E0008081981759F431968081882349F41196B8
:1004F0008C918D3319F4FB0121E002C0FB0120E057
:1005000011969C91992321F0903211F0222341F30E
:10051000213011F080E018C0FD01CCE4D1E002C030
:10052000299331968E2F8A1B2081222341F020327D
:1005300031F0263221F091E0CE35D90789F7E82F46
:10054000FF27E45BFE4F10829927DF91CF9108953A
:10055000982F80538A3010F499270895892F815657
:10056000863020F49755892F99270895892F815433
:10057000863018F080E090E008959753892F9927EE
:100580000895EF92FF920F931F93CF93DF937C0117
:10059000EC0119C08B3211F480E211C0853279F47C
:1005A000898122960E94A802082F112784E0000F5B
:1005B000111F8A95E1F788810E94A802802BF7011C
:1005C00081937F0121968881882321F7F70110828A
:1005D000E6E0CDB7DEB70C943214A4E0B0E0E3EF70
:1005E000F2E00C9414146C01FB017E010894E11CF0
:1005F000F11C21C031962081822F992787FD90958B
:10060000C0970A9730F02223A9F703C00F5F1F4F4E
:1006100001C08F01D8019C91892F80538A30B0F39B
:10062000992311F01D928D01CF010E94FF0FF70158
:1006300081937F01F801AE014F5F5F4F2E2D241B88
:100640008081882329F0CE010596E816F90699F6EF
:10065000243051F4F601DA0196012C5F3F4F8D9161
:100660008193E217F307D9F7E8E024960C9430144D
:10067000CF92DF92FF920F931F93CF93DF936C0182
:10068000FF2400E010E0EB01B6016F0D711D8881C1
:100690004AE050E099270E9449109F2DF601E90F8A
:1006A000F11D80819F5F8823C9F78EE28083F92E38
:1006B0000F5F1F4F21960430110531F71082DF9133
:1006C000CF911F910F91FF90DF90CF9008950F93DE
:1006D0001F93CF93DF93EC014AE052E060E070E0BB
:1006E0000E94E30940EA51E0BC01CE010E94E30907
:1006F0008C0162E171E08CE491E00E9438034CE4EB
:1007000051E0B801CE010E94F30940E751E0BC017D
:10071000CE010E94E3098C016EE071E08CE491E06F
:100720000E9438034CE451E0B801CE010E94F30965
:1007300040E451E0BC01CE010E94E3098C016AE073
:1007400071E08CE491E00E9438034CE451E0B80180
:10075000CE010E94F30940E151E0BC01CE010E94AC
:10076000E3098C019091000197FD03C08BE2809317
:100770004C014AE050E06DE471E0892F992787FD34
:1007800090950E9449104CE451E0B801CE010E94BE
:10079000F30948E650E0BC01CE010E94E309DF9175
:1007A000CF911F910F9108951F920F920FB60F9244
:1007B00011248F939F93AF93BF93809146019091A3
:1007C0004701A0914801B09149010196A11DB11DB9
:1007D0008093460190934701A0934801B09349014B
:1007E000809101018F5F8093010180914B018823EB
:1007F00021F010924B01299A04C081E080934B01B3
:100800002998BF91AF919F918F910F900FBE0F903C
:100810001F9018951092850010928400109280000D
:100820008DE0809381008FE2809389008DEA809330
:10083000880082E080936F000895CF93DF93EC01EE
:1008400046E050E0BC018CE191E00E942C10892B25
:1008500009F09CC063E271E0CE010E946A02882325
:1008600019F481E090E094C066E271E0CE010E944C
:100870006A02882309F48AC08CE491E00E94C102D4
:100880008CE491E00E945702882309F47FC069E25A
:1008900071E0CE010E946A02882331F06CE471E0BD
:1008A00082E191E00E94ED026CE271E0CE010E94D3
:1008B0006A02882331F06CE471E08EE091E00E94DE
:1008C000ED026FE271E0CE010E946A02882331F0EE
:1008D0006CE471E08AE091E00E94ED0262E371E075
:1008E000CE010E946A02882371F08CE491E00E949C
:1008F000C1028CE491E00E94FF0F9C01835F8B3169
:1009000010F42093000165E371E0CE010E946A02B9
:10091000882371F08CE491E00E94C10247E050E02E
:100920006CE471E082E091E00E943A1010920901BB
:1009300083E1A0E0B0E0082E0E944E1484E0E2E1E2
:10094000F1E0A1E0B0E0182E0E945A14EEE0F1E0D0
:10095000A6E0B0E0182E0E945A14EAE0F1E0ABE005
:10096000B0E0182E0E945A1480910001A0E1B0E07E
:10097000082E0E944E1488E0E2E0F1E0A2E1B0E02F
:10098000182E0E945A1482E090E002C08FEF9FEF71
:10099000DF91CF910895CFECD4E0DEBFCDBF80E8EA
:1009A000809361001092610081E090E00E94D30D7D
:1009B00052982098289A86E191E00E94460C82E0A5
:1009C0000E94400C8AE090E00E94D30D219A299A5F
:1009D000189B2EC0A0E0B0E00E944114802D83310E
:1009E00039F584E0E2E1F1E0A1E0B0E0182E0E94E8
:1009F0004914EEE0F1E0A6E0B0E0182E0E944914A0
:100A0000EAE0F1E0ABE0B0E0182E0E944914A0E16A
:100A1000B0E00E944114802D8093000188E0E2E064
:100A2000F1E0A2E1B0E0182E0E94491410920901F1
:100A300066E774E084E10E94230C84E190E00E9468
:100A4000D30D8CE00E94B70F81E00E94A90F40E512
:100A500062E171E086E191E00E940D080E940A04C3
:100A600080E294E00E948E0F10E00E94C70D811179
:100A700013E680E991E00E94D30D1E31B0F3789423
:100A800044C2E1E09E2E6FE571E080E392E00E94B7
:100A9000310D7C01009709F0E0C0809101018823AD
:100AA00091F30E94C70D882309F444C041E04B151F
:100AB00010F40CE701C000E280910101843008F4D9
:100AC00046C09920C1F481E00E94A90F84E194E01E
:100AD0000E948E0F61E080E00E94F70F8EE094E0AC
:100AE0000E948E0F109201016EE071E08FE591E09F
:100AF0000E94700AC8CFBB2069F581E00E94A90F4F
:100B000082E094E00E948E0F61E080E00E94F70F87
:100B100087EF93E00E948E0F1092010140914A01ED
:100B20004F5F40934A016AE071E08FE591E00E94D7
:100B3000DC0AA9CF992051F481E00E94A90F89EE27
:100B400093E00E948E0F109201019DCF0FE2BB2017
:100B500009F499CF7BE1C72ED12CCC0EDD1E65E0C8
:100B6000E62EF12CEC0EFD1E80910001992787FDE9
:100B7000909520E13EE0A901849F9001859F300D72
:100B8000949F300D1124442737FD4095542F6091D8
:100B90004601709147018091480190914901620F8F
:100BA000731F841F951F9601A7010E94000E182F26
:100BB000A81631F081E00E94A90FC7010E949C0F86
:100BC00061E080E00E94F70FC6010E949C0FA11611
:100BD00001F186EE93E00E948E0F8091000187FD67
:100BE00004C084EE93E00E948E0F809100014AE0E1
:100BF00050E0BE016F5F7F4F992787FD90950E945F
:100C00004910CE0101960E949C0F82EE93E00E9453
:100C10008E0F61E08EE00E94F70F802F0E94800F00
:100C20001A3319F452E0B52E14C01B3391F452E07C
:100C3000B51679F40F3259F040914A014F5F409355
:100C40004A016AE071E08FE591E00E94DC0A43E02E
:100C5000B42E10920101A12E16CFBC018FE591E0B8
:100C60000E9423088823D9F08FE591E00E944A086A
:100C7000882321F08FE591E00E94E8088FE591E05C
:100C80000E944008882309F4FECE6EE071E08FE5F3
:100C900091E00E94B90A882309F0F3CEF4CEB7019F
:100CA0008FE591E00E945408882309F4ECCE8091EE
:100CB0007601813059F480918101883009F0E3CECA
:100CC000B7018FE591E00E941009DDCE863009F072
:100CD00021C180918301882309F0D5CE80918401C0
:100CE000803509F0D0CE80918E01992781FF05C013
:100CF0008FE591E00E948109C6CE84FFC4CE8FE5C6
:100D000091E00E94BA090E94AB098C01009749F456
:100D100080918E0180FFB7CE8FE591E00E94020A9C
:100D2000B2CEBC01615A7E4F44E050E088E391E0CE
:100D30000E942C10892B29F046EA53E060E070E015
:100D400099C0B8016D597E4F42E050E08DE391E0CB
:100D50000E942C10892B09F098C049E753E060E00D
:100D600070E08FE591E00E94E3094CE553E0BC019F
:100D70008FE591E00E94E3096C01BB2009F481C07A
:100D80003BE1E32EF12CEC0EFD1E8E010B5F1F4F9D
:100D900080910001992787FD909520E13EE0A9010F
:100DA000849F9001859F300D949F300D112444271E
:100DB00037FD4095542F6091460170914701809115
:100DC000480190914901620F731F841F951F97017D
:100DD000A8010E94000EA801B6018FE591E00E94D3
:100DE000F30940E451E0BC018FE591E00E94F30972
:100DF000A701BC018FE591E00E94F30945E553E0AE
:100E0000BC018FE591E00E94E3098C018091000113
:100E100087FD08C042E451E0B8018FE591E00E94EF
:100E2000F3098C01809100014AE050E0BE016F5F40
:100E30007F4F992787FD90950E944910AE014F5F23
:100E40005F4FB8018FE591E00E94F30942E553E05E
:100E5000BC018FE591E00E94E309BC0151E05B1504
:100E600038F44DE253E08FE591E00E94E309BC01C4
:100E700048E053E08FE591E00E94E3097C0110E037
:100E80002AC04EEE52E0BC01F5CFC8018C599E4FEE
:100E90000E941D04182F8F3F29F44EE952E060E0B4
:100EA00070E014C0813029F48FE591E00E9467035F
:100EB00011C0823081F441E752E060E070E08FE5DC
:100EC00091E00E94E30945E552E0BC018FE591E025
:100ED0000E94E3097C018FE591E00E94020AB701BC
:100EE0008FE591E00E94330A123009F0CCCD40E545
:100EF00062E171E086E191E00E940D0881E00E94CC
:100F0000A90F89E492E00E948E0F9924BB2423E666
:100F1000A22EB9CD813109F0B6CD8091810188230F
:100F200009F0B1CD809182018B3709F0ACCD4091B1
:100F30004A0166E471E08FE591E00E944E0B882340
:100F400009F4A1CD8091460190914701A0914801FB
:100F5000B09149019C01AD0120583E474A4A53488F
:100F60002093460130934701409348015093490133
:100F700091E0B92E88CDCF93DF93EC01FB01413096
:100F800051F43897AF016627772738964F5E5F4F49
:100F90006F4F7F4F21C0423029F040E050E060E0C9
:100FA00070E01AC03897AF016627772738964A5FF6
:100FB0005F4F6F4F7F4F10C088819927982F8827E8
:100FC00029813327822B932BAA27BB27480F591F30
:100FD0006A1F7B1F22963297E230F10568F7EF2BEC
:100FE00079F088819927982F8827AA2797FDA095BF
:100FF000BA2F02C060707070480F591F6A1F7B1FA4
:10100000CB01AA27BB270097A105B10599F7CA0113
:1010100080959095DF91CF9108959C014093450173
:10102000DB01E4E9F3E08D91819383E0E839F8078F
:10103000D1F7D901EEE9F3E08D91819383E0E43AB1
:10104000F807D1F70895FC0169327105B0F0848585
:10105000883099F48585863081F4B696A4E9B3E0AA
:1010600090818C91981749F43196119683E0A839B4
:10107000B807B1F781E090E0089580E090E008952E
:1010800020E030E0FC018589823011F421E030E07D
:10109000C901089520E030E0FC018589813011F418
:1010A00021E030E0C9010895FC016A327105C0F009
:1010B00084858830A9F48585882391F486858534D4
:1010C00079F4A4E9B3E0968D8C91981749F43196A0
:1010D000119683E0A839B807B1F781E090E0089550
:1010E00080E090E00895FC01AEE9B3E08681808362
:1010F0008D918683319683E0A43AB807B9F70895B5
:101100000F931F938C01FC01108E118E80E4848B51
:10111000158A868B40E064E170E0C8010E960E945B
:10112000BB07292F3327F801208F818F1F910F9143
:1011300008959C01FC01A4E9B3E0828D868F8D9116
:10114000828F319683E0A839B807B9F7C9010E94A8
:1011500080080895DC01FC01B29692E080818283D0
:1011600011929150D9F780914501FD0183A3B99661
:1011700094E08081680F711D84816483222311F0C3
:10118000808301C01082672F772791503197992370
:1011900081F7222351F4FD0116A217A28091440188
:1011A00080A711A68E5F80934401FD0112AA13AAA5
:1011B000442351F082E086AB84E087AB85E080AFCA
:1011C00080E881AF80E602C080E5FD0186A7089532
:1011D000CF93DF93EC010E9473081C8A82E08D8B11
:1011E000FE01AEE9B3E0868980A38D91868B3196AE
:1011F00083E0A43AB807B9F7FE017C96A4E9B3E00E
:10120000808182878D91819383E0A839B807C1F7E7
:10121000BE018AE290E00E94F80CDF91CF91089520
:101220000F931F93CF93DF93EC018B010E94730800
:10123000CE010E9499081AA28CA1883F18F08DA1B6
:101240008F5F8DA38CA1885F8CA3BE01C8010E9413
:10125000F80CDF91CF911F910F910895A0E0B0E0BD
:10126000E4E3F9E00C941214EC015B01042F790122
:101270000E9473080D3D08F00CED188A045E098B7E
:10128000CE010E9499088F2D99278CA3EDA21EA252
:1012900004510FA30850E8E2CE2ED12CCC0EDD1E57
:1012A00018A679E2E72EF12CEC0EFD1E19A620E01F
:1012B00030E00BC0FF27DE01AE0FBF1FEA0DFB1DA4
:1012C0008081FD0182A72F5F3F4FE22F201790F30F
:1012D0001127005F1F4F41E0B801CE014A960E94DE
:1012E000BB07292F3327F6012083F7018083BE0136
:1012F000C8014A960E94F80CEAE0CDB7DEB70C941C
:101300002E140F931F938C010E947308F801108A0A
:101310008CE2818BC8010E94990882E1F80187A7BD
:1013200020E041E061E070E0C8010E94AA0842E0CC
:1013300060E270E0C8014A960E94BB07292F33275C
:10134000F80122AB83ABB8018AE390E00E94F80C6D
:101350001F910F9108958091900390919103892B93
:1013600019F480E090E008958091920390919303A6
:1013700082960895FC0120893327322F2227818904
:101380009927282B392B24513040309391032093F7
:10139000900386A582958F709927880F991F880FD3
:1013A000991F9093930380939203281B390B3093DA
:1013B0009103209390031216130624F010929103C8
:1013C000109290030895DC01A60FB71FD69603C0B4
:1013D0008D936F5F7F4FFA014F5F5F4F849188233A
:1013E000B9F7CB010895DA01FC01E60FF71FF69675
:1013F00004C081936F5F7F4F11968C918823C9F74A
:10140000CB010895CF93DF93EC010E94730880E134
:101410008FA760919003709191036115710529F474
:1014200021E040E061E070E002C021E040E0CE0158
:101430000E94AA08188A88E2898BCE010E94990826
:1014400042E06CE170E0CE014A960E94BB07292F72
:1014500033272AAB8BABBE0186E390E00E94F80CE9
:10146000DF91CF910895EF92FF920F931F938C011C
:101470007B0189E1F80187A79B01285D3F4F832FFE
:101480009927808B218BC8010E948008F80112AA3D
:1014900013AA8CE190E0E80EF91E42E0B701C80102
:1014A0004A960E94BB07292F3327F80122AB83AB52
:1014B000B801C7014A960E94F80C1F910F91FF9046
:1014C000EF900895DC01FA0120E030E005C084913E
:1014D0008D9331962F5F3F4F26173707C1F7089539
:1014E000EF92FF920F931F93CF93DF93EC017B0159
:1014F000FC010EE913E09FEF9083D8018D918D01DF
:1015000086833196B3E0043A1B07B1F788E08C87F5
:1015100086E08D8747E354E068E070E0CE010E96E8
:101520000E94620AFE01D80116978D91868B10A247
:10153000319683E0A43AB807C1F79701AE01445E43
:101540005F4FA4E9B3E0F90181919F01FA0182871D
:101550008D918193AF01F3E0A839BF07A1F7BE01D8
:101560008AE290E00E94F80CE6E0CDB7DEB70C947A
:101570003214CF93DF93AC01DC01FB019B012C5FA4
:101580003F4FED019C8D8191981719F080E090E01C
:1015900010C01196E217F307A1F7FA01A8E9B3E02A
:1015A00086898D93319683E0AE39B807C9F781E01B
:1015B00090E0DF91CF910895EF92FF920F931F93E8
:1015C000CF93DF93EC018B01F42EFC0148E953E04B
:1015D0002EE933E0DA018D91AD018083D9018D913F
:1015E0009D0186833196B3E04E395B0799F788E019
:1015F0008C871D864DE254E06AE070E0CE010E96C5
:101600000E94620A9801FE0144E953E0D9018D91DC
:101610009D01868FDA018D91AD01828F3196B3E005
:1016200048395B0799F7CE010E9480081CA28BE71E
:101630008DA38AE08AA3FBA21EA288E38FA368E29F
:10164000E62EF12CEC0EFD1E18A68E01075D1F4F35
:1016500019A6FE01BA9680E311928150E9F743E2A0
:1016600054E06AE070E0CE018A960E94620A41E08E
:1016700060E470E0CE014A960E94BB07292F332711
:10168000F7012083D8018C93BE018AE590E00E9487
:10169000F80CE6E0CDB7DEB70C943214CF93DF93AD
:1016A000FC01EB01442319F085A18417C9F586A13B
:1016B0008823B1F587A1883399F583A18B3781F50C
:1016C000EE5AFF4F2191332744275527522F4427A5
:1016D0003327222781919927AA27BB27DC01992745
:1016E0008827282B392B4A2B5B2B81919927AA27F6
:1016F000BB27BA2FA92F982F8827282B392B4A2BA5
:101700005B2B80819927AA27BB27282B392B4A2BB3
:101710005B2B288339834A835B8381E090E002C09E
:1017200080E090E0DF91CF9108952A98962F9F71E5
:10173000982B9EBD0DB407FEFDCF1EBC0DB407FE59
:10174000FDCF67FF04C01EBC0DB407FEFDCF2A9A73
:101750008EB5992708952A986F71682B6EBD0DB4C8
:1017600007FEFDCF4EBD0DB407FEFDCF2A9A0895AA
:101770009C012A988AE38EBD0DB407FEFDCFFB01C4
:10178000260F371F06C01EBC0DB407FEFDCF8EB559
:101790008193E217F307B9F710822A9A0895AC01F2
:1017A000FB012A988AE78EBD0DB407FEFDCF20E02D
:1017B00030E007C081918EBD0DB407FEFDCF2F5FD5
:1017C0003F4F24173507B1F72A9A08951F93CF93F7
:1017D000DF93182FC82FDD27C076D0708091A60325
:1017E0009927C817D90791F043E06FE180EA0E947A
:1017F000AB0B85E0D595C7958A95E1F74C2F6FE146
:1018000080E80E94AB0B10761093A603DF91CF9176
:101810001F9108951F93182F0E94E60B612F80E0FF
:101820000E94950B99271F9108950F931F93082FDE
:10183000162F0E94E60B412F602F80E40E94AB0B15
:101840001F910F9108950F931F938B01682F84EDC3
:101850000E94150C602F86ED0E94150C012F112798
:10186000602F87ED0E94150C03C08EE38A95F1F777
:101870008AEE0E940A0C80FDF8CF1F910F91089507
:101880008770682F85E70E94150C08950F931F93AA
:101890008C01229A2A9A84B1886284B924982B9860
:1018A0002D9880E58CBD8DB581608DBD4FEF60E0DA
:1018B0008FEF0E94AB0B82E390E00E94D30D109259
:1018C000A5031092A40360E088E00E94150C60E07C
:1018D00089E00E94150C60E08CE00E94150C60E02D
:1018E0008DE00E94150C6EEF8AE00E94150C69E1F4
:1018F0008BE00E94150C6FEF84E00E94150C69E1EB
:1019000085E00E94150C6FEF86E00E94150C6FE1D8
:1019100087E00E94150C60EB88E30E94150C6FE3D2
:1019200088E20E94150C60E389E20E94150C69EFC1
:1019300080E30E94150C67EF81E30E94150C6DE0B7
:1019400080EC0E94150C60E081EC0E94150C42E3D3
:1019500062EC80E80E94AB0B62E186EC0E94150C01
:101960006CE087EC0E94150C62E184EC0E94150C7F
:101970006CED8AEC0E94150C65E08BEC0E94150C56
:10198000F801608184EE0E94150CF801618185EEFA
:101990000E94150CF801628182EE0E94150CF8017C
:1019A000638183EE0E94150CF801648180EE0E9431
:1019B000150CF801658181EE0E94150C60E071E064
:1019C00080E10E94230C8FE10E94E60B40EC6BE16A
:1019D00080E80E94AB0B44E06FE180E80E94AB0B13
:1019E0001F910F91089582E70E940A0C992708958C
:1019F000EF92FF920F931F938C017B016FEF82E0B8
:101A00000E94150C69E183E00E94150C602F615063
:101A100086E00E94150C0150164E612F77270F5F4C
:101A2000194187E00E94150C40E060E08AE70E94BF
:101A3000AB0BB701C8010E94CF0B48E06FE180E813
:101A40000E94AB0B8CE10E940A0C81FF05C048E0AC
:101A50006FE180EA0E94AB0B1F910F91FF90EF9016
:101A60000895A0E0B0E0E7E3FDE00C9414147C01DD
:101A70006B0189E30E940A0C882319F4C0E0D0E0CE
:101A800067C06091A40380E00E94150C6091A403DC
:101A90007091A503672F772781E00E94150C60E005
:101AA0008AE30E94950B082F11271093A50300933A
:101AB000A40360E08AE30E94950B9927982F88275A
:101AC000082B192B1093A5030093A40360E08AE36D
:101AD0000E94950BC82FDD2760E08AE30E94950BDA
:101AE0009927982F8827C82BD92B249760E08AE361
:101AF0000E94950B082F112760E08AE30E94950B46
:101B00009927982F8827802B912B970121503040BF
:101B10002C173D0708F4E90187FD03C0C0E0D0E0C1
:101B200004C0B601CE010E94B80B6091A4038CE002
:101B30000E94150C6091A4037091A503672F77276D
:101B40008DE00E94150C40E46EE180E80E94AB0B32
:101B5000CE01E8E0CDB7DEB70C943014682F84EDE9
:101B60000E94150C61E082ED0E94150C8EE38A95AF
:101B7000F1F78AEE0E940A0C80FDFBCF60E082ED57
:101B80000E94150C89ED0E940A0C9927089581E1A5
:101B90000E94AE0D20E0892B09F421E081E0282786
:101BA000822F99270895AC0120E030E0E8EBFBE0BC
:101BB00005C0CF010197F1F72F5F3F4F241735077D
:101BC000C1F7089588E190E02FE00FB6F894A8954A
:101BD000809360000FBE209360000895A89508953B
:101BE000613019F4845E99270895673008F06150D8
:101BF00060FF03C08EE190E008958FE190E00895CA
:101C0000A9E0B0E0E6E0FEE00C940A147B018C0150
:101C10001A013987288720E831E541E050E00E9429
:101C2000E8135B016C01C801B70120E831E541E030
:101C300050E00E94E81389012CE330E040E050E0DE
:101C40000E94E8136F83C601B50120E13EE040E049
:101C500050E00E94E8132CE330E040E050E00E94A6
:101C6000E8132E83C601B50120E13EE040E050E0DC
:101C70000E94E8132D83C801049667E070E00E947B
:101C8000D413882E92EBE92E97E0F92E1AC0CD28B6
:101C900089F4C70164E670E00E94D413892B39F4FB
:101CA000C70160E971E00E94D413892B19F48EE614
:101CB00091E002C08DE691E0081B190B0894E11C2D
:101CC000F11C83E0C82ED12CCE20DF20C114D1041A
:101CD00089F4C70164E670E00E94D413892B39F4BB
:101CE000C70160E971E00E94D413892B19F48EE6D4
:101CF00091E002C08DE691E00817190740F6C70190
:101D000064E670E00E94D4132C01C70160E971E021
:101D10000E94D4133C01AA24BB2416C0C114D104D0
:101D200049F44114510419F46114710419F481E067
:101D300090E002C080E090E0692D0E94F00D081B49
:101D400011090894A11CB11C9A2CC114D10449F4A6
:101D50004114510419F46114710419F481E090E004
:101D600002C080E090E0692D0E94F00D99270817CD
:101D70001907A0F683E0889EF0011124E15CFB4F77
:101D8000DE0111969E012C5F3F4F84918D93319619
:101D9000A217B307D1F71C820F5F1F4F1F930F933A
:101DA000892D992701969F938F93FF92EF92CE01F1
:101DB00001969F938F9384E694E09F938F933F9235
:101DC0002F920E9472102E81022F11272F81822FB5
:101DD00099279F938F931F930F932D81822F99277C
:101DE0009F938F9385E594E09F938F938885998542
:101DF0009F938F930E9472108DB79EB746960FB631
:101E0000F8949EBF0FBE8DBFC801E2E129960C94E5
:101E10002614AC0120E030E0E8EBFBE005C0CF0188
:101E20000197F1F72F5F3F4F24173507C1F708954A
:101E300087FF02C0589A01C05898992786FF02C0B0
:101E4000599A01C0599885FF02C05B9A01C05B98FE
:101E500084FF02C05C9A08955C98089595E29A9573
:101E6000F1F7882321F082E090E00E94090F80E0E2
:101E700090E008955D9A84E18A95F1F75D9884E099
:101E80008A95F1F70895FF920F931F93082FF62E6E
:101E9000509A519A539A549A10E1812F8A95F1F7EA
:101EA000802F0E94180F1A95F1F7FF2011F05E9A0B
:101EB00001C05E980E943A0F802F992783FF02C0CD
:101EC000589A01C0589882FF02C0599A01C0599887
:101ED00081FF02C05B9A01C05B9800FF02C05C9A60
:101EE00001C05C9880E18A95F1F7FF2011F05E9ABD
:101EF00001C05E980E943A0F1F910F91FF900895C4
:101F00001F93182F80E00E942E0F61E0812F0E9406
:101F1000430F80E00E942E0F1F910895CF93DF930F
:101F2000EC0102C00E94800FFE012196849188235B
:101F3000C9F7DF91CF910895CF93DF93EC0103C0F0
:101F40000E94800F219688818823D1F7DF91CF915D
:101F500008951F93182F80E00E942E0F60E0812FBC
:101F60000E94430F81E00E942E0F1F9108951F933E
:101F7000182F509A519A539A549A569A559A8CE01F
:101F800090E00E94090F80E30E94180F0E943A0F10
:101F900082E090E00E94090F80E30E94180F0E94E7
:101FA0003A0F82E090E00E94090F80E30E94180F30
:101FB0000E943A0F82E090E00E94090F80E20E94A6
:101FC000180F0E943A0F88E20E94A90F88E00E9431
:101FD000A90F81E00E94A90F86E00E94A90F812F1E
:101FE0000E94A90F81E00E942E0F1F910895662381
:101FF00011F4805801C080540E94A90F0895FC017B
:1020000088279927E89421912223F1F02032D9F3EF
:102010002930C9F32A30B9F32C30A9F32D3099F3C4
:10202000263789F32B3219F02D3221F4689421914F
:10203000222351F0203344F02A3334F420530E94F9
:102040006A10820F911DF3CF8115910521F01EF4C6
:102050008095909501960895FB01DC014150504018
:1020600030F08D910190801919F40020B9F7881B88
:10207000990B0895FB01DC014150504048F001905C
:102080000D920020C9F701C01D9241505040E0F769
:102090000895FB019F01E8944230C4F04532B4F446
:1020A0004A3029F497FB1EF4909581959F4F642F39
:1020B00077270E94D413805D8A330CF0895D819369
:1020C000CB010097A1F716F45DE251931082C9018C
:1020D0000C9497137AE0979F902D879F802D910DF8
:1020E000112408950F931F93CF93DF93CDB7DEB7DD
:1020F00060970FB6F894DEBF0FBECDBF0F89188D65
:10210000698D7A8D8EE08E831C830B838FEF9FE722
:1021100098878F83AE01455E5F4F5A834983CE0116
:1021200003960E94A41029853A85020F131FF80117
:10213000108260960FB6F894DEBF0FBECDBFDF9160
:10214000CF911F910F9108952F923F924F925F92DE
:102150006F927F928F929F92AF92BF92CF92DF92B7
:10216000EF92FF920F931F93CF93DF93CDB7DEB71C
:1021700062970FB6F894DEBF0FBECDBF88249924B6
:1021800054012C017A8B698B3A01FC01178216826B
:10219000838181FD6EC28FEF9FEF91C229893A89B9
:1021A0002F5F3F4F3A8B298BC0FE66C2832D805331
:1021B0008A30E0F430E3331641F48D85882329F426
:1021C000C3FC03C0E0E0F1E07BC08AE0FD85F802DB
:1021D000C0011124380E232D20532D8727FF02C064
:1021E0003FE73D87C3FC5AC22D8458C2C601B3E005
:1021F00096958795BA95E1F781709070282F88237E
:1022000029F08D85882311F491E09D87832D9927EE
:1022100087FD9095E7E6E31564F1F5E63F160CF0CF
:1022200065C033E5331609F48FC03315B4F0EBE223
:102230003E1609F43FC0E31544F0F0E23F16F1F119
:1022400023E2321609F012C241C03DE23316D9F141
:10225000EEE23E1609F00AC23EC0F3E63F1609F46C
:102260004BC0F3150CF48AC028E5321609F0FEC104
:10227000B5C030E7331609F4ABC033155CF0ECE6BB
:102280003E1679F1FFE63F1691F029E6321609F085
:10229000EDC174C035E7331609F4A2C0E8E73E1675
:1022A00009F49CC0F3E73F1609F0E0C12DC028E017
:1022B000288B96C080E190E0C82AD92AE0E2F0E0BD
:1022C000CE2ADF2AEBC120E830E00DC080E490E0A8
:1022D000C82AD92AE3C1E8E0F0E0CE2ADF2A1D8629
:1022E000DDC124E030E0C22AD32AD8C1AFE38A2E70
:1022F0002A94F3E63F2E44C1F30180802A9422E021
:1023000030E0620E731E3CC183010E5F1F4FF3016C
:10231000A081B1814D01222351F0FD856F2F7727D8
:1023200067FD7095CD010E948C13888B07C0FD015D
:1023300001900020E9F73197EA1BE88B2889221ADF
:102340003801E3E73E2E1CC183010E5F1F4FF301EE
:10235000808191814C01222341F0FD856F2F7727E9
:1023600067FD70950E94811302C00E947813888BCC
:102370002889221A380173E5372E02C1C2FE08C02F
:10238000F30180819181A281B38124E030E009C012
:10239000F30180819181AA2797FDA095BA2F22E0B1
:1023A00030E0620E731E4C015D01B7FF0CC082E08D
:1023B00090E0C82AD92AB094A09490948094811C6B
:1023C000911CA11CB11CEFEBFFEFCE22DF2221C03C
:1023D00020E430E0C22AD32A68E7362E30E1388B79
:1023E000C2FE08C0F30180819181A281B38124E003
:1023F00030E007C0F30180819181AA27BB2722E04A
:1024000030E0620E731E4C015D018FEC9FEFC8221D
:10241000D92285017401FE013196FF87EE87F88984
:102420008F2E9924AA24BB24C801B701A5019401C9
:102430000E94E8136A301CF0630D615201C0605DB8
:10244000EE85FF856193FF87EE87C801B701A5017F
:1024500094010E94E81379018A0121153105410593
:10246000510511F7882499245401CE0101964E8517
:10247000481B842EC60182739070892B09F02A9420
:10248000C6FE07C0F889F03111F482E001C081E096
:10249000281AC3FE12C08D85282F332727FD3095BB
:1024A000842F9927821793072CF0E7EFFFEFCE22B6
:1024B000DF2203C0FD85F41BFD87C60153E096951E
:1024C00087955A95E1F781709070082F882319F04D
:1024D0002D85221A01C0241AC60180789170892B9B
:1024E00069F4822D06C0B20180E290E00E94A71339
:1024F000812F182F11501816B4F3212EC1FE04C0DD
:10250000B2018DE290E00BC0C4FE04C0B2018BE2C8
:1025100090E005C0C5FE05C0B20180E290E00E94D7
:10252000A713C6FE0FC0B20180E390E00E94A7137C
:102530003889303139F4B201832D992787FD909580
:102540000E94A713D0FE0DC0822D06C0B20180E309
:1025500090E00E94A713812F182F11501816B4F382
:10256000212E002369F02D8506C0B20180E390E0A2
:102570000E94A713212F122F11501216B4F31D879A
:10258000C601880F892F881F990B919521E0C22ED3
:10259000D12CC822D92280FD0DC0822D06C0B201E7
:1025A00080E290E00E94A713812F182F1150181677
:1025B000B4F3212E83E6381641F4B201882D992711
:1025C00087FD90950E94A71341C093E7391691F4B7
:1025D0008401FF240AC0F80181918F01B20199277B
:1025E00087FD90950E94A713FA9488898195F81623
:1025F00091F716C023E5321619F00E851F851FC00E
:102600008401FF2409C0F8018491B20199270E9436
:10261000A7130F5F1F4FFA9488898195F81699F7D1
:10262000F889FF0DF150F88B480110C0F801829134
:102630008F01B201992787FD90950E94A713CE01C3
:1026400001960817190791F71F870E87CD2889F083
:10265000822D06C0B20180E290E00E94A713812F74
:10266000182F11501816B4F3212E03C0B2010E9486
:10267000A713CC24DD2412C0F5E23F1641F481E01B
:10268000C82ED12C1D8622242AE0288B07C0B20137
:10269000832D992787FD90950E94A713F2018381CE
:1026A00083FF04C0E989FA89349003C0E989FA8973
:1026B0003080332009F072CDF201868197816296D5
:1026C0000FB6F894DEBF0FBECDBFDF91CF911F9143
:1026D0000F91FF90EF90DF90CF90BF90AF909F90C1
:1026E0008F907F906F905F904F903F902F900895C4
:1026F000FC0105900020E9F7809590958E0F9F1FB3
:102700000895FC010590615070400110D8F7809544
:1027100090958E0F9F1F0895FC01615070400190AD
:102720000110D8F7809590958E0F9F1F0895DC01BA
:10273000FC0101900020E9F73297AE17BF0730F493
:102740007C916081708331976D93F7CF08950F93DB
:102750001F93CF93DF938C01EB018B81992781FF2E
:102760001BC082FF0DC02E813F818C819D81281767
:10277000390764F4E881F9810193F983E88306C09D
:10278000E885F985802F0995892B31F48E819F8109
:1027900001969F838E8302C00FEF1FEFC801DF9168
:1027A000CF911F910F910895AA1BBB1B51E107C048
:1027B000AA1FBB1FA617B70710F0A61BB70B881FD1
:1027C000991F5A95A9F780959095BC01CD01089560
:1027D000A1E21A2EAA1BBB1BFD010DC0AA1FBB1F25
:1027E000EE1FFF1FA217B307E407F50720F0A21B97
:1027F000B30BE40BF50B661F771F881F991F1A9404
:1028000069F760957095809590959B01AC01BD012D
:10281000CF0108952F923F924F925F926F927F92D5
:102820008F929F92AF92BF92CF92DF92EF92FF92E0
:102830000F931F93CF93DF93CDB7DEB7CA1BDB0B8C
:102840000FB6F894DEBF0FBECDBF09942A88398831
:1028500048885F846E847D848C849B84AA84B98438
:10286000C884DF80EE80FD800C811B81AA81B98144
:10287000CE0FD11D0FB6F894DEBF0FBECDBFED0158
:102880000895F999FECFB2BDA1BDF89A119600B492
:102890000895F7DF01921A94E1F70895F999FECFB0
:1028A000B2BDA1BD00BC11960FB6F894FA9AF99A80
:0E28B0000FBE08950190F2DF1A94E1F708952B
:1028BE000101736563726574000011FE001F0A004A
:1028CE0000020A00001C545558100028636F6E66F3
:1028DE006967006664007077006970006777006E44
:1028EE007300747A006E700047455420002F20004C
:0628FE000A002B000A5045
:00000001FF
