:100000000C943A020C9455020C9455020C9455022F
:100010000C9455020C9455020C9455020C94550204
:100020000C9455020C9455020C9455020C94060441
:100030000C9455020C9455020C9455020C945502E4
:100040000C9455020C9455020C9455020C945502D4
:100050000C9455020C9455020C9455020C945502C4
:100060000C9455020C9455023E0A4E65772070613F
:100070007373776F72643A203C696E707574207484
:100080007970653D74657874206E616D653D6E7044
:100090003E0A0A50617373776F72643A2020202001
:1000A000203C696E70757420747970653D70617361
:1000B00073776F7264206E616D653D70773E3C6949
:1000C0006E70757420747970653D68696464656EDE
:1000D000206E616D653D66642076616C75653D31AD
:1000E0003E0A3C696E70757420747970653D737555
:1000F000626D69742076616C75653D6170706C79B4
:100100003E3C2F666F726D3E0A3C2F7072653E005A
:100110003E0A4F666673657420746F205554433AE7
:100120003C696E70757420747970653D746578747F
:10013000206E616D653D747A2076616C75653D0059
:100140003E0A4E5450207365727665722049503ACB
:100150003C696E70757420747970653D746578744F
:10016000206E616D653D6E732076616C75653D0036
:100170003E0A44656661756C742047572049503AC1
:100180003C696E70757420747970653D746578741F
:10019000206E616D653D67772076616C75653D0009
:1001A0003C7072653E415652204E545020636C6F35
:1001B000636B2C20636F6E6669670A0A3C666F7218
:1001C0006D20616374696F6E3D2F636F6E66696742
:1001D000206D6574686F643D6765743E436C6F6342
:1001E0006B206F776E2049503A203C696E707574B1
:1001F00020747970653D74657874206E616D653D1D
:1002000069702076616C75653D00485454502F31FB
:100210002E3020323030204F4B0D0A436F6E746504
:100220006E742D547970653A20746578742F6874F3
:100230006D6C0D0A507261676D613A206E6F2D63AF
:10024000616368650D0A0D0A007570646174696EFA
:10025000672E2E2E003C703E4F4B2C2076616C7525
:10026000657320757064617465642E3C2F703E0A5E
:1002700000485454502F312E3020323030204F4B14
:100280000D0A436F6E74656E742D547970653A2053
:10029000746578742F68746D6C0D0A0D0A004854EB
:1002A00054502F312E302034303120556E6175740A
:1002B000686F72697A65640D0A436F6E74656E7457
:1002C0002D547970653A20746578742F68746D6C5C
:1002D0000D0A0D0A3C68313E34303120556E61758F
:1002E00074686F72697A65643C2F68313E005761AB
:1002F0006974696E6720666F72204E545020616E7B
:10030000737765722E2E2E003C2F7072653E0A3C6C
:1003100062723E3C6120687265663D222E2F223E4D
:10032000726566726573683C2F613E0A000A4C6113
:100330007374206E74702073796E63206973206FFC
:100340006C646572207468616E203120686F75720C
:100350000A00290A00202855544320003C68323EF8
:10036000415652204E545020636C6F636B3C2F6893
:10037000323E3C7072653E0A00485454502F312E74
:100380003020323030204F4B0D0A436F6E74656E53
:10039000742D547970653A20746578742F68746D83
:1003A0006C0D0A0D0A00485454502F312E30203263
:1003B0003030204F4B0D0A436F6E74656E742D54B0
:1003C0007970653A20746578742F68746D6C0D0AC5
:1003D0000D0A3C68313E323030204F4B3C2F6831A3
:1003E0003E0029002B002028004574682D6C696EA2
:1003F0006B20646F776E004E545020616E7377658A
:10040000720077616974696E6720666F7200475782
:100410002049500077616974696E6720666F7200C9
:100420004F4B00E30004FA0001000100004500000A
:100430004C00004000401100010800060400015378
:10044000756E4D6F6E547565576564546875467268
:100450006953617400253032753A253032753A257A
:100460003032750025732025752D253032752D25E8
:100470003032750011241FBECFEFD4E0DEBFCDBFF8
:1004800011E0A0E0B1E0E0E8F9E202C005900D92D1
:10049000A834B107D9F713E0A8E4B1E001C01D9278
:1004A000A93AB107E1F70C9405050C940000CF932D
:1004B000DF93C0E0D0E046E050E0BC0183E091E093
:1004C0000E946E10892B11F4C1E0D0E0CE01DF91C3
:1004D000CF910895CF93DF93DC01FB0120E011C0A1
:1004E0008081981759F431968081882349F41196B8
:1004F0008C918D3319F4FB0121E002C0FB0120E057
:1005000011969C91992321F0903211F0222341F30E
:10051000213011F080E018C0FD01CEE4D1E002C02E
:10052000299331968E2F8A1B2081222341F020327D
:1005300031F0263221F091E0C036D90789F7E82F53
:10054000FF27E25BFE4F10829927DF91CF9108953C
:10055000982F80538A3010F499270895892F815657
:10056000863020F49755892F99270895892F815433
:10057000863018F080E090E008959753892F9927EE
:100580000895FC0101900020E9F73197E81BE23063
:1005900084F0FF27E7FDF095E80FF91FDF011197C1
:1005A0008C91803311F41C92089580838EE28C9399
:1005B00011820895DC01FC0190E009C08E3211F037
:1005C0008C3219F4319691E002C08D93319680817E
:1005D0008823A1F7992311F480E38D931C92089549
:1005E000EF92FF920F931F93CF93DF937C01EC0167
:1005F00019C08B3211F480E211C0853279F48981FF
:1006000022960E94A802082F112784E0000F111FD4
:100610008A95E1F788810E94A802802BF7018193D7
:100620007F0121968881882321F7F7011082E6E077
:10063000CDB7DEB70C949314A4E0B0E0E2E2F3E0AF
:100640000C9475146C01FB017E010894E11CF11CF3
:1006500021C031962081822F992787FD9095C097E0
:100660000A9730F02223A9F703C00F5F1F4F01C084
:100670008F01D8019C91892F80538A30B0F3992340
:1006800011F01D928D01CF010E944110F70181935D
:100690007F01F801AE014F5F5F4F2E2D241B80813B
:1006A000882329F0CE010596E816F90699F624303C
:1006B00051F4F601DA0196012C5F3F4F8D91819341
:1006C000E217F307D9F7E8E024960C949114CF923F
:1006D000DF92FF920F931F93CF93DF936C01FF2460
:1006E00000E010E0EB01B6016F0D711D88814AE05A
:1006F00050E099270E948B109F2DF601E90FF11D04
:1007000080819F5F8823C9F78EE28083F92E0F5F77
:100710001F4F21960430110531F71082DF91CF91E0
:100720001F910F91FF90DF90CF9008950F931F932B
:10073000CF93DF93EC014AE052E060E070E00E946A
:10074000250A40EA51E0BC01CE010E94250A8C0135
:1007500063E171E08EE491E00E9467034EE451E0B2
:10076000B801CE010E94350A40E751E0BC01CE013C
:100770000E94250A8C016FE071E08EE491E00E94F6
:1007800067034EE451E0B801CE010E94350A40E40F
:1007900051E0BC01CE010E94250A8C016BE071E0A2
:1007A0008EE491E00E9467034EE451E0B801CE016F
:1007B0000E94350A40E151E0BC01CE010E94250AA9
:1007C0008C01209100013091010137FD03C08BE2C3
:1007D00080934E014AE050E06FE471E0C9010E944D
:1007E0008B108FE491E00E94C1024EE451E0B80109
:1007F000CE010E94350A48E650E0BC01CE010E94BD
:10080000250ADF91CF911F910F9108951F920F92AA
:100810000FB60F9211248F939F93AF93BF93809144
:10082000480190914901A0914A01B0914B01019674
:10083000A11DB11D8093480190934901A0934A01E5
:10084000B0934B01809102018F5F809302018091F0
:100850004D01882321F010924D01299A04C081E0B6
:1008600080934D012998BF91AF919F918F910F90E7
:100870000FBE0F901F901895109285001092840063
:10088000109280008DE0809381008FE28093890038
:100890008EEA8093880082E080936F000895CF9362
:1008A000DF93EC0146E050E0BC018DE191E00E9455
:1008B0006E10892B09F0A4C064E271E0CE010E94A1
:1008C0006A02882319F481E090E09CC067E271E03D
:1008D000CE010E946A02882309F492C08EE491E05E
:1008E0000E94F0028EE491E00E945702882309F4EE
:1008F00087C06AE271E0CE010E946A02882331F06B
:100900006EE471E083E191E00E941C036DE271E00E
:10091000CE010E946A02882331F06EE471E08FE01C
:1009200091E00E941C0360E371E0CE010E946A0224
:10093000882331F06EE471E08BE091E00E941C03AB
:1009400063E371E0CE010E946A028823B1F08EE475
:1009500091E00E94F0028EE491E00E94DA028EE4BF
:1009600091E00E9441109C0185579F4F8751914013
:1009700020F4309301012093000166E371E0CE0181
:100980000E946A02882371F08EE491E00E94F002D6
:1009900047E050E06EE471E083E091E00E947C105B
:1009A00010920A0183E1A0E0B0E0082E0E94AF148B
:1009B00084E0E3E1F1E0A1E0B0E0182E0E94BB1476
:1009C000EFE0F1E0A6E0B0E0182E0E94BB14EBE0EF
:1009D000F1E0ABE0B0E0182E0E94BB148091000162
:1009E000A0E1B0E0082E0E94AF1488E0E3E0F1E05F
:1009F000A3E1B0E0182E0E94BB1482E090E002C098
:100A00008FEF9FEFDF91CF910895CFECD4E0DEBF61
:100A1000CDBF80E8809361001092610081E090E09A
:100A20000E94150E52982098289A87E191E00E9422
:100A3000880C82E00E94820C8AE090E00E94150EF1
:100A4000219A299A189B31C0A0E0B0E00E94A2141C
:100A5000802D833151F584E0E3E1F1E0A1E0B0E0E5
:100A6000182E0E94AA14EFE0F1E0A6E0B0E0182EE4
:100A70000E94AA14EBE0F1E0ABE0B0E0182E0E9477
:100A8000AA14A0E1B0E00E94A214802D99279093AF
:100A900001018093000188E0E3E0F1E0A3E1B0E030
:100AA000182E0E94AA1410920A0166E774E084E1ED
:100AB0000E94650C84E190E00E94150E8CE00E947B
:100AC000F90F81E00E94EB0F40E563E171E087E1FF
:100AD00091E00E944F080E943C0480E294E00E9452
:100AE000D00F10E00E94090E811113E680E991E019
:100AF0000E94150E1F5F1F30A8F3789448C2E1E0F2
:100B00009E2E61E671E080E392E00E94730D7C010D
:100B1000009709F0E2C080910201882391F30E94BE
:100B2000090E882309F444C081E08B1510F40CE70A
:100B300001C000E280910201843008F446C099208F
:100B4000C1F481E00E94EB0F84E194E00E94D00F99
:100B500061E080E00E9439108EE094E00E94D00FA6
:100B6000109202016FE071E081E691E00E94B20A0A
:100B7000C8CFBB2069F581E00E94EB0F82E094E0D2
:100B80000E94D00F61E080E00E94391087EF93E06F
:100B90000E94D00F1092020140914C014F5F409390
:100BA0004C016BE071E081E691E00E941E0BA9CF41
:100BB000992051F481E00E94EB0F89EE93E00E94AE
:100BC000D00F109202019DCF0FE2BB2009F499CF04
:100BD0007BE1C72ED12CCC0EDD1E65E0E62EF12C7C
:100BE000EC0EFD1E6091000170910101882777FDD8
:100BF0008095982F28E631E040E050E00E941614DE
:100C00009B01AC01609148017091490180914A01BA
:100C100090914B01620F731F841F951F9601A701CE
:100C20000E94420E182FA81631F081E00E94EB0FAF
:100C3000C7010E94DE0F61E080E00E943910C6010A
:100C40000E94DE0FA11629F186EE93E00E94D00FDC
:100C5000809100019091010197FD04C084EE93E022
:100C60000E94D00F4AE050E0BE016F5F7F4F80913D
:100C70000001909101010E948B10CE0101960E940B
:100C8000C102CE0101960E94DE0F82EE93E00E9427
:100C9000D00F60E08FE00E943910802F0E94C20FB9
:100CA0001A3319F452E0B52E14C01B3391F482E0CC
:100CB000B81679F40F3259F040914C014F5F4093D0
:100CC0004C016BE071E081E691E00E941E0B43E075
:100CD000B42E10920201A12E14CFBC0181E691E046
:100CE0000E9465088823D9F081E691E00E948C0873
:100CF000882321F081E691E00E942A0981E691E0B3
:100D00000E948208882309F4FCCE6FE071E081E63E
:100D100091E00E94FB0A882309F0F1CEF2CEB701E0
:100D200081E691E00E949608882309F4EACE80913A
:100D30007801813059F480918301883009F0E1CE47
:100D4000B70181E691E00E945209DBCE863009F0BE
:100D500023C180918501882309F0D3CE809186013B
:100D6000803509F0CECE80919001992781FF05C092
:100D700081E691E00E94C309C4CE84FFC2CE81E621
:100D800091E00E94FC090E94ED098C01009749F452
:100D90008091900180FFB5CE81E691E00E94440AE7
:100DA000B0CEBC016F597E4F44E050E089E391E042
:100DB0000E946E10892B29F046EA53E060E070E053
:100DC0009BC0B8016B597E4F42E050E08EE391E04A
:100DD0000E946E10892B09F09AC049E753E060E049
:100DE00070E081E691E00E94250A4CE553E0BC01E9
:100DF00081E691E00E94250A6C01BB2009F483C0C2
:100E00003BE1E32EF12CEC0EFD1E8E010B5F1F4F1C
:100E10006091000170910101882777FD8095982FDE
:100E200028E631E040E050E00E9416149B01AC013E
:100E3000609148017091490180914A0190914B0164
:100E4000620F731F841F951F9701A8010E94420E15
:100E5000A801B60181E691E00E94350A41E451E023
:100E6000BC0181E691E00E94350AA701BC0181E640
:100E700091E00E94350A45E553E0BC0181E691E02E
:100E80000E94250A8C01809100019091010197FD3B
:100E900008C043E451E0B80181E691E00E94350AC0
:100EA0008C014AE050E0BE016F5F7F4F80910001EE
:100EB000909101010E948B10CE0101960E94C10207
:100EC000AE014F5F5F4FB80181E691E00E94350AA5
:100ED00042E553E0BC0181E691E00E94250ABC0195
:100EE00081E08B1538F44DE253E081E691E00E94F9
:100EF000250ABC0148E053E081E691E00E94250A02
:100F00007C0110E02AC04EEE52E0BC01F5CFC801D2
:100F10008A599E4F0E944F04182F8F3F29F44EE9A3
:100F200052E060E070E014C0813029F481E691E085
:100F30000E94960311C0823081F441E752E060E0E4
:100F400070E081E691E00E94250A45E552E0BC018F
:100F500081E691E00E94250A7C0181E691E00E94F1
:100F6000440AB70181E691E00E94750A123009F047
:100F7000C8CD40E563E171E087E191E00E944F0850
:100F800081E00E94EB0F89E492E00E94D00F992447
:100F9000BB2423E6A22EB5CD813109F0B2CD8091DC
:100FA0008301882309F0ADCD809184018B3709F04E
:100FB000A8CD40914C0168E471E081E691E00E9487
:100FC000900B882309F49DCD8091480190914901AF
:100FD000A0914A01B0914B019C01AD0120583E47C0
:100FE0004A4A5348209348013093490140934A01AB
:100FF00050934B0191E0B92E84CDCF93DF93EC0158
:10100000FB01413051F43897AF01662777273896B6
:101010004F5E5F4F6F4F7F4F21C0423029F040E05D
:1010200050E060E070E01AC03897AF01662777277C
:1010300038964A5F5F4F6F4F7F4F10C08881992766
:10104000982F882729813327822B932BAA27BB2708
:10105000480F591F6A1F7B1F22963297E230F10515
:1010600068F7EF2B79F088819927982F8827AA278E
:1010700097FDA095BA2F02C060707070480F591F7D
:101080006A1F7B1FCB01AA27BB270097A105B105CB
:1010900099F7CA0180959095DF91CF9108959C01B1
:1010A00040934601DB01E6E9F3E08D91819383E013
:1010B000EA39F807D1F7D901E0EAF3E08D9181939D
:1010C00083E0E63AF807D1F70895FC01693271052B
:1010D000B0F08485883099F48585863081F4B696A1
:1010E000A6E9B3E090818C91981749F43196119656
:1010F00083E0AA39B807B1F781E090E0089580E075
:1011000090E0089520E030E0FC018589823011F400
:1011100021E030E0C901089520E030E0FC0185893C
:10112000813011F421E030E0C9010895FC016A32F8
:101130007105C0F084858830A9F48585882391F4F1
:101140008685853479F4A6E9B3E0968D8C9198175D
:1011500049F43196119683E0AA39B807B1F781E0D6
:1011600090E0089580E090E00895FC01A0EAB3E0EB
:10117000868180838D918683319683E0A63AB80775
:10118000B9F708950F931F938C01FC01108E118EF7
:1011900080E4848B158A868B40E064E170E0C801AE
:1011A0000E960E94FD07292F3327F801208F818F8B
:1011B0001F910F9108959C01FC01A6E9B3E0828D77
:1011C000868F8D91828F319683E0AA39B807B9F75F
:1011D000C9010E94C2080895DC01FC01B29692E0A8
:1011E0008081828311929150D9F780914601FD014F
:1011F00083A3B99694E08081680F711D8481648314
:10120000222311F0808301C01082672F772791502D
:101210003197992381F7222351F4FD0116A217A2D9
:101220008091450180A711A68E5F80934501FD0145
:1012300012AA13AA442351F082E086AB84E087AB64
:1012400085E080AF80E881AF80E602C080E5FD01E7
:1012500086A70895CF93DF93EC010E94B5081C8AFE
:1012600082E08D8BFE01A0EAB3E0868980A38D9198
:10127000868B319683E0A63AB807B9F7FE017C96D3
:10128000A6E9B3E0808182878D91819383E0AA39BA
:10129000B807C1F7BE018AE290E00E943A0DDF91E3
:1012A000CF9108950F931F93CF93DF93EC018B01A0
:1012B0000E94B508CE010E94DB081AA28CA1883FCB
:1012C00018F08DA18F5F8DA38CA1885F8CA3BE01C8
:1012D000C8010E943A0DDF91CF911F910F9108959F
:1012E000A0E0B0E0E6E7F9E00C947314EC015B01D8
:1012F000042F79010E94B5080D3D08F00CED188A05
:10130000045E098BCE010E94DB088F2D99278CA3E8
:10131000EDA21EA204510FA30850E8E2CE2ED12C5C
:10132000CC0EDD1E18A679E2E72EF12CEC0EFD1E88
:1013300019A620E030E00BC0FF27DE01AE0FBF1F73
:10134000EA0DFB1D8081FD0182A72F5F3F4FE22F39
:10135000201790F31127005F1F4F41E0B801CE0125
:101360004A960E94FD07292F3327F6012083F701B3
:101370008083BE01C8014A960E943A0DEAE0CDB7CB
:10138000DEB70C948F140F931F938C010E94B50845
:10139000F801108A8CE2818BC8010E94DB0882E18F
:1013A000F80187A720E041E061E070E0C8010E94F9
:1013B000EC0842E060E270E0C8014A960E94FD0736
:1013C000292F3327F80122AB83ABB8018AE390E0E1
:1013D0000E943A0D1F910F91089580919203909170
:1013E0009303892B19F480E090E008958091940391
:1013F0009091950382960895FC0120893327322F1E
:10140000222781899927282B392B2451304030936A
:1014100093032093920386A582958F709927880F56
:10142000991F880F991F9093950380939403281B0D
:10143000390B30939303209392031216130624F072
:1014400010929303109292030895DC01A60FB71F28
:10145000D69603C08D936F5F7F4FFA014F5F5F4F4A
:1014600084918823B9F7CB010895DA01FC01E60FD6
:10147000F71FF69604C081936F5F7F4F11968C9192
:101480008823C9F7CB010895CF93DF93EC010E9425
:10149000B50880E18FA76091920370919303611565
:1014A000710529F421E040E061E070E002C021E034
:1014B00040E0CE010E94EC08188A88E2898BCE01B8
:1014C0000E94DB0842E06CE170E0CE014A960E9487
:1014D000FD07292F33272AAB8BABBE0186E390E0B3
:1014E0000E943A0DDF91CF910895EF92FF920F93F2
:1014F0001F938C017B0189E1F80187A79B01285D7F
:101500003F4F832F9927808B218BC8010E94C208EF
:10151000F80112AA13AA8CE190E0E80EF91E42E04D
:10152000B701C8014A960E94FD07292F3327F80109
:1015300022AB83ABB801C7014A960E943A0D1F91B6
:101540000F91FF90EF900895DC01FA0120E030E068
:1015500005C084918D9331962F5F3F4F2617370733
:10156000C1F70895EF92FF920F931F93CF93DF93EC
:10157000EC017B01FC0100EA13E09FEF9083D801AE
:101580008D918D0186833196B3E0063A1B07B1F742
:1015900088E08C8786E08D8747E354E068E070E060
:1015A000CE010E960E94A40AFE01D80116978D91D5
:1015B000868B10A2319683E0A63AB807C1F797014F
:1015C000AE01445E5F4FA6E9B3E0F90181919F014E
:1015D000FA0182878D918193AF01F3E0AA39BF07A9
:1015E000A1F7BE018AE290E00E943A0DE6E0CDB795
:1015F000DEB70C949314CF93DF93AC01DC01FB01B5
:101600009B012C5F3F4FED019C8D8191981719F044
:1016100080E090E010C01196E217F307A1F7FA01FD
:10162000AAE9B3E086898D93319683E0A03AB807A2
:10163000C9F781E090E0DF91CF910895EF92FF929A
:101640000F931F93CF93DF93EC018B01F42EFC01DA
:101650004AE953E020EA33E0DA018D91AD0180835D
:10166000D9018D919D0186833196B3E0403A5B07A5
:1016700099F788E08C871D864DE254E06AE070E0BF
:10168000CE010E960E94A40A9801FE0146E953E09D
:10169000D9018D919D01868FDA018D91AD01828FE7
:1016A0003196B3E04A395B0799F7CE010E94C20830
:1016B0001CA28BE78DA38AE08AA3FBA21EA288E36B
:1016C0008FA368E2E62EF12CEC0EFD1E18A68E010B
:1016D000075D1F4F19A6FE01BA9680E31192815053
:1016E000E9F743E254E06AE070E0CE018A960E9496
:1016F000A40A41E060E470E0CE014A960E94FD0732
:10170000292F3327F7012083D8018C93BE018AE566
:1017100090E00E943A0DE6E0CDB7DEB70C9493144A
:10172000CF93DF93FC01EB01442319F085A18417CB
:10173000C9F586A18823B1F587A1883399F583A1DE
:101740008B3781F5EE5AFF4F2191332744275527D8
:10175000522F44273327222781919927AA27BB2775
:10176000DC0199278827282B392B4A2B5B2B819169
:101770009927AA27BB27BA2FA92F982F8827282B6C
:10178000392B4A2B5B2B80819927AA27BB27282B33
:10179000392B4A2B5B2B288339834A835B8381E077
:1017A00090E002C080E090E0DF91CF9108952A9808
:1017B000962F9F71982B9EBD0DB407FEFDCF1EBCCA
:1017C0000DB407FEFDCF67FF04C01EBC0DB407FEBD
:1017D000FDCF2A9A8EB5992708952A986F71682BA4
:1017E0006EBD0DB407FEFDCF4EBD0DB407FEFDCF9F
:1017F0002A9A08959C012A988AE38EBD0DB407FEAB
:10180000FDCFFB01260F371F06C01EBC0DB407FE1F
:10181000FDCF8EB58193E217F307B9F710822A9AAC
:101820000895AC01FB012A988AE78EBD0DB407FE2E
:10183000FDCF20E030E007C081918EBD0DB407FEE2
:10184000FDCF2F5F3F4F24173507B1F72A9A089530
:101850001F93CF93DF93182FC82FDD27C076D0704A
:101860008091A8039927C817D90791F043E06FE149
:1018700080EA0E94ED0B85E0D595C7958A95E1F742
:101880004C2F6FE180E80E94ED0B10761093A803B7
:10189000DF91CF911F9108951F93182F0E94280C5C
:1018A000612F80E00E94D70B99271F9108950F9315
:1018B0001F93082F162F0E94280C412F602F80E4C1
:1018C0000E94ED0B1F910F9108950F931F938B01B1
:1018D000682F84ED0E94570C602F86ED0E94570CF4
:1018E000012F1127602F87ED0E94570C03C08EE354
:1018F0008A95F1F78AEE0E944C0C80FDF8CF1F917B
:101900000F9108958770682F85E70E94570C0895FE
:101910000F931F938C01229A2A9A84B1886284B90A
:1019200024982B982D9880E58CBD8DB581608DBD58
:101930004FEF60E08FEF0E94ED0B82E390E00E949A
:10194000150E1092A7031092A60360E088E00E9493
:10195000570C60E089E00E94570C60E08CE00E9428
:10196000570C60E08DE00E94570C6EEF8AE00E94F9
:10197000570C69E18BE00E94570C6FEF84E00E94E6
:10198000570C69E185E00E94570C6FEF86E00E94DA
:10199000570C6FE187E00E94570C60EB88E30E94D0
:1019A000570C6FE388E20E94570C60E389E20E94C3
:1019B000570C69EF80E30E94570C67EF81E30E94A8
:1019C000570C6DE080EC0E94570C60E081EC0E94A7
:1019D000570C42E362EC80E80E94ED0B62E186EC7A
:1019E0000E94570C6CE087EC0E94570C62E184EC7B
:1019F0000E94570C6CED8AEC0E94570C65E08BEC52
:101A00000E94570CF801608184EE0E94570CF80187
:101A1000618185EE0E94570CF801628182EE0E947E
:101A2000570CF801638183EE0E94570CF801648122
:101A300080EE0E94570CF801658181EE0E94570CE0
:101A400060E071E080E10E94650C8FE10E94280C4B
:101A500040EC6BE180E80E94ED0B44E06FE180E830
:101A60000E94ED0B1F910F91089582E70E944C0C8C
:101A700099270895EF92FF920F931F938C017B019A
:101A80006FEF82E00E94570C69E183E00E94570CDF
:101A9000602F615086E00E94570C0150164E612F56
:101AA00077270F5F194187E00E94570C40E060E004
:101AB0008AE70E94ED0BB701C8010E94110C48E0B3
:101AC0006FE180E80E94ED0B8CE10E944C0C81FFDD
:101AD00005C048E06FE180EA0E94ED0B1F910F9175
:101AE000FF90EF900895A0E0B0E0E9E7FDE00C94EE
:101AF00075147C016B0189E30E944C0C882319F456
:101B0000C0E0D0E067C06091A60380E00E94570C5F
:101B10006091A6037091A703672F772781E00E9449
:101B2000570C60E08AE30E94D70B082F112710930F
:101B3000A7030093A60360E08AE30E94D70B9927CE
:101B4000982F8827082B192B1093A7030093A6031F
:101B500060E08AE30E94D70BC82FDD2760E08AE3AC
:101B60000E94D70B9927982F8827C82BD92B249709
:101B700060E08AE30E94D70B082F112760E08AE318
:101B80000E94D70B9927982F8827802B912B97019C
:101B9000215030402C173D0708F4E90187FD03C0B0
:101BA000C0E0D0E004C0B601CE010E94FA0B609103
:101BB000A6038CE00E94570C6091A6037091A703C6
:101BC000672F77278DE00E94570C40E46EE180E894
:101BD0000E94ED0BCE01E8E0CDB7DEB70C94911476
:101BE000682F84ED0E94570C61E082ED0E94570C33
:101BF0008EE38A95F1F78AEE0E944C0C80FDFBCFB4
:101C000060E082ED0E94570C89ED0E944C0C9927F0
:101C1000089581E10E94F00D20E0892B09F421E074
:101C200081E02827822F99270895AC0120E030E039
:101C3000E8EBFBE005C0CF010197F1F72F5F3F4FC5
:101C400024173507C1F7089588E190E02FE00FB61B
:101C5000F894A895809360000FBE209360000895CB
:101C6000A8950895613019F4845E99270895673026
:101C700008F0615060FF03C08EE190E008958FE1AD
:101C800090E00895A9E0B0E0E8E4FEE00C946B1465
:101C90007B018C011A013987288720E831E541E072
:101CA00050E00E9449145B016C01C801B70120E8B3
:101CB00031E541E050E00E94491489012CE330E015
:101CC00040E050E00E9449146F83C601B50120E155
:101CD0003EE040E050E00E9449142CE330E040E058
:101CE00050E00E9449142E83C601B50120E13EE078
:101CF00040E050E00E9449142D83C801049667E03B
:101D000070E00E943514882E92EBE92E97E0F92EB0
:101D10001AC0CD2889F4C70164E670E00E9435142A
:101D2000892B39F4C70160E971E00E943514892BD1
:101D300019F48EE691E002C08DE691E0081B190BC4
:101D40000894E11CF11C83E0C82ED12CCE20DF20AA
:101D5000C114D10489F4C70164E670E00E9435140F
:101D6000892B39F4C70160E971E00E943514892B91
:101D700019F48EE691E002C08DE691E0081719078C
:101D800040F6C70164E670E00E9435142C01C701DB
:101D900060E971E00E9435143C01AA24BB2416C0FE
:101DA000C114D10449F44114510419F461147104AB
:101DB00019F481E090E002C080E090E0692D0E947B
:101DC000320E081B11090894A11CB11C9A2CC114D5
:101DD000D10449F44114510419F46114710419F443
:101DE00081E090E002C080E090E0692D0E94320E18
:101DF000992708171907A0F683E0889EF00111249F
:101E0000E15CFB4FDE0111969E012C5F3F4F8491F8
:101E10008D933196A217B307D1F71C820F5F1F4F26
:101E20001F930F93892D992701969F938F93FF926C
:101E3000EF92CE0101969F938F9384E694E09F9357
:101E40008F933F922F920E94B4102E81022F112760
:101E50002F81822F99279F938F931F930F932D810B
:101E6000822F99279F938F9385E594E09F938F937B
:101E7000888599859F938F930E94B4108DB79EB7E4
:101E800046960FB6F8949EBF0FBE8DBFC801E2E123
:101E900029960C948714AC0120E030E0E8EBFBE0DD
:101EA00005C0CF010197F1F72F5F3F4F241735078A
:101EB000C1F7089587FF02C0589A01C05898992722
:101EC00086FF02C0599A01C0599885FF02C05B9AEB
:101ED00001C05B9884FF02C05C9A08955C980895E5
:101EE00095E29A95F1F7882321F082E090E00E9434
:101EF0004B0F80E090E008955D9A84E18A95F1F7B8
:101F00005D9884E08A95F1F70895FF920F931F93EF
:101F1000082FF62E509A519A539A549A10E1812F15
:101F20008A95F1F7802F0E945A0F1A95F1F7FF203A
:101F300011F05E9A01C05E980E947C0F802F992755
:101F400083FF02C0589A01C0589882FF02C0599A74
:101F500001C0599881FF02C05B9A01C05B9800FFE5
:101F600002C05C9A01C05C9880E18A95F1F7FF207D
:101F700011F05E9A01C05E980E947C0F1F910F9134
:101F8000FF9008951F93182F80E00E94700F61E06A
:101F9000812F0E94850F80E00E94700F1F9108958D
:101FA000CF93DF93EC0102C00E94C20FFE01219685
:101FB00084918823C9F7DF91CF910895CF93DF9360
:101FC000EC0103C00E94C20F219688818823D1F7BB
:101FD000DF91CF9108951F93182F80E00E94700F1A
:101FE00060E0812F0E94850F81E00E94700F1F9199
:101FF00008951F93182F509A519A539A549A569AAB
:10200000559A8CE090E00E944B0F80E30E945A0F9B
:102010000E947C0F82E090E00E944B0F80E30E94C0
:102020005A0F0E947C0F82E090E00E944B0F80E3E9
:102030000E945A0F0E947C0F82E090E00E944B0F9A
:1020400080E20E945A0F0E947C0F88E20E94EB0FF0
:1020500088E00E94EB0F81E00E94EB0F86E00E9477
:10206000EB0F812F0E94EB0F81E00E94700F1F91F8
:102070000895662311F4805801C080540E94EB0F2C
:102080000895FC0188279927E89421912223F1F0F3
:102090002032D9F32930C9F32A30B9F32C30A9F30F
:1020A0002D3099F3263789F32B3219F02D3221F494
:1020B00068942191222351F0203344F02A3334F4E0
:1020C00020530E94AC10820F911DF3CF8115910512
:1020D00021F01EF48095909501960895FB01DC0196
:1020E0004150504030F08D910190801919F400203A
:1020F000B9F7881B990B0895FB01DC014150504052
:1021000048F001900D920020C9F701C01D92415086
:102110005040E0F70895FB019F01E8944230C4F07D
:102120004532B4F44A3029F497FB1EF4909581951A
:102130009F4F642F77270E943514805D8A330CF0FF
:10214000895D8193CB010097A1F716F45DE251936D
:102150001082C9010C94D9137AE0979F902D879F24
:10216000802D910D112408950F931F93CF93DF932A
:10217000CDB7DEB760970FB6F894DEBF0FBECDBF08
:102180000F89188D698D7A8D8EE08E831C830B8369
:102190008FEF9FE798878F83AE01455E5F4F5A832D
:1021A0004983CE0103960E94E61029853A85020FE5
:1021B000131FF801108260960FB6F894DEBF0FBEB1
:1021C000CDBFDF91CF911F910F9108952F923F9234
:1021D0004F925F926F927F928F929F92AF92BF9237
:1021E000CF92DF92EF92FF920F931F93CF93DF93E3
:1021F000CDB7DEB762970FB6F894DEBF0FBECDBF86
:102200008824992454012C017A8B698B3A01FC01B2
:1022100017821682838181FD6EC28FEF9FEF91C27C
:1022200029893A892F5F3F4F3A8B298BC0FE66C2BE
:10223000832D80538A30E0F430E3331641F48D85EA
:10224000882329F4C3FC03C0E0E0F1E07BC08AE00E
:10225000FD85F802C0011124380E232D20532D874F
:1022600027FF02C03FE73D87C3FC5AC22D8458C2F6
:10227000C601B3E096958795BA95E1F781709070A5
:10228000282F882329F08D85882311F491E09D87DC
:10229000832D992787FD9095E7E6E31564F1F5E630
:1022A0003F160CF065C033E5331609F48FC03315C3
:1022B000B4F0EBE23E1609F43FC0E31544F0F0E25F
:1022C0003F16F1F123E2321609F012C241C03DE29D
:1022D0003316D9F1EEE23E1609F00AC23EC0F3E62B
:1022E0003F1609F44BC0F3150CF48AC028E53216EA
:1022F00009F0FEC1B5C030E7331609F4ABC03315A1
:102300005CF0ECE63E1679F1FFE63F1691F029E627
:10231000321609F0EDC174C035E7331609F4A2C0D6
:10232000E8E73E1609F49CC0F3E73F1609F0E0C168
:102330002DC028E0288B96C080E190E0C82AD92AD9
:10234000E0E2F0E0CE2ADF2AEBC120E830E00DC069
:1023500080E490E0C82AD92AE3C1E8E0F0E0CE2A80
:10236000DF2A1D86DDC124E030E0C22AD32AD8C18D
:10237000AFE38A2E2A94F3E63F2E44C1F301808016
:102380002A9422E030E0620E731E3CC183010E5F8E
:102390001F4FF301A081B1814D01222351F0FD8532
:1023A0006F2F772767FD7095CD010E94CE13888B24
:1023B00007C0FD0101900020E9F73197EA1BE88B87
:1023C0002889221A3801E3E73E2E1CC183010E5FE3
:1023D0001F4FF301808191814C01222341F0FD8543
:1023E0006F2F772767FD70950E94C31302C00E946C
:1023F000BA13888B2889221A380173E5372E02C157
:10240000C2FE08C0F30180819181A281B38124E0E2
:1024100030E009C0F30180819181AA2797FDA09542
:10242000BA2F22E030E0620E731E4C015D01B7FF4F
:102430000CC082E090E0C82AD92AB094A09490946D
:102440008094811C911CA11CB11CEFEBFFEFCE22EC
:10245000DF2221C020E430E0C22AD32A68E7362EEA
:1024600030E1388BC2FE08C0F30180819181A281E6
:10247000B38124E030E007C0F30180819181AA2775
:10248000BB2722E030E0620E731E4C015D018FEC31
:102490009FEFC822D92285017401FE013196FF8782
:1024A000EE87F8898F2E9924AA24BB24C801B7018E
:1024B000A50194010E9449146A301CF0630D615219
:1024C00001C0605DEE85FF856193FF87EE87C801DF
:1024D000B701A50194010E94491479018A012115CF
:1024E00031054105510511F7882499245401CE0185
:1024F00001964E85481B842EC60182739070892BED
:1025000009F02A94C6FE07C0F889F03111F482E080
:1025100001C081E0281AC3FE12C08D85282F332701
:1025200027FD3095842F9927821793072CF0E7EF2A
:10253000FFEFCE22DF2203C0FD85F41BFD87C6011D
:1025400053E0969587955A95E1F781709070082F22
:10255000882319F02D85221A01C0241AC60180781B
:102560009170892B69F4822D06C0B20180E290E05F
:102570000E94E913812F182F11501816B4F3212E41
:10258000C1FE04C0B2018DE290E00BC0C4FE04C0E5
:10259000B2018BE290E005C0C5FE05C0B20180E249
:1025A00090E00E94E913C6FE0FC0B20180E390E004
:1025B0000E94E9133889303139F4B201832D99270B
:1025C00087FD90950E94E913D0FE0DC0822D06C0B4
:1025D000B20180E390E00E94E913812F182F11507F
:1025E0001816B4F3212E002369F02D8506C0B20120
:1025F00080E390E00E94E913212F122F1150121650
:10260000B4F31D87C601880F892F881F990B9195F8
:1026100021E0C22ED12CC822D92280FD0DC0822DEE
:1026200006C0B20180E290E00E94E913812F182FCA
:1026300011501816B4F3212E83E6381641F4B20176
:10264000882D992787FD90950E94E91341C093E753
:10265000391691F48401FF240AC0F80181918F0199
:10266000B201992787FD90950E94E913FA94888911
:102670008195F81691F716C023E5321619F00E85EC
:102680001F851FC08401FF2409C0F8018491B20195
:1026900099270E94E9130F5F1F4FFA94888981954B
:1026A000F81699F7F889FF0DF150F88B480110C022
:1026B000F80182918F01B201992787FD90950E94C0
:1026C000E913CE0101960817190791F71F870E87A6
:1026D000CD2889F0822D06C0B20180E290E00E94F0
:1026E000E913812F182F11501816B4F3212E03C0AF
:1026F000B2010E94E913CC24DD2412C0F5E23F169A
:1027000041F481E0C82ED12C1D8622242AE0288B9A
:1027100007C0B201832D992787FD90950E94E91388
:10272000F201838183FF04C0E989FA89349003C0F0
:10273000E989FA893080332009F072CDF20186816F
:10274000978162960FB6F894DEBF0FBECDBFDF91C2
:10275000CF911F910F91FF90EF90DF90CF90BF909E
:10276000AF909F908F907F906F905F904F903F9031
:102770002F900895FC0105900020E9F78095909531
:102780008E0F9F1F0895FC0105906150704001104D
:10279000D8F7809590958E0F9F1F0895FC0161508A
:1027A000704001900110D8F7809590958E0F9F1F73
:1027B0000895DC01FC0101900020E9F73297AE1783
:1027C000BF0730F47C916081708331976D93F7CFB0
:1027D00008950F931F93CF93DF938C01EB018B81AF
:1027E000992781FF1BC082FF0DC02E813F818C8104
:1027F0009D812817390764F4E881F9810193F983F1
:10280000E88306C0E885F985802F0995892B31F486
:102810008E819F8101969F838E8302C00FEF1FEFF1
:10282000C801DF91CF911F910F910895629FD00150
:10283000739FF001829FE00DF11D649FE00DF11D7B
:10284000929FF00D839FF00D749FF00D659FF00D2A
:102850009927729FB00DE11DF91F639FB00DE11D17
:10286000F91FBD01CF0111240895AA1BBB1B51E123
:1028700007C0AA1FBB1FA617B70710F0A61BB70BF0
:10288000881F991F5A95A9F780959095BC01CD0195
:102890000895A1E21A2EAA1BBB1BFD010DC0AA1FA1
:1028A000BB1FEE1FFF1FA217B307E407F50720F0B9
:1028B000A21BB30BE40BF50B661F771F881F991F34
:1028C0001A9469F760957095809590959B01AC017D
:1028D000BD01CF0108952F923F924F925F926F9268
:1028E0007F928F929F92AF92BF92CF92DF92EF92A0
:1028F000FF920F931F93CF93DF93CDB7DEB7CA1B21
:10290000DB0B0FB6F894DEBF0FBECDBF09942A884B
:10291000398848885F846E847D848C849B84AA84F3
:10292000B984C884DF80EE80FD800C811B81AA8180
:10293000B981CE0FD11D0FB6F894DEBF0FBECDBF4B
:10294000ED010895F999FECFB2BDA1BDF89A119697
:1029500000B40895F7DF01921A94E1F70895F99908
:10296000FECFB2BDA1BD00BC11960FB6F894FA9A85
:10297000F99A0FBE08950190F2DF1A94E1F70895D5
:102980000A0001736563726574000011FE001F0A7E
:102990000000020A00001C545558100029636F6E95
:1029A0006669670066640070770069700067770089
:1029B0006E7300747A006E700047455420002F201B
:0829C000000A002B000A500080
:00000001FF
