:100000000C9456020C9473020C9473020C947302B9
:100010000C9473020C9473020C9473020C9473028C
:100020000C9473020C9473020C9473020C942E03C0
:100030000C9473020C9473020C9473020C9473026C
:100040000C9473020C9473020C9473020C9473025C
:100050000C9473020C9473020C9473020C9473024C
:100060000C9473020C9473027570646174696E670A
:100070002E2E2E003C703E4F4B2C2076616C756509
:100080007320757064617465642E3C62723E3C61DD
:1000900020687265663D222F223E636F6E74696E22
:1000A00075653C2F613E3C2F703E0A004854545009
:1000B0002F312E3020323030204F4B0D0A436F6EDF
:1000C00074656E742D547970653A20746578742F58
:1000D00068746D6C0D0A0D0A00485454502F312E6F
:1000E000302034303120556E617574686F72697AD2
:1000F00065640D0A436F6E74656E742D5479706576
:100100003A20746578742F68746D6C0D0A0D0A3C82
:1001100068313E34303120556E617574686F726994
:100120007A65643C2F68313E0057616974696E6777
:1001300020666F72204E545020616E737765722E68
:100140002E2E3C62723E3C6120687265663D222E16
:100150002F223E726566726573683C2F613E003CDB
:100160002F7072653E0A3C62723E3C612068726587
:10017000663D222E2F223E726566726573683C2FA3
:10018000613E0A000A4C617374206E7470207379AA
:100190006E63206973206F6C646572207468616E91
:1001A000203120686F75720A00290A0020285554F2
:1001B0004320003C68323E415652204E545020634A
:1001C0006C6F636B3C2F68323E3C7072653E0A0078
:1001D000485454502F312E3020323030204F4B0DA8
:1001E0000A436F6E74656E742D547970653A20748D
:1001F0006578742F68746D6C0D0A0D0A00485454AC
:10020000502F312E3020323030204F4B0D0A436FAB
:100210006E74656E742D547970653A2074657874C7
:100220002F68746D6C0D0A0D0A3C68313E32303017
:10023000204F4B3C2F68313E0029002B0020280026
:100240004574682D6C696E6B20646F776E004E5438
:100250005020616E737765720077616974696E67AB
:1002600020666F72004757204950007761697469B2
:100270006E6720666F72004F4B003E0A4E65772016
:1002800070617373776F72643A203C696E70757435
:1002900020747970653D74657874206E616D653D7C
:1002A0006E703E0A0A50617373776F72643A202051
:1002B0002020203C696E70757420747970653D70E3
:1002C000617373776F7264206E616D653D70773E08
:1002D0003C696E70757420747970653D68696464FA
:1002E000656E206E616D653D66642076616C756536
:1002F0003D313E0A3C696E70757420747970653DBD
:100300007375626D69742076616C75653D6170709E
:100310006C793E3C2F666F726D3E0A3C2F707265A1
:100320003E003E0A4F666673657420746F20555414
:10033000433A3C696E70757420747970653D7465DC
:100340007874206E616D653D747A2076616C756598
:100350003D003E0A4E545020736572766572204906
:10036000503A3C696E70757420747970653D74659F
:100370007874206E616D653D6E732076616C756575
:100380003D003E0A44656661756C742047572049FC
:10039000503A3C696E70757420747970653D74656F
:1003A0007874206E616D653D67772076616C756548
:1003B0003D003C7072653E415652204E54502063C1
:1003C0006C6F636B2C20636F6E6669670A0A3C660C
:1003D0006F726D20616374696F6E3D2F636F6E661F
:1003E0006967206D6574686F643D6765743E436C32
:1003F0006F636B206F776E2049503A203C696E70B6
:10040000757420747970653D74657874206E616DC3
:10041000653D69702076616C75653D0048545450A7
:100420002F312E3020323030204F4B0D0A436F6E6B
:1004300074656E742D547970653A20746578742FE4
:1004400068746D6C0D0A507261676D613A206E6F51
:100450002D63616368650D0A0D0A0000010800063E
:100460000400014500004C000040004011E300047E
:10047000FA00010001000053756E4D6F6E547565F2
:10048000576564546875467269536174002530324B
:10049000753A253032753A2530327500257320259E
:1004A000752D253032752D253032750011241FBE73
:1004B000CFEFD4E0DEBFCDBF11E0A0E0B1E0EEE2CF
:1004C000FBE202C005900D92A834B107D9F713E002
:1004D000A8E4B1E001C01D92AF3AB107E1F70E9474
:1004E0006C050C9495150C9400009C01F999FECFB5
:1004F00032BD21BDF89A80B508959C01F999FECFCF
:100500001FBA32BD21BD60BD0FB6F894FA9AF99AB0
:100510000FBE0895DC01FB0140E010C080819817F8
:1005200059F431968081882341F411968C918D3352
:1005300019F4FB0141E001C0FB0111969C91992344
:1005400029F0903219F0442349F304C0413011F0EE
:1005500080E008952A2FEFE7F3E002C0919311960F
:100560008A2F821B9C91992341F0903231F0963270
:1005700021F033E0E739F30789F7E82FF0E0E1589D
:10058000FC4F10820895982F80538A3068F0815371
:10059000863010F4865F0895892F8154863010F0DC
:1005A00080E00895892F87530895FC013196DC017E
:1005B00090E008C08E3221F08C3211F08D9301C092
:1005C00091E03196829131968823A1F7992311F415
:1005D00080E38D931C920895CF93DF93DC01EC01AF
:1005E00036C08B3211F480E230C0853271F5FD01E6
:1005F0003196DF0111969081392F30533A3070F0E7
:10060000892F8156863010F4375208C0892F8154C3
:10061000863010F030E002C0392F37532181922FFD
:1006200090539A3070F0822F8156863010F4975292
:1006300008C0822F8154863010F090E002C0922FC3
:100640009753832F8295807F892B899311968C9164
:10065000882339F61882DF91CF9108951F920F9267
:100660000FB60F9211248F939F93AF93BF938091F6
:10067000490190914A01A0914B01B0914C01019622
:10068000A11DB11D8093490190934A01A0934B0194
:10069000B0934C01809145018F5F8093450180911B
:1006A0004D01882321F010924D01299A04C081E068
:1006B00080934D012998BF91AF919F918F910F9099
:1006C0000FBE0F901F901895109285001092840015
:1006D000109280008DE0809381008FE280938900EA
:1006E0008EEA8093880082E080936F000895A0E0F6
:1006F000B0E0EDE7F3E00C9468157C016B0110E0CD
:10070000C0E0D0E00EE2F601EC0FFD1FB701610F73
:10071000711D808190E04AE050E00E942F1201C0DC
:10072000192FF701E10FF11D8081912F9F5F882321
:10073000B9F70083192F2196C430D10521F7115044
:10074000E10EF11CF7011082CDB7DEB7E8E00C94A2
:100750008415BC018BE391E046E050E00E94DA1181
:100760009C0180E0232B09F481E00895A4E0B0E02F
:10077000ECEBF3E00C9464155C018B016E010894C2
:10078000C11CD11C760185E0882E912C8C0E9D1EFB
:1007900023C00F5F1F4FF8012081822F992787FD0B
:1007A0009095C0970A9718F4302F912F05C02223F7
:1007B00081F7FACF0F5F1F4FF8012081822F8053FE
:1007C0008A30C0F3222311F011928F01832F0E94EF
:1007D000BC11F70181937F019E2D9C19F801808146
:1007E000882319F0E814F904B1F6943091F420E06C
:1007F00030E0AE014F5F5F4FF501E20FF31FDA010A
:10080000A20FB31F8C9180832F5F3F4F243031059F
:1008100099F72496ECE00C948015CF93DF93EC01CC
:1008200080E091E0BE0146E050E00E94DA110097BE
:1008300009F0B8C0CE0167E071E00E948A02882307
:1008400011F481E0B0C0CE016AE071E00E948A023A
:10085000882309F4A7C08FE793E00E94EC028FE79A
:1008600093E00E94A903882309F49CC0CE016DE0A7
:1008700071E00E948A02882331F08FE291E06FE7F5
:1008800073E00E94B603CE0160E171E00E948A022B
:10089000882331F083E391E06FE773E00E94B603B1
:1008A000CE0163E171E00E948A02882331F087E380
:1008B00091E06FE773E00E94B603CE0166E171E05C
:1008C0000E948A028823A1F08FE793E00E94EC0245
:1008D0008FE793E00E94D5028FE793E00E94BC115E
:1008E0009C0185579F4F8751914010F42093280118
:1008F000CE0169E171E00E948A02882371F08FE7DE
:1009000093E00E94EC028BE391E06FE773E048E034
:1009100050E00E94E81110924301F999FECF1FBAEE
:1009200012BC11BC83E180BD0FB6F894FA9AF99A13
:100930000FBE81E090E06FE271E044E050E02DE70F
:1009400032E00E94131286E090E063E371E044E03D
:1009500050E02DE732E00E9413128BE090E067E355
:1009600071E044E050E02DE732E00E941312209144
:100970002801F999FECF1FBA80E190E092BD81BDB8
:1009800020BD0FB6F894FA9AF99A0FBE83E190E071
:100990006BE371E04AE050E02DE732E00E94131271
:1009A00082E001C08FEFDF91CF9108959C01FC019F
:1009B00001900020E9F73197E81BE230ACF08E2F70
:1009C000992787FD90950197D901A80FB91F019626
:1009D0004C91403311F41C920895F901E80FF91F6E
:1009E00040838EE28C9311820895EF92FF920F93D1
:1009F0001F93CF93DF93EC0160E070E04CE154E093
:100A00000E941D0ABC01CE0142EB53E00E941D0A68
:100A10008C018FE793E06FE271E00E947703CE01D3
:100A2000B8014FE753E00E94300ABC01CE0142E812
:100A300053E00E941D0A8C018FE793E063E371E0AD
:100A40000E947703CE01B8014FE753E00E94300ABD
:100A5000BC01CE0142E553E00E941D0A8C018FE7E4
:100A600093E067E371E00E947703CE01B8014FE79E
:100A700053E00E94300ABC01CE0142E253E00E94E2
:100A80001D0A7C019091280197FF02C000E004C07C
:100A90008BE280937F0301E010E001581C4F892F07
:100AA000992787FD9095B8014AE050E00E942F12E7
:100AB000C8010E94D604CE01B7014FE753E00E945F
:100AC000300ABC01CE014AE752E00E941D0ACDB7B0
:100AD000DEB7E6E00C9486154F925F926F927F929C
:100AE0009F92AF92BF92CF92DF92EF92FF920F93BD
:100AF0001F93DF93CF93CDB7DEB7E0970FB6F8948F
:100B0000DEBF0FBECDBF80E8809361001092610010
:100B100012E3812F8A95F1F752982098289A89E25A
:100B200091E00E948A0D82E00E94840D1A95F1F7EF
:100B3000219A299A189B3CC0F999FECF12BC11BC8E
:100B4000F89A80B58331A1F58FE291E061E070E021
:100B500044E050E025E732E00E94F71183E391E0A2
:100B600066E070E044E050E025E732E00E94F711D3
:100B700087E391E06BE070E044E050E025E732E08D
:100B80000E94F711F999FECF80E190E092BD81BDFE
:100B9000F89A80B5809328018BE391E063E170E0DF
:100BA0004AE050E025E732E00E94F711109242013E
:100BB00084E166E774E00E94660D82E38A95F1F7AE
:100BC0008CE00E94491181E00E94071189E291E0C6
:100BD0006FE271E040E50E940009109285001092DA
:100BE0008400109280008DE0809381008FE28093DA
:100BF00089008EEA8093880082E080936F0087E707
:100C000092E00E943B1110E006E90E94500E811113
:100C100013E680E0902F9A95F1F78F5F8A30D1F735
:100C20001F5F1F3090F378949924DD2463E6C62E6D
:100C300055E0452E512C4C0E5D1E4BE1642E712C5F
:100C40006C0E7D1E5E010894A11CB11C02C099248B
:100C5000939480E392E06EE471E00E94D10E7C01F7
:100C6000009709F0D2C080914501882391F30E943A
:100C7000500E882309F444C081E08D1510F40CE770
:100C800001C000E280914501843008F446C09920FB
:100C9000C1F481E00E9407118BE692E00E943B11B3
:100CA00080E061E00E941A1185E692E00E943B110B
:100CB000109245018EE491E063E371E00E94290BFC
:100CC000C8CFDD2069F581E00E94071189E592E037
:100CD0000E943B1180E061E00E941A118EE492E0D4
:100CE0000E943B1110924501409148014F5F409393
:100CF00048018EE491E067E371E00E94B80AA9CF51
:100D0000992051F481E00E94071180E492E00E9452
:100D10003B11109245019DCF0FE2DD2009F499CFE0
:100D200060912801772767FD7095872F972F28E618
:100D300031E040E050E00E9409159B01AC01609158
:100D4000490170914A0180914B0190914C01620FD1
:100D5000731F841F951FA20193010E946C0F182F0F
:100D6000C81631F081E00E940711C2010E942E11C5
:100D700080E061E00E941A11C3010E942E11C11689
:100D800001F18DE392E00E943B118091280187FDE3
:100D900004C08BE392E00E943B11809128019927C7
:100DA00087FD9095B5014AE050E00E942F12C501E1
:100DB0000E94D604C5010E942E1189E392E00E9490
:100DC0003B118FE060E00E941A11802F0E942211D7
:100DD0001A3319F432E0D32E14C01B3391F482E09D
:100DE000D81679F40F3259F0409148014F5F409383
:100DF00048018EE491E067E371E00E94B80A23E0C5
:100E0000D22E10924501C12E24CF8EE491E0B7017D
:100E10000E9426098823D9F08EE491E00E944A09B5
:100E2000882321F08EE491E00E947C0C8EE491E016
:100E30000E944209882309F40CCF8EE491E063E319
:100E400071E00E944E0A882309F001CF02CF8EE4A0
:100E500091E0B7010E945209882309F4FACE8091EB
:100E60006501813059F480917001883009F0F1CE2C
:100E70008EE491E0B7010E94540CEBCE863009F06D
:100E800019C180917201882309F0E3CE809173012A
:100E9000803509F0DECE80917D0181FF05C08EE4B2
:100EA00091E00E94DA0BD5CE84FFD3CE8EE491E0A0
:100EB0000E94FA090E94E9098C01009749F4809187
:100EC0007D0180FFC6CE8EE491E00E94A20BC1CED0
:100ED000BC01625B7E4F8CE191E044E050E00E94F7
:100EE000DA11009739F08EE491E060E070E04DEFA8
:100EF00051E08EC0B8016E5A7E4F81E291E042E02F
:100F000050E00E94DA11009709F08DC08EE491E064
:100F100060E070E040ED51E00E941D0ABC018EE4EB
:100F200091E043EB51E00E941D0A8C01DD2009F4A1
:100F300074C060912801772767FD7095872F972FE0
:100F400028E631E040E050E00E9409159B01AC0129
:100F50006091490170914A0180914B0190914C013F
:100F6000620F731F841F951FA20193010E946C0FD3
:100F70008EE491E0B801A2010E94300ABC018EE427
:100F800091E044E251E00E94300ABC018EE491E01D
:100F9000A3010E94300ABC018EE491E04CEA51E0CA
:100FA0000E941D0A8C018091280187FD08C08EE4F3
:100FB00091E0B80146E251E00E94300A8C01809134
:100FC0002801992787FD9095B5014AE050E00E94DD
:100FD0002F12C5010E94D6048EE491E0B801A5014C
:100FE0000E94300ABC018EE491E049EA51E00E947F
:100FF0001D0ABC0181E08D1538F48EE491E044E8CF
:1010000051E00E941D0ABC018EE491E04FE551E0E1
:101010000E941D0A7C0110E02EC08EE491E0B80110
:1010200049E251E0F5CFC8018D5A9E4F0E940D0450
:10103000182F8F3F39F48EE491E060E070E049EDC5
:1010400050E016C0813029F48EE491E00E94F5044E
:1010500011C0823081F48EE491E060E070E04CEAEF
:1010600050E00E941D0ABC018EE491E044E750E08C
:101070000E941D0A7C018EE491E00E94A20B8EE486
:1010800091E0B7010E94780B123009F0E2CD89E2BD
:1010900091E06FE271E040E50E94000981E00E946A
:1010A000071188E690E00E943B119924DD2493E625
:1010B000C92ECFCD813109F0CCCD8091700188232C
:1010C00009F0C7CD809171018B3709F0C2CD8EE454
:1010D00091E069E471E0409148010E94720A88231E
:1010E00009F4B7CD8091490190914A01A0914B013B
:1010F000B0914C019C01AD0120583E474A4A5348EB
:101100002093490130934A0140934B0150934C0185
:10111000DD24D3949ECDA0E0B0E0E1E9F8E00C94AA
:1011200068156C01413081F4685070407B0100E02B
:1011300010E0685F7F4F21E130E040E050E0E20ED8
:10114000F31E041F151F15C0423021F0EE24FF24AA
:1011500087010FC0685070407B0100E010E0685FBD
:101160007F4F86E090E0A0E0B0E0E80EF91E0A1F95
:101170001B1FF601EB0116C0808190E0A0E0B0E0FB
:10118000BA2FA92F982F8827218130E040E050E026
:10119000822B932BA42BB52BE80EF91E0A1F1B1FC5
:1011A00032962297C230D10538F7FB01EE7FEC0D65
:1011B000FD1D60FF15C0808190E0A0E0B0E0BA2F77
:1011C000A92F982F882708C02FEF3FEF40E050E06D
:1011D000E222F32204231523E80EF91E0A1F1B1F27
:1011E000C801AA27BB270097A105B10569F7970198
:1011F00020953095C901CDB7DEB7E8E00C94841591
:10120000CF93DF93EC014093460120E030E0F901F9
:10121000E855FC4FDB01A20FB31F8C9180832F5F39
:101220003F4F2430310599F720E030E0F901E456D2
:10123000FC4FDE01A20FB31F8C9180832F5F3F4FC5
:101240002630310599F7DF91CF910895FC0169327D
:101250007105B0F08485883099F48585863081F4F5
:10126000DF019696E8EAF3E09C918081981741F4BB
:101270001196319683E0EC3AF807B1F781E00895D2
:1012800080E0089520E0FC018589823009F421E0A6
:10129000822F089520E0FC018589813009F421E046
:1012A000822F0895CF93DF93FC016A327105C8F055
:1012B00084858830B1F48585882399F486858534C2
:1012C00081F4DF01E8EAF3E0ED019E8D808198175B
:1012D00041F41196319683E0EC3AF807A9F781E0E2
:1012E00001C080E0DF91CF910895FC01ACE9B3E04B
:1012F000868180838D918683319683E0A23AB807F8
:10130000B9F708950F931F938C01FC01108E118E75
:1013100080E4848B158A868BC8010E9664E170E0A8
:1013200040E00E948B08F801908F818F1F910F91F0
:101330000895AC01FC01A8EAB3E0828D868F8D91FF
:10134000828F319683E0AC3AB807B9F7CA010E94A0
:1013500082090895CF93DF93FC0182A184A312A296
:1013600083A185A313A28091460183A3DF019996EF
:1013700094E08C91680F711DED018C816C832223A8
:1013800011F08C9301C01C9291501197992319F080
:10139000672F7727EECF222349F416A217A2809158
:1013A000470180A711A68E5F8093470112AA13AA56
:1013B000442351F082E086AB84E087AB85E080AFC8
:1013C00080E881AF80E601C080E586A7DF91CF91FC
:1013D00008958091980390919903892B19F420E046
:1013E00030E006C020919A0330919B032E5D3F4F61
:1013F000C9010895FC01908980E0218930E0282B03
:10140000392B86A582958F7090E0880F991F880FE1
:10141000991F90939B0380939A0324513040281B7B
:10142000390B30939903209398031216130624F076
:10143000109299031092980308956A5C7F4FDC0123
:10144000A60FB71F6653704003C08D936F5F7F4F29
:10145000FA014F5F5F4F84918823B9F7CB0108955C
:10146000FA016A5C7F4FDC01A60FB71F665370401C
:1014700004C08D936F5F7F4F319680818823C9F7B9
:10148000CB010895DC01FA0105C084918D9331965A
:101490006150704061157105C1F70895CF93DF93D6
:1014A000EC01DC0120E030E0AB01420F531FFD01F5
:1014B000948DFA018081981711F080E010C02F5FA1
:1014C0003F4F11962430310579F7E2EAF3E08E8937
:1014D0008193219683E0E83AF807C9F781E0DF912C
:1014E000CF910895CF93DF93FC01EB01442319F0D2
:1014F00085A18417C9F586A18823B1F587A1883312
:1015000099F583A18B3781F5EE5AFF4F219130E099
:1015100040E050E0522F442733272227808190E07B
:10152000A0E0B0E0DC0199278827282B392B4A2B33
:101530005B2B3296808190E0A0E0B0E0282B392B25
:101540004A2B5B2B829190E0A0E0B0E0BA2FA92F4C
:10155000982F8827282B392B4A2B5B2B28833983FC
:101560004A835B8381E001C080E0DF91CF910895E1
:101570001F93CF93DF93EC01142FAC01DC0120E02B
:1015800030E0F901EE55FC4F80818C93F901E4566F
:10159000FC4F8081FD0186832F5F3F4F11962630DF
:1015A000310579F788E08C871D86DE0123E634E07B
:1015B000F9018491FD0186872F5F3F4F1196F4E07A
:1015C0002D363F07A9F720E030E0FB01E20FF31FC3
:1015D0008081FA01868FF901E855FC4F8081FA017C
:1015E000828F2F5F3F4F4F5F5F4F2430310569F788
:1015F000CE010E9482091CA28BE78DA38AE08AA3F8
:101600001BA31EA288E38FA318A619A6DE019A9633
:10161000FD0180E011928F5F8033E1F7EDE6F4E0A9
:1016200084918D93319684E0E737F807C9F7CE01AE
:101630004A9660E470E041E00E948B0898A789A771
:101640008AE590E0BE010E94590EDF91CF911F9173
:1016500008950F931F93CF93DF93EC01AC012CE916
:1016600033E0FC01D9019FEF90838D918683319601
:1016700083E0A23AB807C1F788E08C8786E08D87BF
:10168000DE010BE514E0F8018491FD0186870F5F10
:101690001F4F1196F4E003361F07A9F7F901819156
:1016A0009F01FA01868B10A24F5F5F4FF3E0223A51
:1016B0003F07A1F7DE015C9620E030E0FB01E20F7E
:1016C000F31F8081FD018287F901E855FC4F80817D
:1016D0008D932F5F3F4F2430310581F78AE290E0F0
:1016E000BE010E94590EDF91CF911F910F91089575
:1016F000EF92FF920F931F938C017B0189E1F80118
:1017000087A7CB018896908B818BC8010E948209A4
:10171000F80112AA13AA8CE190E0E80EF91EC801A4
:101720004A96B70142E00E948B08F80192AB83AB66
:10173000C7014A96B8010E94590E1F910F91FF9060
:10174000EF900895CF93DF93EC01FC01ACE9B3E097
:10175000868180838D918683319683E0A23AB80793
:10176000B9F780E18FA76091980370919903611593
:10177000710521F4CE0161E070E001C0CE0140E0CE
:1017800021E00E94AA09188A88E2898BCE010E9472
:101790009909CE014A966CE170E042E00E948B0804
:1017A0009AAB8BAB86E390E0BE010E94590EDF91AD
:1017B000CF910895CF93DF93EC01FC01ACE9B3E046
:1017C000868180838D918683319683E0A23AB80723
:1017D000B9F7188A8CE2898BCE010E94990982E1BF
:1017E0008FA7CE0161E070E041E020E00E94AA09ED
:1017F000CE014A9660E270E042E00E948B089AAB0C
:101800008BAB8AE390E0BE010E94590EDF91CF912D
:101810000895A0E0B0E0EFE0FCE00C946915EC0165
:101820007B01D22E132FFC01ACE9B3E086818083CB
:101830008D918683319683E0A23AB807B9F7042FD9
:101840004D3D08F00CED188A045E098BCE010E9414
:1018500099091CA3DDA21EA204510FA3085018A6CB
:1018600019A6DE019A9620E030E007C0F701E20FEA
:10187000F31F80818D932F5F3F4F2017B8F310E047
:10188000005F1F4FCE014A96B80141E00E948B08CD
:1018900098A789A7C8014A96BE010E94590ECDB7E4
:1018A000DEB7E7E00C9485150F931F93CF93DF937A
:1018B000EC018B01FC01ACE9B3E0868180838D9162
:1018C0008683319683E0A23AB807B9F7CE010E9429
:1018D00099091AA28CA1883F18F08DA18F5F8DA362
:1018E0008CA1885F8CA3C801BE010E94590EDF91B4
:1018F000CF911F910F910895CF93DF93AC01EC012D
:101900002CE933E0FC01D901868180838D918683A7
:10191000319683E0A23AB807B9F7FA01148A82E057
:10192000858B8E8988A3F90181919F018E8B2196E9
:10193000F3E0223A3F07A9F7FA017C96A8EAB3E060
:10194000808182878D91819383E0AC3AB807C1F79B
:101950008AE290E0BA010E94590EDF91CF9108957A
:101960002A98962F9F71982B9EBD0DB407FEFDCF30
:101970001EBC0DB407FEFDCF67FF04C01EBC0DB436
:1019800007FEFDCF2A9A8EB508952A986F71682BAD
:101990006EBD0DB407FEFDCF4EBD0DB407FEFDCFED
:1019A0002A9A0895AC01FB012A988AE38EBD0DB4F2
:1019B00007FEFDCF9A01DF0108C01EBC0DB407FE73
:1019C000FDCF215030408EB58D9321153105A9F7FB
:1019D000E40FF51F10822A9A08959C01FB012A98B2
:1019E0008AE78EBD0DB407FEFDCF08C080818EBD95
:1019F0000DB407FEFDCF2150304031962115310541
:101A0000A9F72A9A0895482F282F30E020763070C1
:101A10008091AC0390E028173907F9F02A988FEBF2
:101A20008EBD0DB407FEFDCF83E08EBD0DB407FE65
:101A3000FDCF2A9A2A988FE98EBD0DB407FEFDCFFF
:101A400085E0359527958A95E1F72EBD0DB407FE03
:101A5000FDCF2A9A40764093AC0308951F93182F28
:101A60000E94030D80E0612F0E94B00C1F91089529
:101A70000F931F93182F062F0E94030D2A981F7192
:101A800010641EBD0DB407FEFDCF0EBD0DB407FEE4
:101A9000FDCF2A9A1F910F910895682F84ED0E941F
:101AA000380D82ED61E00E94380D8EE38A95F1F7E2
:101AB0008AEE0E942E0D80FDFBCF82ED60E00E9439
:101AC000380D89ED0E942E0D90E008950F931F931D
:101AD000982F162F072F84ED692F0E94380D86ED61
:101AE000612F0E94380D87ED602F0E94380D1EE394
:101AF00003C0812F8A95F1F78AEE0E942E0D80FD9A
:101B0000F8CF1F910F910895682F677085E70E94A5
:101B1000380D0895CF93DF93EC01229A2A9A84B16D
:101B2000886284B924982B982D9880E58CBD8DB55A
:101B300081608DBD2A988FEF8EBD0DB407FEFDCF5D
:101B40008FEF8EBD0DB407FEFDCF2A9A8DEC8A95DE
:101B5000F1F71092AE031092AD0388E060E00E94AE
:101B6000380D89E060E00E94380D8CE060E00E9452
:101B7000380D8DE060E00E94380D8AE06EEF0E9423
:101B8000380D8BE069E10E94380D84E06FEF0E9410
:101B9000380D85E069E10E94380D86E06FEF0E9404
:101BA000380D87E06FE10E94380D88E360EB0E94FA
:101BB000380D88E26FE30E94380D89E260E30E94ED
:101BC000380D80E369EF0E94380D81E367EF0E94D2
:101BD000380D80EC6DE00E94380D81EC60E00E94D1
:101BE000380D2A9882E88EBD0DB407FEFDCF82E342
:101BF0008EBD0DB407FEFDCF2A9A86EC62E10E94ED
:101C0000380D87EC6CE00E94380D84EC62E10E9494
:101C1000380D8AEC6CED0E94380D8BEC65E00E946B
:101C2000380D84EE68810E94380D85EE69810E942E
:101C3000380D82EE6A810E94380D83EE6B810E941E
:101C4000380D80EE6C810E94380D81EE6D810E940E
:101C5000380D80E160E071E00E94660D8FE10E9426
:101C6000030D2A988BE98EBD0DB407FEFDCF80ECE5
:101C70008EBD0DB407FEFDCF2A9A2A988FE98EBD3E
:101C80000DB407FEFDCF84E08EBD0DB407FEFDCF81
:101C90002A9ADF91CF91089582E70E942E0D089530
:101CA00081E10E944D0D20E0892B09F021E0822F77
:101CB0000895A0E0B0E0EFE5FEE00C946915EC01BA
:101CC0008B013FE9D32E20E8F22E9FEBE92E19C0BD
:101CD0008CE10E942E0D81FF14C02A98DEBC0DB449
:101CE00007FEFDCFFEBC0DB407FEFDCF2A9A2A9851
:101CF000EEBC0DB407FEFDCFFEBC0DB407FEFDCF5C
:101D00002A9A80E06FE10E94B00C83FDE1CF82E06F
:101D10006FEF0E94380D83E069E10E94380DCE011B
:101D20008150682F86E00E94380D9E012150364E6A
:101D300087E0632F0E94380D2A988AE78EBD0DB484
:101D400007FEFDCF1EBC0DB407FEFDCF2A9A2A98D0
:101D50008AE78EBD0DB407FEFDCF09C0F801808172
:101D60008EBD0DB407FEFDCF21970F5F1F4F20974B
:101D7000A9F72A9A2A988FE98EBD0DB407FEFDCFE8
:101D800088E08EBD0DB407FEFDCF2A9ACDB7DEB731
:101D9000E7E00C94851589E30E942E0D811181E006
:101DA0000895A0E0B0E0E7EDFEE00C9464155C015E
:101DB0004B0189E30E942E0D882319F4C0E0D0E086
:101DC00078C06091AD031091AE0380E00E94380DA1
:101DD00081E0612F0E94380D8AE360E00E94B00C20
:101DE000182F8AE360E00E94B00C382F20E0E12E2B
:101DF000FF24E22AF32AF092AE03E092AD038AE3D5
:101E000060E00E94B00CC82E8AE360E00E94B00C33
:101E1000D82E8AE360E00E94B00C082F10E08AE31D
:101E200060E00E94B00C382F20E0202B312B27FDE2
:101E300003C0C0E0D0E011C0CC2DD0E09D2D80E0EB
:101E4000C82BD92BC501019724978C179D0708F43F
:101E5000EC01CE01B4010E94D20CDE2C8CE06E2D80
:101E60000E94380D8DE06F2D0E94380D87010150C2
:101E7000104089E10F3F180738F08CE06EEF0E94A8
:101E8000380D8DE069E107C0DA948CE06D2D0E9479
:101E9000380D8DE0612F0E94380D2A988EE98EBD95
:101EA0000DB407FEFDCF80E48EBD0DB407FEFDCF5F
:101EB0002A9ACE01CDB7DEB7ECE00C9480156130E4
:101EC00011F4845E0895673008F0615060FD02C02F
:101ED0008FE108958EE10895A4E0B0E0E2E7FFE02D
:101EE0000C9460157B018C014A01390120E831E531
:101EF00041E050E00E943C15D62EC72EB82EA92EE8
:101F0000C801B70120E831E541E050E00E943C15EE
:101F100089016D2D7C2D8B2D9A2D20E13EE040E036
:101F200050E00E943C152CE330E040E050E00E947D
:101F30003C15522EC801049667E070E00E942815F7
:101F4000482E22EB37E019C0EF2889F4C90164E676
:101F500070E00E942815892B39F4C90160E971E00D
:101F60000E942815892B19F48EE691E002C08DE6B7
:101F700091E0081B190B2F5F3F4F83E0E82EF12CF7
:101F8000E222F322E114F10489F4C90164E670E06D
:101F90000E942815892B39F4C90160E971E00E947B
:101FA0002815892B19F48EE691E002C08DE691E0A8
:101FB0000817190748F6C90164E670E00E94281561
:101FC000FC01C90160E971E00E942815AC0160E0E4
:101FD0007FEF21C0E114F10419F080E090E009C026
:101FE000309729F480E090E04115510511F481E02B
:101FF00090E0613011F4845E0AC0673010F4862FDF
:1020000001C0872F80FD02C08FE101C08EE1081B57
:1020100011096F5F7F5FE114F10419F080E090E037
:1020200009C0309729F480E090E04115510511F482
:1020300081E090E0613011F4845E0AC0673010F4F2
:10204000862F01C0872F80FD02C08FE101C08EE185
:1020500090E00817190708F0BDCFE3E04E9EC001DD
:102060001124FC01E958FB4FE491E983FC01E85895
:10207000FB4FE491EA8387589B4FFC0184918B834B
:102080001C828DB79EB70C970FB6F8949EBF0FBEFB
:102090008DBFADB7BEB71196EDB7FEB79282818204
:1020A0008CE994E0FD0193838283CE0101969583B0
:1020B000848337832683862F90E0019691878087DB
:1020C0000F5F1F4F138702870E9458120F900F90C7
:1020D0000DB71EB70F5F1F4FEDB7FEB7728261825B
:1020E0008DE894E0F801938382836D2D7C2D8B2DF8
:1020F0009A2D20E13EE040E050E00E943C15F801BE
:1021000024831582568217826D2D7C2D8B2D9A2D5E
:102110002CE330E040E050E00E943C15F80160877D
:1021200011860E9458128DB79EB70A960FB6F89482
:102130009EBF0FBE8DBF852D2496E0E10C947C15CB
:1021400028EB3BE004C0F9013197F1F701970097C4
:10215000D1F7089587FF02C0589A01C0589886FFAA
:1021600002C0599A01C0599885FF02C05B9A01C00C
:102170005B9884FF02C05C9A08955C980895FF9272
:102180000F931F93082FF62E509A519A539A549AF0
:1021900010E1812F8A95F1F7802F0E94AA101A95DD
:1021A000F1F7FF2011F05E9A01C05E985D9A84E11C
:1021B0008A95F1F75D9884E08A95F1F7802F03FF07
:1021C00002C0589A01C0589882FF02C0599A01C0B3
:1021D000599881FF02C05B9A01C05B9880FF02C0E2
:1021E0005C9A01C05C9880E18A95F1F7FF2011F0BC
:1021F0005E9A01C05E985D9A84E18A95F1F75D98D8
:1022000084E08A95F1F71F910F91FF9008951F9335
:1022100015E2912F9A95F1F760E00E94BF101A9590
:10222000F1F788EB9BE0FC013197F1F70197F1F7AB
:102230001F910895662311F4805801C080540E94B4
:10224000071108951F9315E2912F9A95F1F761E018
:102250000E94BF101A95F1F71F910895CF93DF9355
:10226000EC0103C00E942211219688818823D1F7B6
:10227000DF91CF910895CF93DF93EC0102C00E94CC
:102280002211FE01219684918823C9F7DF91CF9115
:102290000895FF920F931F93CF93DF93F82E509AD8
:1022A000519A539A549A569A559A2CE030E048EB3A
:1022B0005BE0C8EBDBE0CA010197F1F72150304049
:1022C000C1F780E30E94AA105D9A04E1802F8A95ED
:1022D000F1F75D9814E0812F8A95F1F7CE0101970F
:1022E000F1F7CE010197F1F780E30E94AA105D9A01
:1022F000802F8A95F1F75D98812F8A95F1F7CE01AD
:102300000197F1F7CE010197F1F780E30E94AA103F
:102310005D9A802F8A95F1F75D98812F8A95F1F764
:10232000CE010197F1F7CE010197F1F780E20E940B
:10233000AA105D9A0A95F1F75D981A95F1F788E26F
:102340000E94071188E00E94071181E00E94071196
:1023500086E00E9407118F2D0E94071185E28A9561
:10236000F1F7CE010197F1F7CE010197F1F7CDB763
:10237000DEB7E5E00C948715FC0188279927E894DF
:1023800021912032E9F3293010F02E30C8F32B329E
:1023900041F02D3239F4689404C00E945012820F2B
:1023A000911D219120532A30C0F31EF49095819500
:1023B0009F4F0895FB01DC014150504030F08D915A
:1023C0000190801919F40020B9F7881B990B089522
:1023D000FB01DC014150504048F001900D9200207B
:1023E000C9F701C01D9241505040E0F70895A0E0A8
:1023F000B0E0EDEFF1E10C9468157C01EB018A018E
:10240000690109C0CE012196F6010995F701819372
:102410007F010150104001151105A1F7CDB7DEB7BE
:10242000E8E00C948415A0E0B0E0E9E1F2E10C945E
:102430006815EC017B018A01690109C0CE01219672
:10244000F70161917F01F6010995015010400115D6
:102450001105A1F7CDB7DEB7E8E00C948415FB01B8
:102460009F01E8944230C4F04532B4F44A3029F474
:1024700097FB1EF4909581959F4F642F77270E94BC
:102480002815805D8A330CF0895D8193CB0100971C
:10249000A1F716F45DE251931082C9010C946F14F8
:1024A0007AE0979F902D879F802D910D112408959C
:1024B000AEE0B0E0EEE5F2E10C946C150D891E89FA
:1024C0008EE08C831A8309838FEF9FE79E838D8331
:1024D0009E01275E3F4FCE0101966F89788DA9013D
:1024E0000E947C122F813885020F131FF801108281
:1024F0002E96E4E00C948815ABE0B0E0E2E8F2E15F
:102500000C945E153C012B015A01FC0117821682C6
:10251000838181FD03C06FEF7FEFC6C19AE0892EF2
:102520001E010894211C311CF3012381F20123FDBB
:10253000859123FF81912F01882309F4B2C185324F
:1025400039F423FD859123FF81912F01853229F4F0
:1025500090E0B3010E947F14E7CF982FFF24EE2470
:102560009924FFE1FF15D0F09B3269F09C3228F4EA
:10257000903259F0933291F40EC09D3249F090336D
:1025800069F441E024C052E0F52A84E0F82A28C02A
:1025900098E0F92A25C0E0E1FE2A22C0F7FC29C014
:1025A000892F80538A3070F4F6FE05C0989C902CD9
:1025B0001124980E15C0E89CE02C1124E80EF0E2DE
:1025C000FF2A0EC09E3229F4F6FC6BC140E4F42AC7
:1025D00007C09C3619F450E8F52A02C0983649F431
:1025E000F20123FD959123FF91912F01992309F089
:1025F000B8CF892F8554833018F08052833038F457
:1026000044E050E0A40EB51E5FE359830FC093363B
:1026100031F0933779F0933509F056C020C0F501B9
:102620008081898342E050E0A40EB51E610101E083
:1026300010E012C0F501C080D180F6FC03C06FEF3E
:102640007FEF02C0692D70E042E050E0A40EB51E9D
:10265000C6010E9464148C015FE7F52214C0F501E5
:10266000C080D180F6FC03C06FEF7FEF02C0692D00
:1026700070E042E050E0A40EB51EC6010E9459145D
:102680008C0150E8F52AF3FE07C01AC080E290E002
:10269000B3010E947F14EA948E2D90E00817190769
:1026A000A8F30EC0F601F7FC8591F7FE81916F014A
:1026B00090E0B3010E947F14E110EA9401501040B1
:1026C0000115110579F7EAC0943611F0993669F5CC
:1026D000F7FE08C0F501208131814281538184E0F9
:1026E00090E00AC0F501808191819C01442737FD6B
:1026F0004095542F82E090E0A80EB91E9FE6F92283
:1027000057FF09C050954095309521953F4F4F4F49
:102710005F4FE0E8FE2ACA01B901A1012AE030E0DA
:102720000E94AB14D82ED21840C0953729F41F2D23
:102730001F7E2AE030E01DC01F2D197F9F3661F0FB
:10274000903720F4983509F0ACC00FC0903739F0BD
:10275000983709F0A6C004C028E030E00AC0106134
:1027600014FD146020E130E004C014FD166020E187
:1027700032E017FF08C0F501608171818281938189
:1027800044E050E008C0F50180819181BC0180E007
:1027900090E042E050E0A40EB51EA1010E94AB14EF
:1027A000D82ED2188FE7F82EF122F6FE0BC05EEF7E
:1027B000F522D91438F4F4FE07C0F2FC05C08FEE00
:1027C000F82202C01D2D01C0192DF4FE0DC0FE011E
:1027D000ED0DF11D8081803319F499EEF92208C0C6
:1027E0001F5FF2FE05C003C08F2D867809F01F5FC2
:1027F0000F2DF3FC14C0F0FE0FC01E1510F09D2C21
:102800000BC09D2C9E0C911A1E2D06C080E290E0FC
:10281000B3010E947F141F5F1E15C0F304C01E1574
:1028200010F4E11A01C0EE2404FF0FC080E390E031
:10283000B3010E947F1402FF1DC001FD03C088E7A1
:1028400090E00EC088E590E00BC0802F867891F074
:1028500001FF02C08BE201C080E2F7FC8DE290E054
:10286000B3010E947F1406C080E390E0B3010E9490
:102870007F149A94D914C0F3DA94F101ED0DF11D8F
:10288000808190E0B3010E947F14DD20A9F706C08B
:1028900080E290E0B3010E947F14EA94EE20C1F739
:1028A00043CEF30166817781CB012B96E2E10C9454
:1028B0007A15FC010590615070400110D8F78095A1
:1028C00090958E0F9F1F0895FC01615070400190FC
:1028D0000110D8F7809590958E0F9F1F0895DC0109
:1028E000FC01672F71917723E1F7329704C07C9147
:1028F0006D9370836291AE17BF07C8F308950F936D
:102900001F93CF93DF938C01EB018B8181FF1BC061
:1029100082FF0DC02E813F818C819D812817390750
:1029200064F4E881F9810193F983E88306C0E885BE
:10293000F985802F0995892B31F48E819F8101962D
:102940009F838E8302C00FEF1FEFC801DF91CF91ED
:102950001F910F910895FA01AA27283051F12031D3
:1029600081F1E8946F936E7F6E5F7F4F8F4F9F4F23
:10297000AF4FB1E03ED0B4E03CD0670F781F891F65
:102980009A1FA11D680F791F8A1F911DA11D6A0F33
:10299000711D811D911DA11D20D009F468943F91E6
:1029A0002AE0269F11243019305D3193DEF6CF01E5
:1029B0000895462F4770405D4193B3E00FD0C9F7AB
:1029C000F6CF462F4F70405D4A3318F0495D31FD18
:1029D0004052419302D0A9F7EACFB4E0A69597956B
:1029E000879577956795BA95C9F700976105710541
:1029F00008959B01AC010A2E06945795479537958B
:102A00002795BA95C9F7620F731F841F951FA01DE4
:102A10000895629FD001739FF001829FE00DF11D28
:102A2000649FE00DF11D929FF00D839FF00D749F48
:102A3000F00D659FF00D9927729FB00DE11DF91FF4
:102A4000639FB00DE11DF91FBD01CF011124089551
:102A5000AA1BBB1B51E107C0AA1FBB1FA617B707C4
:102A600010F0A61BB70B881F991F5A95A9F78095E0
:102A70009095BC01CD010895A1E21A2EAA1BBB1BA3
:102A8000FD010DC0AA1FBB1FEE1FFF1FA217B3073A
:102A9000E407F50720F0A21BB30BE40BF50B661F50
:102AA000771F881F991F1A9469F760957095809514
:102AB00090959B01AC01BD01CF0108952F923F92EB
:102AC0004F925F926F927F928F929F92AF92BF923E
:102AD000CF92DF92EF92FF920F931F93CF93DF93EA
:102AE000CDB7DEB7CA1BDB0B0FB6F894DEBF0FBE47
:102AF000CDBF09942A88398848885F846E847D8494
:102B00008C849B84AA84B984C884DF80EE80FD8095
:102B10000C811B81AA81B981CE0FD11D0FB6F8940B
:0E2B2000DEBF0FBECDBFED010895F894FFCFCC
:102B2E00636F6E6669670066640070770069700097
:102B3E006777006E7300747A006E700047455420FC
:102B4E00002F20000A002B000A5455581000280AA6
:102B5E0000001C0A00000211FE001F7365637265FF
:082B6E00740000000001500A90
:00000001FF
