:100000000C9450020C946D020C946D020C946D02D1
:100010000C946D020C946D020C946D020C946D02A4
:100020000C946D020C946D020C946D020C942C03D4
:100030000C946D020C946D020C946D020C946D0284
:100040000C946D020C946D020C946D020C946D0274
:100050000C946D020C946D020C946D020C946D0264
:100060000C946D020C946D027570646174696E6716
:100070002E2E2E003C703E4F4B2C2076616C756509
:100080007320757064617465642E3C62723E3C61DD
:1000900020687265663D222F223E636F6E74696E22
:1000A00075653C2F613E3C2F703E0A004854545009
:1000B0002F312E3020323030204F4B0D0A436F6EDF
:1000C00074656E742D547970653A20746578742F58
:1000D00068746D6C0D0A0D0A00485454502F312E6F
:1000E000302034303120556E617574686F72697AD2
:1000F00065640D0A436F6E74656E742D5479706576
:100100003A20746578742F68746D6C0D0A0D0A3C82
:1001100068313E34303120556E617574686F726994
:100120007A65643C2F68313E0057616974696E6777
:1001300020666F72204E545020616E737765722E68
:100140002E2E3C62723E3C6120687265663D222E16
:100150002F223E726566726573683C2F613E003CDB
:100160002F7072653E0A3C62723E3C612068726587
:10017000663D222E2F223E726566726573683C2FA3
:10018000613E0A000A4C617374206E7470207379AA
:100190006E63206973206F6C646572207468616E91
:1001A000203120686F75720A00290A0020285554F2
:1001B0004320003C68323E415652204E545020634A
:1001C0006C6F636B3C2F68323E3C7072653E0A0078
:1001D000485454502F312E3020323030204F4B0DA8
:1001E0000A436F6E74656E742D547970653A20748D
:1001F0006578742F68746D6C0D0A0D0A00485454AC
:10020000502F312E3020323030204F4B0D0A436FAB
:100210006E74656E742D547970653A2074657874C7
:100220002F68746D6C0D0A0D0A3C68313E32303017
:10023000204F4B3C2F68313E0029002B0020280026
:100240004574682D6C696E6B20646F776E004E5438
:100250005020616E737765720077616974696E67AB
:1002600020666F72004757204950007761697469B2
:100270006E6720666F72004F4B003E0A4E65772016
:1002800070617373776F72643A203C696E70757435
:1002900020747970653D74657874206E616D653D7C
:1002A0006E703E0A0A50617373776F72643A202051
:1002B0002020203C696E70757420747970653D70E3
:1002C000617373776F7264206E616D653D70773E08
:1002D0003C696E70757420747970653D68696464FA
:1002E000656E206E616D653D66642076616C756536
:1002F0003D313E0A3C696E70757420747970653DBD
:100300007375626D69742076616C75653D6170709E
:100310006C793E3C2F666F726D3E0A003E0A4F6656
:100320006673657420746F205554433A3C696E704F
:10033000757420747970653D74657874206E616D94
:10034000653D747A2076616C75653D003E0A4E54B9
:1003500050207365727665722049503A3C696E7020
:10036000757420747970653D74657874206E616D64
:10037000653D6E732076616C75653D003E0A44658F
:100380006661756C742047572049503A3C696E701D
:10039000757420747970653D74657874206E616D34
:1003A000653D67772076616C75653D000A3C666F38
:1003B000726D20616374696F6E3D2F636F6E666945
:1003C00067206D6574686F643D6765743E436C6F4C
:1003D000636B206F776E2049503A203C696E7075D0
:1003E0007420747970653D74657874206E616D65F4
:1003F0003D69702076616C75653D003C7072653EAC
:100400004E545020636C6F636B2C20636F6E666973
:10041000670A0A4D414320616464726573733A2030
:100420002000485454502F312E3020323030204F8D
:100430004B0D0A436F6E74656E742D547970653A76
:1004400020746578742F68746D6C0D0A0D0A0000B5
:10045000010800060400014500004C000040004077
:1004600011E30004FA00010001000053756E4D6FA6
:100470006E54756557656454687546726953617446
:1004800000253032753A253032753A253032750004
:1004900025732025752D253032752D2530327500B8
:1004A00011241FBECFEFD4E0DEBFCDBF11E0A0E02E
:1004B000B1E0E0E7FBE202C005900D92A834B1077D
:1004C000D9F713E0A8E4B1E001C01D92AD3BB1073C
:1004D000E1F70E948D050C94B6150C9400009C0168
:1004E000F999FECF32BD21BDF89A80B508959C01DF
:1004F000F999FECF1FBA32BD21BD60BD0FB6F89489
:10050000FA9AF99A0FBE0895DC01FB0140E010C091
:100510008081981759F431968081882341F411968F
:100520008C918D3319F4FB0141E001C0FB01119660
:100530009C91992339F0903229F09A3019F0442394
:1005400039F304C0413011F080E008952A2FE9E822
:10055000F3E002C0919311968A2F821B9C919923FC
:1005600051F0903241F0963231F09A3021F033E080
:10057000E53AF30779F7E82FF0E0E757FC4F1082F0
:100580000895982F80538A3068F08153863010F494
:10059000865F0895892F8154863010F080E0089599
:1005A000892F87530895FC013196DC0190E008C043
:1005B0008E3221F08C3211F08D9301C091E0319692
:1005C000829131968823A1F7992311F480E38D93CA
:1005D0001C920895CF93DF93DC01EC0136C08B327F
:1005E00011F480E230C0853271F5FD013196DF01F2
:1005F00011969081392F30533A3070F0892F8156FF
:10060000863010F4375208C0892F8154863010F09C
:1006100030E002C0392F37532181922F90539A3006
:1006200070F0822F8156863010F4975208C0822FC6
:100630008154863010F090E002C0922F9753832FA0
:100640008295807F892B899311968C91882339F626
:100650001882DF91CF9108951F920F920FB60F92DB
:1006600011248F939F93AF93BF93809149019091F1
:100670004A01A0914B01B0914C010196A11DB11D01
:100680008093490190934A01A0934B01B0934C0190
:10069000809145018F5F8093450180914D018823B2
:1006A00021F010924D01299A04C081E080934D0100
:1006B0002998BF91AF919F918F910F900FBE0F908E
:1006C0001F9018951092850010928400109280005F
:1006D0008DE0809381008FE2809389008EEA809381
:1006E000880082E080936F000895A0E0B0E0EBE71F
:1006F000F3E00C9488157C01B42EC22ED02EEB01B1
:1007000000E010E017C0B701610F711D888190E013
:100710004D2D50E00E94501201C0192FF701E10F3A
:10072000F11D8081912F9F5F8823B9F7C082192F17
:100730000F5F21960B1538F31150E10EF11CF701F4
:100740001082CDB7DEB7E9E00C94A415A4E0B0E0C8
:10075000ECEAF3E00C9485155C018B016E010894C2
:10076000C11CD11C760185E0882E912C8C0E9D1E1B
:1007700023C00F5F1F4FF8012081822F992787FD2B
:100780009095C0970A9718F4302F912F05C0222317
:1007900081F7FACF0F5F1F4FF8012081822F80531E
:1007A0008A30C0F3222311F011928F01832F0E940F
:1007B000DD11F70181937F019E2D9C19F801808145
:1007C000882319F0E814F904B1F6943091F420E08C
:1007D00030E0AE014F5F5F4FF501E20FF31FDA012A
:1007E000A20FB31F8C9180832F5F3F4F24303105C0
:1007F00099F72496ECE00C94A1159C01FC01019062
:100800000020E9F73197E81BE230ACF08E2F9927F2
:1008100087FD90950197D901A80FB91F01964C91BA
:10082000403311F41C920895F901E80FF91F408339
:100830008EE28C9311820895EF92FF920F931F9393
:10084000CF93DF93EC0160E070E042E254E00E945D
:100850003E0ABC01CE014BEF53E00E943E0A7C01F0
:1008600089E893E069E271E046E02AE300E10E9452
:100870007503CE01B70149E853E00E94510ABC015B
:10088000CE014CEA53E00E943E0A7C0189E893E0E5
:100890006FE271E044E02EE20AE00E947503CE01AF
:1008A000B70149E853E00E94510ABC01CE014CE770
:1008B00053E00E943E0A7C0189E893E063E371E023
:1008C00044E02EE20E947503CE01B70149E853E0EF
:1008D0000E94510ABC01CE014CE453E00E943E0A42
:1008E0007C0189E893E067E371E044E02EE20E9436
:1008F0007503CE01B70149E853E00E94510ABC01DB
:10090000CE014CE153E00E943E0A7C019091280107
:1009100097FF02C000E004C08BE28093890301E0EE
:1009200010E007571C4F892F992787FD9095B80134
:100930004AE050E00E945012C8010E94FD03CE011F
:10094000B70149E853E00E94510ABC01CE014AE7D1
:1009500052E00E943E0ACDB7DEB7E6E00C94A71540
:10096000BC01ABE3B1E0FD0101900020E9F7319754
:10097000EA1BFB0BCD01AF010E94FB119C0180E043
:10098000232B09F481E00895CF93DF93EC0180E0FD
:1009900091E0BE0146E050E00E94FB11009709F093
:1009A000B8C0CE0167E071E00E948402882311F490
:1009B00081E0B0C0CE016AE071E00E948402882329
:1009C00009F4A7C089E893E00E94EA0289E893E06D
:1009D0000E94B004882309F49CC0CE016DE071E050
:1009E0000E948402882331F08FE291E069E873E08D
:1009F0000E94A603CE0160E171E00E948402882378
:100A000031F083E391E069E873E00E94A603CE0130
:100A100063E171E00E948402882331F087E391E072
:100A200069E873E00E94A603CE0166E171E00E94CE
:100A300084028823A1F089E893E00E94EA0289E811
:100A400093E00E94D30289E893E00E94DD119C01AB
:100A500085579F4F8751914010F420932801CE0174
:100A600069E171E00E948402882371F089E893E0D3
:100A70000E94EA028BE391E069E873E048E050E00D
:100A80000E94091210924301F999FECF1FBA12BCBD
:100A900011BC83E180BD0FB6F894FA9AF99A0FBEA3
:100AA00081E090E06FE271E044E050E027E732E05F
:100AB0000E94341286E090E063E371E044E050E08D
:100AC00027E732E00E9434128BE090E067E371E0A8
:100AD00044E050E027E732E00E94341220912801E0
:100AE000F999FECF1FBA80E190E092BD81BD20BD93
:100AF0000FB6F894FA9AF99A0FBE83E190E06BE38F
:100B000071E04AE050E027E732E00E94341282E0D0
:100B100001C08FEFDF91CF9108954F925F926F9256
:100B20007F929F92AF92BF92CF92DF92EF92FF920D
:100B30000F931F93DF93CF93CDB7DEB7E0970FB638
:100B4000F894DEBF0FBECDBF80E8809361001092A5
:100B5000610012E3812F8A95F1F752982098289A24
:100B600089E291E00E94AB0D82E00E94A50D1A95EA
:100B7000F1F7219A299A189B3CC0F999FECF12BC33
:100B800011BCF89A80B58331A1F58FE291E061E064
:100B900070E044E050E02FE632E00E94181283E358
:100BA00091E066E070E044E050E02FE632E00E9421
:100BB000181287E391E06BE070E044E050E02FE62C
:100BC00032E00E941812F999FECF80E190E092BDC8
:100BD00081BDF89A80B5809328018BE391E063E1B1
:100BE00070E04AE050E02FE632E00E9418121092C6
:100BF000420184E166E774E00E94870D82E38A95F2
:100C0000F1F78CE00E946A1181E00E94281189E2CC
:100C100091E06FE271E040E50E94210910928500A9
:100C200010928400109280008DE0809381008FE20A
:100C3000809389008EEA8093880082E080936F0021
:100C400087E792E00E945C1110E006E90E94710EB5
:100C5000811113E680E0902F9A95F1F78F5F8A302B
:100C6000D1F71F5F1F3090F378949924DD2463E659
:100C7000C62E55E0452E512C4C0E5D1E4BE1642EC8
:100C8000712C6C0E7D1E5E010894A11CB11C02C06B
:100C9000992493948AE392E06EE471E00E94F20E4C
:100CA0007C01009709F0D2C080914501882391F31F
:100CB0000E94710E882309F444C081E08D1510F460
:100CC0000CE701C000E280914501843008F446C081
:100CD0009920C1F481E00E9428118BE692E00E94E5
:100CE0005C1180E061E00E943B1185E692E00E9489
:100CF0005C11109245018EE491E063E371E00E9483
:100D00004A0BC8CFDD2069F581E00E94281189E5F2
:100D100092E00E945C1180E061E00E943B118EE451
:100D200092E00E945C1110924501409148014F5F92
:100D3000409348018EE491E067E371E00E94D90A94
:100D4000A9CF992051F481E00E94281180E492E01B
:100D50000E945C11109245019DCF0FE2DD2009F445
:100D600099CF60912801772767FD7095872F972F7E
:100D700028E631E040E050E00E942A159B01AC01DA
:100D80006091490170914A0180914B0190914C0111
:100D9000620F731F841F951FA20193010E948D0F84
:100DA000182FC81631F081E00E942811C2010E945C
:100DB0004F1180E061E00E943B11C3010E944F117E
:100DC000C11601F18DE392E00E945C11809128012F
:100DD00087FD04C08BE392E00E945C1180912801A2
:100DE000992787FD9095B5014AE050E00E94501286
:100DF000C5010E94FD03C5010E944F1189E392E0E5
:100E00000E945C118FE060E00E943B11802F0E94E5
:100E100043111A3319F432E0D32E14C01B3391F46A
:100E200082E0D81679F40F3259F0409148014F5FB3
:100E3000409348018EE491E067E371E00E94D90A93
:100E400023E0D22E10924501C12E24CF8EE491E0F2
:100E5000B7010E9447098823D9F08EE491E00E94EF
:100E60006B09882321F08EE491E00E949D0C8EE4B2
:100E700091E00E946309882309F40CCF8EE491E08D
:100E800063E371E00E946F0A882309F001CF02CF6B
:100E90008EE491E0B7010E947309882309F4FACE29
:100EA00080916501813059F480917001883009F09A
:100EB000F1CE8EE491E0B7010E94750CEBCE863046
:100EC00009F019C180917201882309F0E3CE809165
:100ED0007301803509F0DECE80917D0181FF05C070
:100EE0008EE491E00E94FB0BD5CE84FFD3CE8EE43E
:100EF00091E00E941B0A0E940A0A8C01009749F4A3
:100F000080917D0180FFC6CE8EE491E00E94C30BEC
:100F1000C1CEBC01625B7E4F8CE191E044E050E0C9
:100F20000E94FB11009739F08EE491E060E070E0E0
:100F30004DEF51E08EC0B8016E5A7E4F81E291E0D4
:100F400042E050E00E94FB11009709F08DC08EE452
:100F500091E060E070E040ED51E00E943E0ABC018B
:100F60008EE491E043EB51E00E943E0A8C01DD20CB
:100F700009F474C060912801772767FD7095872F69
:100F8000972F28E631E040E050E00E942A159B01AF
:100F9000AC016091490170914A0180914B0190919F
:100FA0004C01620F731F841F951FA20193010E94C1
:100FB0008D0F8EE491E0B801A2010E94510ABC019C
:100FC0008EE491E044E251E00E94510ABC018EE4BB
:100FD00091E0A3010E94510ABC018EE491E04CEA29
:100FE00051E00E943E0A8C018091280187FD08C0D3
:100FF0008EE491E0B80146E251E00E94510A8C0172
:1010000080912801992787FD9095B5014AE050E02D
:101010000E945012C5010E94FD038EE491E0B801C8
:10102000A5010E94510ABC018EE491E049EA51E019
:101030000E943E0ABC0181E08D1538F48EE491E0F7
:1010400044E851E00E943E0ABC018EE491E04FE585
:1010500051E00E943E0A7C0110E02EC08EE491E037
:10106000B80149E251E0F5CFC8018D5A9E4F0E9468
:10107000C404182F8F3F39F48EE491E060E070E0F3
:1010800049ED50E016C0813029F48EE491E00E94D1
:101090001C0411C0823081F48EE491E060E070E0C5
:1010A0004CEA50E00E943E0ABC018EE491E044E725
:1010B00050E00E943E0A7C018EE491E00E94C30B46
:1010C0008EE491E0B7010E94990B123009F0E2CD55
:1010D00089E291E06FE271E040E50E94210981E040
:1010E0000E94281188E690E00E945C119924DD247A
:1010F00093E6C92ECFCD813109F0CCCD809170011E
:10110000882309F0C7CD809171018B3709F0C2CDDA
:101110008EE491E069E471E0409148010E94930AF5
:10112000882309F4B7CD8091490190914A01A0919B
:101130004B01B0914C019C01AD0120583E474A4AF9
:1011400053482093490130934A0140934B015093F7
:101150004C01DD24D3949ECDA0E0B0E0E2EBF8E0BA
:101160000C9489156C01413081F4685070407B010A
:1011700000E010E0685F7F4F21E130E040E050E0A8
:10118000E20EF31E041F151F15C0423021F0EE249D
:10119000FF2487010FC0685070407B0100E010E021
:1011A000685F7F4F86E090E0A0E0B0E0E80EF91EB7
:1011B0000A1F1B1FF601EB0116C0808190E0A0E022
:1011C000B0E0BA2FA92F982F8827218130E040E086
:1011D00050E0822B932BA42BB52BE80EF91E0A1F8F
:1011E0001B1F32962297C230D10538F7FB01EE7FE4
:1011F000EC0DFD1D60FF15C0808190E0A0E0B0E027
:10120000BA2FA92F982F882708C02FEF3FEF40E073
:1012100050E0E222F32204231523E80EF91E0A1FF0
:101220001B1FC801AA27BB270097A105B10569F7B5
:10123000970120953095C901CDB7DEB7E8E00C9451
:10124000A515CF93DF93EC014093460120E030E0F9
:10125000F901EA54FC4FDB01A20FB31F8C9180838C
:101260002F5F3F4F2430310599F720E030E0F9013E
:10127000E655FC4FDE01A20FB31F8C9180832F5FD8
:101280003F4F2630310599F7DF91CF910895FC014A
:1012900069327105B0F08485883099F4858586308F
:1012A00081F4DF019696E6EBF3E09C91808198173C
:1012B00041F41196319683E0EA3BF807B1F781E0FB
:1012C000089580E0089520E0FC018589823009F4CA
:1012D00021E0822F089520E0FC018589813009F406
:1012E00021E0822F0895CF93DF93FC016A327105CC
:1012F000C8F084858830B1F48585882399F4868583
:10130000853481F4DF01E6EBF3E0ED019E8D808111
:10131000981741F41196319683E0EA3BF807A9F754
:1013200081E001C080E0DF91CF910895FC01AAEA3D
:10133000B3E0868180838D918683319683E0A03BE4
:10134000B807B9F708950F931F938C01FC01108E15
:10135000118E80E4848B158A868BC8010E9664E119
:1013600070E040E00E94AC08F801908F818F1F91DF
:101370000F910895AC01FC01A6EBB3E0828D868F3E
:101380008D91828F319683E0AA3BB807B9F7CA01E5
:101390000E94A3090895CF93DF93FC0182A184A347
:1013A00012A283A185A313A28091460183A3DF012A
:1013B000999694E08C91680F711DED018C816C837E
:1013C000222311F08C9301C01C9291501197992304
:1013D00019F0672F7727EECF222349F416A217A220
:1013E0008091470180A711A68E5F8093470112AAC2
:1013F00013AA442351F082E086AB84E087AB85E0FA
:1014000080AF80E881AF80E601C080E586A7DF91EC
:10141000CF9108958091A6039091A703892B19F489
:1014200020E030E006C02091A8033091A9032E5D92
:101430003F4FC9010895FC01908980E0218930E087
:10144000282B392B86A582958F7090E0880F991FE5
:10145000880F991F9093A9038093A80324513040CB
:10146000281B390B3093A7032093A60312161306EB
:1014700024F01092A7031092A60308956A5C7F4F90
:10148000DC01A60FB71F6653704003C08D936F5FDA
:101490007F4FFA014F5F5F4F84918823B9F7CB01EB
:1014A0000895FA016A5C7F4FDC01A60FB71F6653EF
:1014B000704004C08D936F5F7F4F31968081882389
:1014C000C9F7CB010895DC01FA0105C084918D9321
:1014D00031966150704061157105C1F70895CF9341
:1014E000DF93EC01DC0120E030E0AB01420F531F41
:1014F000FD01948DFA018081981711F080E010C0F1
:101500002F5F3F4F11962430310579F7E0EBF3E080
:101510008E898193219683E0E63BF807C9F781E045
:10152000DF91CF910895CF93DF93FC01EB0144232A
:1015300019F085A18417C9F586A18823B1F587A183
:10154000883399F583A18B3781F5EE5AFF4F2191AE
:1015500030E040E050E0522F44273327222780819B
:1015600090E0A0E0B0E0DC0199278827282B392BF8
:101570004A2B5B2B3296808190E0A0E0B0E0282BD4
:10158000392B4A2B5B2B829190E0A0E0B0E0BA2F80
:10159000A92F982F8827282B392B4A2B5B2B2883A0
:1015A00039834A835B8381E001C080E0DF91CF9182
:1015B00008951F93CF93DF93EC01142FAC01DC014E
:1015C00020E030E0F901E055FC4F80818C93F90177
:1015D000E655FC4F8081FD0186832F5F3F4F1196BA
:1015E0002630310579F788E08C871D86DE0127E5F6
:1015F00034E0F9018491FD0186872F5F3F4F1196FA
:10160000F4E021363F07A9F720E030E0FB01E20FCC
:10161000F31F8081FA01868FF901EA54FC4F808123
:10162000FA01828F2F5F3F4F4F5F5F4F24303105AC
:1016300069F7CE010E94A3091CA28BE78DA38AE063
:101640008AA31BA31EA288E38FA318A619A6DE01F6
:101650009A96FD0180E011928F5F8033E1F7E1E619
:10166000F4E084918D93319684E0EB36F807C9F766
:10167000CE014A9660E470E041E00E94AC0898A771
:1016800089A78AE590E0BE010E947A0EDF91CF9192
:101690001F9108950F931F93CF93DF93EC01AC013B
:1016A0002AEA33E0FC01D9019FEF90838D91868374
:1016B000319683E0A03BB807C1F788E08C8786E0CD
:1016C0008D87DE010FE414E0F8018491FD01868727
:1016D0000F5F1F4F1196F4E007351F07A9F7F901B7
:1016E00081919F01FA01868B10A24F5F5F4FF3E05B
:1016F000203B3F07A1F7DE015C9620E030E0FB01D4
:10170000E20FF31F8081FD018287F901EA54FC4F4B
:1017100080818D932F5F3F4F2430310581F78AE21E
:1017200090E0BE010E947A0EDF91CF911F910F9140
:101730000895EF92FF920F931F938C017B0189E133
:10174000F80187A7CB018896908B818BC8010E94F6
:10175000A309F80112AA13AA8CE190E0E80EF91E81
:10176000C8014A96B70142E00E94AC08F80192AB6A
:1017700083ABC7014A96B8010E947A0E1F910F9160
:10178000FF90EF900895CF93DF93EC01FC01AAEA5C
:10179000B3E0868180838D918683319683E0A03B80
:1017A000B807B9F780E18FA76091A6037091A703EE
:1017B0006115710521F4CE0161E070E001C0CE0138
:1017C00040E021E00E94CB09188A88E2898BCE0193
:1017D0000E94BA09CE014A966CE170E042E00E9494
:1017E000AC089AAB8BAB86E390E0BE010E947A0E08
:1017F000DF91CF910895CF93DF93EC01FC01AAEA2A
:10180000B3E0868180838D918683319683E0A03B0F
:10181000B807B9F7188A8CE2898BCE010E94BA0901
:1018200082E18FA7CE0161E070E041E020E00E94FC
:10183000CB09CE014A9660E270E042E00E94AC081B
:101840009AAB8BAB8AE390E0BE010E947A0EDF91E7
:10185000CF910895A0E0B0E0E0E3FCE00C948A159D
:10186000EC017B01D22E132FFC01AAEAB3E08681A2
:1018700080838D918683319683E0A03BB807B9F7CA
:10188000042F4D3D08F00CED188A045E098BCE0143
:101890000E94BA091CA3DDA21EA204510FA3085086
:1018A00018A619A6DE019A9620E030E007C0F701DD
:1018B000E20FF31F80818D932F5F3F4F2017B8F306
:1018C00010E0005F1F4FCE014A96B80141E00E9430
:1018D000AC0898A789A7C8014A96BE010E947A0E53
:1018E000CDB7DEB7E7E00C94A6150F931F93CF9307
:1018F000DF93EC018B01FC01AAEAB3E086818083CF
:101900008D918683319683E0A03BB807B9F7CE016D
:101910000E94BA091AA28CA1883F18F08DA18F5F8E
:101920008DA38CA1885F8CA3C801BE010E947A0E92
:10193000DF91CF911F910F910895CF93DF93AC0169
:10194000EC012AEA33E0FC01D901868180838D9184
:101950008683319683E0A03BB807B9F7FA01148A71
:1019600082E0858B8E8988A3F90181919F018E8BFE
:101970002196F3E0203B3F07A9F7FA017C96A6EBFE
:10198000B3E0808182878D91819383E0AA3BB80781
:10199000C1F78AE290E0BA010E947A0EDF91CF91FE
:1019A00008952A98962F9F71982B9EBD0DB407FE1F
:1019B000FDCF1EBC0DB407FEFDCF67FF04C01EBCEB
:1019C0000DB407FEFDCF2A9A8EB508952A986F713F
:1019D000682B6EBD0DB407FEFDCF4EBD0DB407FEE6
:1019E000FDCF2A9A0895AC01FB012A988AE38EBDA7
:1019F0000DB407FEFDCF9A01DF0108C01EBC0DB477
:101A000007FEFDCF215030408EB58D932115310555
:101A1000A9F7E40FF51F10822A9A08959C01FB0193
:101A20002A988AE78EBD0DB407FEFDCF08C08081DD
:101A30008EBD0DB407FEFDCF2150304031962115EB
:101A40003105A9F72A9A0895482F282F30E02076EB
:101A500030708091BA0390E028173907F9F02A987E
:101A60008FEB8EBD0DB407FEFDCF83E08EBD0DB4B0
:101A700007FEFDCF2A9A2A988FE98EBD0DB407FE86
:101A8000FDCF85E0359527958A95E1F72EBD0DB4FC
:101A900007FEFDCF2A9A40764093BA0308951F931C
:101AA000182F0E94240D80E0612F0E94D10C1F91FD
:101AB00008950F931F93182F062F0E94240D2A9824
:101AC0001F7110641EBD0DB407FEFDCF0EBD0DB419
:101AD00007FEFDCF2A9A1F910F910895682F84ED7C
:101AE0000E94590D82ED61E00E94590D8EE38A95A6
:101AF000F1F78AEE0E944F0D80FDFBCF82ED60E092
:101B00000E94590D89ED0E944F0D90E008950F93AA
:101B10001F93982F162F072F84ED692F0E94590DC0
:101B200086ED612F0E94590D87ED602F0E94590D9F
:101B30001EE303C0812F8A95F1F78AEE0E944F0DB4
:101B400080FDF8CF1F910F910895682F677085E78A
:101B50000E94590D0895CF93DF93EC01229A2A9A9F
:101B600084B1886284B924982B982D9880E58CBD27
:101B70008DB581608DBD2A988FEF8EBD0DB407FEA7
:101B8000FDCF8FEF8EBD0DB407FEFDCF2A9A8DECF1
:101B90008A95F1F71092BC031092BB0388E060E0D5
:101BA0000E94590D89E060E00E94590D8CE060E0D0
:101BB0000E94590D8DE060E00E94590D8AE06EEFA1
:101BC0000E94590D8BE069E10E94590D84E06FEF8E
:101BD0000E94590D85E069E10E94590D86E06FEF82
:101BE0000E94590D87E06FE10E94590D88E360EB78
:101BF0000E94590D88E26FE30E94590D89E260E36B
:101C00000E94590D80E369EF0E94590D81E367EF4F
:101C10000E94590D80EC6DE00E94590D81EC60E04E
:101C20000E94590D2A9882E88EBD0DB407FEFDCFA3
:101C300082E38EBD0DB407FEFDCF2A9A86EC62E1E9
:101C40000E94590D87EC6CE00E94590D84EC62E112
:101C50000E94590D8AEC6CED0E94590D8BEC65E0E9
:101C60000E94590D84EE68810E94590D85EE6981AC
:101C70000E94590D82EE6A810E94590D83EE6B819C
:101C80000E94590D80EE6C810E94590D81EE6D818C
:101C90000E94590D80E160E071E00E94870D8FE1A4
:101CA0000E94240D2A988BE98EBD0DB407FEFDCF4E
:101CB00080EC8EBD0DB407FEFDCF2A9A2A988FE9DD
:101CC0008EBD0DB407FEFDCF84E08EBD0DB407FEC2
:101CD000FDCF2A9ADF91CF91089582E70E944F0DA0
:101CE000089581E10E946E0D20E0892B09F021E02A
:101CF000822F0895A0E0B0E0E0E8FEE00C948A15A1
:101D0000EC018B013FE9D32E20E8F22E9FEBE92E68
:101D100019C08CE10E944F0D81FF14C02A98DEBCCF
:101D20000DB407FEFDCFFEBC0DB407FEFDCF2A9A11
:101D30002A98EEBC0DB407FEFDCFFEBC0DB407FE25
:101D4000FDCF2A9A80E06FE10E94D10C83FDE1CFA4
:101D500082E06FEF0E94590D83E069E10E94590D06
:101D6000CE018150682F86E00E94590D9E012150BE
:101D7000364E87E0632F0E94590D2A988AE78EBD60
:101D80000DB407FEFDCF1EBC0DB407FEFDCF2A9A91
:101D90002A988AE78EBD0DB407FEFDCF09C0F80171
:101DA00080818EBD0DB407FEFDCF21970F5F1F4FC1
:101DB0002097A9F72A9A2A988FE98EBD0DB407FEBD
:101DC000FDCF88E08EBD0DB407FEFDCF2A9ACDB7BA
:101DD000DEB7E7E00C94A61589E30E944F0D811150
:101DE00081E00895A0E0B0E0E8EFFEE00C948515F6
:101DF0005C014B0189E30E944F0D882319F4C0E078
:101E0000D0E078C06091BB031091BC0380E00E94D9
:101E1000590D81E0612F0E94590D8AE360E00E9414
:101E2000D10C182F8AE360E00E94D10C382F20E0FB
:101E3000E12EFF24E22AF32AF092BC03E092BB03D6
:101E40008AE360E00E94D10CC82E8AE360E00E9421
:101E5000D10CD82E8AE360E00E94D10C082F10E04C
:101E60008AE360E00E94D10C382F20E0202B312B38
:101E700027FD03C0C0E0D0E011C0CC2DD0E09D2DE7
:101E800080E0C82BD92BC501019724978C179D079B
:101E900008F4EC01CE01B4010E94F30CDE2C8CE0BE
:101EA0006E2D0E94590D8DE06F2D0E94590D8701F6
:101EB0000150104089E10F3F180738F08CE06EEFB9
:101EC0000E94590D8DE069E107C0DA948CE06D2D18
:101ED0000E94590D8DE0612F0E94590D2A988EE9BC
:101EE0008EBD0DB407FEFDCF80E48EBD0DB407FEA0
:101EF000FDCF2A9ACE01CDB7DEB7ECE00C94A11548
:101F0000613011F4845E0895673008F0615060FD1F
:101F100002C08FE108958EE10895A4E0B0E0E3E906
:101F2000FFE00C9481157B018C014A01390120E806
:101F300031E541E050E00E945D15D62EC72EB82E47
:101F4000A92EC801B70120E831E541E050E00E9428
:101F50005D1589016D2D7C2D8B2D9A2D20E13EE0A4
:101F600040E050E00E945D152CE330E040E050E09E
:101F70000E945D15522EC801049667E070E00E9431
:101F80004915482E22EB37E019C0EF2889F4C90122
:101F900064E670E00E944915892B39F4C90160E9B3
:101FA00071E00E944915892B19F48EE691E002C078
:101FB0008DE691E0081B190B2F5F3F4F83E0E82E61
:101FC000F12CE222F322E114F10489F4C90164E660
:101FD00070E00E944915892B39F4C90160E971E06C
:101FE0000E944915892B19F48EE691E002C08DE616
:101FF00091E00817190748F6C90164E670E00E94ED
:102000004915FC01C90160E971E00E944915AC0164
:1020100060E07FEF21C0E114F10419F080E090E06E
:1020200009C0309729F480E090E04115510511F482
:1020300081E090E0613011F4845E0AC0673010F4F2
:10204000862F01C0872F80FD02C08FE101C08EE185
:10205000081B11096F5F7F5FE114F10419F080E044
:1020600090E009C0309729F480E090E041155105D7
:1020700011F481E090E0613011F4845E0AC06730B1
:1020800010F4862F01C0872F80FD02C08FE101C0B0
:102090008EE190E00817190708F0BDCFE3E04E9EEF
:1020A000C0011124FC01E559FB4FE491E983FC01D7
:1020B000E459FB4FE491EA8383599B4FFC018491DF
:1020C0008B831C828DB79EB70C970FB6F8949EBF7A
:1020D0000FBE8DBFADB7BEB71196EDB7FEB79282FA
:1020E000818280E994E0FD0193838283CE01019691
:1020F0009583848337832683862F90E0019691878A
:1021000080870F5F1F4F138702870E9479120F90FD
:102110000F900DB71EB70F5F1F4FEDB7FEB772825E
:10212000618281E894E0F801938382836D2D7C2D98
:102130008B2D9A2D20E13EE040E050E00E945D159D
:10214000F80124831582568217826D2D7C2D8B2DEC
:102150009A2D2CE330E040E050E00E945D15F8013C
:10216000608711860E9479128DB79EB70A960FB6C6
:10217000F8949EBF0FBE8DBF852D2496E0E10C9490
:102180009D1528EB3BE004C0F9013197F1F7019769
:102190000097D1F7089587FF02C0589A01C0589858
:1021A00086FF02C0599A01C0599885FF02C05B9A08
:1021B00001C05B9884FF02C05C9A08955C98089502
:1021C000FF920F931F93082FF62E509A519A539A0D
:1021D000549A10E1812F8A95F1F7802F0E94CB103D
:1021E0001A95F1F7FF2011F05E9A01C05E985D9A92
:1021F00084E18A95F1F75D9884E08A95F1F7802F64
:1022000003FF02C0589A01C0589882FF02C0599A31
:1022100001C0599881FF02C05B9A01C05B9880FFA2
:1022200002C05C9A01C05C9880E18A95F1F7FF20BA
:1022300011F05E9A01C05E985D9A84E18A95F1F78B
:102240005D9884E08A95F1F71F910F91FF900895B2
:102250001F9315E2912F9A95F1F760E00E94E0102C
:102260001A95F1F788EB9BE0FC013197F1F70197A4
:10227000F1F71F910895662311F4805801C080542E
:102280000E94281108951F9315E2912F9A95F1F756
:1022900061E00E94E0101A95F1F71F910895CF9325
:1022A000DF93EC0103C00E944311219688818823AB
:1022B000D1F7DF91CF910895CF93DF93EC0102C066
:1022C0000E944311FE01219684918823C9F7DF9172
:1022D000CF910895FF920F931F93CF93DF93F82E22
:1022E000509A519A539A549A569A559A2CE030E043
:1022F00048EB5BE0C8EBDBE0CA010197F1F7215046
:102300003040C1F780E30E94CB105D9A04E1802F3A
:102310008A95F1F75D9814E0812F8A95F1F7CE0147
:102320000197F1F7CE010197F1F780E30E94CB10FE
:102330005D9A802F8A95F1F75D98812F8A95F1F744
:10234000CE010197F1F7CE010197F1F780E30E94EA
:10235000CB105D9A802F8A95F1F75D98812F8A9531
:10236000F1F7CE010197F1F7CE010197F1F780E285
:102370000E94CB105D9A0A95F1F75D981A95F1F7D6
:1023800088E20E94281188E00E94281181E00E94C2
:10239000281186E00E9428118F2D0E94281185E2C5
:1023A0008A95F1F7CE010197F1F7CE010197F1F788
:1023B000CDB7DEB7E5E00C94A815FC018827992776
:1023C000E89421912032E9F3293010F02E30C8F33F
:1023D0002B3241F02D3239F4689404C00E947112FE
:1023E000820F911D219120532A30C0F31EF4909545
:1023F00081959F4F0895FB01DC014150504030F022
:102400008D910190801919F40020B9F7881B990B60
:102410000895FB01DC014150504048F001900D92BD
:102420000020C9F701C01D9241505040E0F70895C7
:10243000A0E0B0E0EEE1F2E10C9489157C01EB0143
:102440008A01690109C0CE012196F6010995F701BB
:1024500081937F010150104001151105A1F7CDB7FF
:10246000DEB7E8E00C94A515A0E0B0E0EAE3F2E105
:102470000C948915EC017B018A01690109C0CE0128
:102480002196F70161917F01F601099501501040F5
:1024900001151105A1F7CDB7DEB7E8E00C94A5153D
:1024A000FB019F01E8944230C4F04532B4F44A3055
:1024B00029F497FB1EF4909581959F4F642F772701
:1024C0000E944915805D8A330CF0895D8193CB01B0
:1024D0000097A1F716F45DE251931082C9010C94A4
:1024E00090147AE0979F902D879F802D910D112455
:1024F0000895AEE0B0E0EFE7F2E10C948D150D89A0
:102500001E898EE08C831A8309838FEF9FE79E8359
:102510008D839E01275E3F4FCE0101966F89788D96
:10252000A9010E949D122F813885020F131FF80107
:1025300010822E96E4E00C94A915ABE0B0E0E3EA3B
:10254000F2E10C947F153C012B015A01FC0117822A
:102550001682838181FD03C06FEF7FEFC6C19AE0D1
:10256000892E1E010894211C311CF3012381F201E4
:1025700023FD859123FF81912F01882309F4B2C1A6
:10258000853239F423FD859123FF81912F01853216
:1025900029F490E0B3010E94A014E7CF982FFF2404
:1025A000EE249924FFE1FF15D0F09B3269F09C32B4
:1025B00028F4903259F0933291F40EC09D3249F0D4
:1025C000903369F441E024C052E0F52A84E0F82A0F
:1025D00028C098E0F92A25C0E0E1FE2A22C0F7FCD5
:1025E00029C0892F80538A3070F4F6FE05C0989C6C
:1025F000902C1124980E15C0E89CE02C1124E80EB4
:10260000F0E2FF2A0EC09E3229F4F6FC6BC140E4D2
:10261000F42A07C09C3619F450E8F52A02C098360F
:1026200049F4F20123FD959123FF91912F01992304
:1026300009F0B8CF892F8554833018F08052833049
:1026400038F444E050E0A40EB51E5FE359830FC098
:10265000933631F0933779F0933509F056C020C0A6
:10266000F5018081898342E050E0A40EB51E61012E
:1026700001E010E012C0F501C080D180F6FC03C07B
:102680006FEF7FEF02C0692D70E042E050E0A40ED2
:10269000B51EC6010E9485148C015FE7F52214C0A7
:1026A000F501C080D180F6FC03C06FEF7FEF02C060
:1026B000692D70E042E050E0A40EB51EC6010E94F4
:1026C0007A148C0150E8F52AF3FE07C01AC080E2A4
:1026D00090E0B3010E94A014EA948E2D90E00817B8
:1026E0001907A8F30EC0F601F7FC8591F7FE81915A
:1026F0006F0190E0B3010E94A014E110EA94015030
:1027000010400115110579F7EAC0943611F0993699
:1027100069F5F7FE08C0F5012081318142815381BE
:1027200084E090E00AC0F501808191819C014427FA
:1027300037FD4095542F82E090E0A80EB91E9FE629
:10274000F92257FF09C050954095309521953F4F8C
:102750004F4F5F4FE0E8FE2ACA01B901A1012AE00C
:1027600030E00E94CC14D82ED21840C0953729F4FE
:102770001F2D1F7E2AE030E01DC01F2D197F9F36C0
:1027800061F0903720F4983509F0ACC00FC0903755
:1027900039F0983709F0A6C004C028E030E00AC03C
:1027A000106114FD146020E130E004C014FD1660D7
:1027B00020E132E017FF08C0F5016081718182815C
:1027C000938144E050E008C0F50180819181BC0113
:1027D00080E090E042E050E0A40EB51EA1010E940E
:1027E000CC14D82ED2188FE7F82EF122F6FE0BC0AB
:1027F0005EEFF522D91438F4F4FE07C0F2FC05C0F0
:102800008FEEF82202C01D2D01C0192DF4FE0DC05F
:10281000FE01ED0DF11D8081803319F499EEF9224E
:1028200008C01F5FF2FE05C003C08F2D867809F037
:102830001F5F0F2DF3FC14C0F0FE0FC01E1510F02B
:102840009D2C0BC09D2C9E0C911A1E2D06C080E263
:1028500090E0B3010E94A0141F5F1E15C0F304C0D6
:102860001E1510F4E11A01C0EE2404FF0FC080E32E
:1028700090E0B3010E94A01402FF1DC001FD03C03F
:1028800088E790E00EC088E590E00BC0802F867846
:1028900091F001FF02C08BE201C080E2F7FC8DE203
:1028A00090E0B3010E94A01406C080E390E0B30161
:1028B0000E94A0149A94D914C0F3DA94F101ED0D9A
:1028C000F11D808190E0B3010E94A014DD20A9F7E2
:1028D00006C080E290E0B3010E94A014EA94EE20CA
:1028E000C1F743CEF30166817781CB012B96E2E1FC
:1028F0000C949B15FC010590615070400110D8F7B5
:10290000809590958E0F9F1F0895FC016150704037
:1029100001900110D8F7809590958E0F9F1F089514
:10292000DC01FC01672F71917723E1F7329704C036
:102930007C916D9370836291AE17BF07C8F30895C1
:102940000F931F93CF93DF938C01EB018B8181FF5A
:102950001BC082FF0DC02E813F818C819D81281775
:10296000390764F4E881F9810193F983E88306C0AB
:10297000E885F985802F0995892B31F48E819F8117
:1029800001969F838E8302C00FEF1FEFC801DF9176
:10299000CF911F910F910895FA01AA27283051F184
:1029A000203181F1E8946F936E7F6E5F7F4F8F4F80
:1029B0009F4FAF4FB1E03ED0B4E03CD0670F781FDF
:1029C000891F9A1FA11D680F791F8A1F911DA11DC4
:1029D0006A0F711D811D911DA11D20D009F46894FD
:1029E0003F912AE0269F11243019305D3193DEF6A5
:1029F000CF010895462F4770405D4193B3E00FD05B
:102A0000C9F7F6CF462F4F70405D4A3318F0495D45
:102A100031FD4052419302D0A9F7EACFB4E0A69528
:102A20009795879577956795BA95C9F7009761054A
:102A3000710508959B01AC010A2E069457954795A0
:102A400037952795BA95C9F7620F731F841F951F95
:102A5000A01D0895629FD001739FF001829FE00D39
:102A6000F11D649FE00DF11D929FF00D839FF00D0D
:102A7000749FF00D659FF00D9927729FB00DE11DB9
:102A8000F91F639FB00DE11DF91FBD01CF01112496
:102A90000895AA1BBB1B51E107C0AA1FBB1FA617A5
:102AA000B70710F0A61BB70B881F991F5A95A9F7F7
:102AB00080959095BC01CD010895A1E21A2EAA1B24
:102AC000BB1BFD010DC0AA1FBB1FEE1FFF1FA217DE
:102AD000B307E407F50720F0A21BB30BE40BF50BDB
:102AE000661F771F881F991F1A9469F76095709564
:102AF000809590959B01AC01BD01CF0108952F9267
:102B00003F924F925F926F927F928F929F92AF927D
:102B1000BF92CF92DF92EF92FF920F931F93CF93CA
:102B2000DF93CDB7DEB7CA1BDB0B0FB6F894DEBF61
:102B30000FBECDBF09942A88398848885F846E8487
:102B40007D848C849B84AA84B984C884DF80EE80D1
:102B5000FD800C811B81AA81B981CE0FD11D0FB6DA
:102B6000F894DEBF0FBECDBFED010895F894FFCFFE
:102B7000636F6E6669670066640070770069700055
:102B80006777006E7300747A006E700047455420BA
:102B9000002F20000A002B00D85455581000280A96
:102BA00000001C0A00000211FE001F7365637265BD
:082BB000740000000001500A4E
:00000001FF
