:100000000C9456020C9473020C9473020C947302B9
:100010000C9473020C9473020C9473020C9473028C
:100020000C9473020C9473020C9473020C941403DA
:100030000C9473020C9473020C9473020C9473026C
:100040000C9473020C9473020C9473020C9473025C
:100050000C9473020C9473020C9473020C9473024C
:100060000C9473020C9473027570646174696E670A
:100070002E2E2E003C703E4F4B2C2076616C756509
:100080007320757064617465642E3C62723E3C61DD
:1000900020687265663D222F223E636F6E74696E22
:1000A00075653C2F613E3C2F703E0A004854545009
:1000B0002F312E3020323030204F4B0D0A436F6EDF
:1000C00074656E742D547970653A20746578742F58
:1000D00068746D6C0D0A0D0A00485454502F312E6F
:1000E000302034303120556E617574686F72697AD2
:1000F00065640D0A436F6E74656E742D5479706576
:100100003A20746578742F68746D6C0D0A0D0A3C82
:1001100068313E34303120556E617574686F726994
:100120007A65643C2F68313E0057616974696E6777
:1001300020666F72204E545020616E737765722E68
:100140002E2E3C62723E3C6120687265663D222E16
:100150002F223E726566726573683C2F613E003CDB
:100160002F7072653E0A3C62723E3C612068726587
:10017000663D222E2F223E726566726573683C2FA3
:10018000613E0A000A4C617374206E7470207379AA
:100190006E63206973206F6C646572207468616E91
:1001A000203120686F75720A00290A0020285554F2
:1001B0004320003C68323E415652204E545020634A
:1001C0006C6F636B3C2F68323E3C7072653E0A0078
:1001D000485454502F312E3020323030204F4B0DA8
:1001E0000A436F6E74656E742D547970653A20748D
:1001F0006578742F68746D6C0D0A0D0A00485454AC
:10020000502F312E3020323030204F4B0D0A436FAB
:100210006E74656E742D547970653A2074657874C7
:100220002F68746D6C0D0A0D0A3C68313E32303017
:10023000204F4B3C2F68313E0029002B0020280026
:100240004574682D6C696E6B20646F776E004E5438
:100250005020616E737765720077616974696E67AB
:1002600020666F72004757204950007761697469B2
:100270006E6720666F72004F4B003E0A4E65772016
:1002800070617373776F72643A203C696E70757435
:1002900020747970653D74657874206E616D653D7C
:1002A0006E703E0A0A50617373776F72643A202051
:1002B0002020203C696E70757420747970653D70E3
:1002C000617373776F7264206E616D653D70773E08
:1002D0003C696E70757420747970653D68696464FA
:1002E000656E206E616D653D66642076616C756536
:1002F0003D313E0A3C696E70757420747970653DBD
:100300007375626D69742076616C75653D6170709E
:100310006C793E3C2F666F726D3E0A3C2F707265A1
:100320003E003E0A4F666673657420746F20555414
:10033000433A3C696E70757420747970653D7465DC
:100340007874206E616D653D747A2076616C756598
:100350003D003E0A4E545020736572766572204906
:10036000503A3C696E70757420747970653D74659F
:100370007874206E616D653D6E732076616C756575
:100380003D003E0A44656661756C742047572049FC
:10039000503A3C696E70757420747970653D74656F
:1003A0007874206E616D653D67772076616C756548
:1003B0003D003C7072653E415652204E54502063C1
:1003C0006C6F636B2C20636F6E6669670A0A3C660C
:1003D0006F726D20616374696F6E3D2F636F6E661F
:1003E0006967206D6574686F643D6765743E436C32
:1003F0006F636B206F776E2049503A203C696E70B6
:10040000757420747970653D74657874206E616DC3
:10041000653D69702076616C75653D0048545450A7
:100420002F312E3020323030204F4B0D0A436F6E6B
:1004300074656E742D547970653A20746578742FE4
:1004400068746D6C0D0A507261676D613A206E6F51
:100450002D63616368650D0A0D0A0000010800063E
:100460000400014500004C000040004011E300047E
:10047000FA00010001000053756E4D6F6E547565F2
:10048000576564546875467269536174002530324B
:10049000753A253032753A2530327500257320259E
:1004A000752D253032752D253032750011241FBE73
:1004B000CFEFD4E0DEBFCDBF11E0A0E0B1E0E6E4D5
:1004C000F9E202C005900D92A834B107D9F713E004
:1004D000A8E4B1E001C01D92AF3AB107E1F70E9474
:1004E00041050C94A2140C940000CF93DF93DC011F
:1004F000FB0120E010C08081981759F4319680816B
:10050000882341F411968C918D3319F4FB0121E07D
:1005100001C0FB0111969C91992321F0903211F0BA
:10052000222349F3213011F080E018C0CFE7D3E057
:10053000FD0102C0299331968E2F8A1B2081222330
:1005400041F0203231F0263221F093E0C739D9074B
:1005500089F7E82FFF27E158FC4F10829927DF9198
:10056000CF910895982F80538A3010F499270895D9
:10057000892F8156863020F49755892F9927089521
:10058000892F8154863018F080E090E008959753C9
:10059000892F99270895FC01DC0190E008C08E3274
:1005A00021F08C3211F0819301C091E011968C9171
:1005B0008823A9F7992311F480E381931082089589
:1005C000CF92DF92FF920F931F93CF93DF936C0133
:1005D000EC011DC08B3211F480E215C0853299F414
:1005E0008E010F5F1F4FE8012196F80180810E9464
:1005F000B202F82EFF0CFF0CFF0CFF0CF8018181FA
:100600000E94B2028F29F60181936F0121968881A1
:10061000882301F7F6011082DF91CF911F910F918E
:10062000FF90DF90CF9008951F920F920FB60F9218
:1006300011248F939F93AF93BF9380914901909121
:100640004A01A0914B01B0914C010196A11DB11D31
:100650008093490190934A01A0934B01B0934C01C0
:10066000809145018F5F8093450180914D018823E2
:1006700021F010924D01299A04C081E080934D0130
:100680002998BF91AF919F918F910F900FBE0F90BE
:100690001F9018951092850010928400109280008F
:1006A0008DE0809381008FE2809389008EEA8093B1
:1006B000880082E080936F000895CF92DF92FF92CE
:1006C0000F931F93CF93DF93EC016B01FF2400E0A6
:1006D00010E0BE016F0D711DF601E00FF11F80816A
:1006E0004AE050E099270E94B61001C0F92EFE01A1
:1006F000EF0DF11D80819F2D9F5F8823B9F78EE25A
:100700008083F92E0F5F1F4F0430110511F79150B0
:10071000C90FD11D1882DF91CF911F910F91FF90CA
:10072000DF90CF900895CF93DF93C0E0D0E046E014
:1007300050E0BC018BE391E00E949910892B11F4E9
:10074000C1E0D0E0CE01DF91CF910895A4E0B0E008
:10075000ECEAF3E00C9454147C018B016E010894D4
:10076000C11CD11C9C2C85E0A82EB12CAC0EBD1E4A
:1007700022C00F5F1F4FF8012081822F992787FD2C
:100780009095C0970A9710F4A80105C0222389F715
:10079000FBCF0F5F1F4FF8012081822F80538A30DB
:1007A000C0F3222311F011928F01CA010E947B1025
:1007B000F60181936F019C2D9919F801808188239E
:1007C00019F0CA14DB04B9F6943049F48981F701B1
:1007D00080838A8181838B8182838C818383EBE018
:1007E00024960C947014CF93DF93EC0146E050E014
:1007F000BC0180E091E00E949910892B09F0A2C011
:1008000067E071E0CE010E947502882319F481E04F
:1008100090E09AC06AE071E0CE010E9475028823E0
:1008200009F490C08FE793E00E94E0028FE793E025
:100830000E949303882309F485C06DE071E0CE0126
:100840000E947502882331F06FE773E08FE291E038
:100850000E94A60360E171E0CE010E947502882328
:1008600031F06FE773E083E391E00E94A60363E158
:1008700071E0CE010E947502882331F06FE773E0CA
:1008800087E391E00E94A60366E171E0CE010E9439
:1008900075028823A1F08FE793E00E94E0028FE7C2
:1008A00093E00E94CB028FE793E00E947B109C01B3
:1008B00085579F4F8751914010F42093280169E19B
:1008C00071E0CE010E947502882371F08FE793E0FA
:1008D0000E94E00248E050E06FE773E08BE391E0B4
:1008E0000E94A7101092430183E1A0E0B0E0082E1F
:1008F0000E94911484E0EFE2F1E0A1E0B0E0182E54
:100900000E949D14E3E3F1E0A6E0B0E0182E0E94FF
:100910009D14E7E3F1E0ABE0B0E0182E0E949D14D7
:1009200080912801A0E1B0E0082E0E9491148AE095
:10093000EBE3F1E0A3E1B0E0182E0E949D1482E009
:1009400090E002C08FEF9FEFDF91CF910895CF939A
:10095000DF93DC01FC0101900020E9F73197E81BEF
:10096000E230ACF08E2F992787FD90951197ED011D
:10097000C80FD91F11962881203311F4188207C09F
:10098000FD01E80FF91F20838EE288831182DF9139
:10099000CF910895EF92FF920F931F93CF93DF9320
:1009A000EC014CE154E060E070E00E94A00942EBF1
:1009B00053E0BC01CE010E94A0098C016FE271E0FE
:1009C0008FE793E00E945D034FE753E0B801CE014B
:1009D0000E94B00942E853E0BC01CE010E94A00988
:1009E0008C0163E371E08FE793E00E945D034FE7C2
:1009F00053E0B801CE010E94B00942E553E0BC01CA
:100A0000CE010E94A0098C0167E371E08FE793E0BB
:100A10000E945D034FE753E0B801CE010E94B00988
:100A200042E253E0BC01CE010E94A0097C019091FA
:100A3000280197FF02C000E004C08BE280937F038F
:100A400001E0112701581C4F4AE050E0B801892FFE
:100A5000992787FD90950E94B610C8010E94A704AF
:100A60004FE753E0B701CE010E94B0094AE752E0D8
:100A7000BC01CE010E94A009E6E0CDB7DEB70C9420
:100A80007514CFECD4E0DEBFCDBF80E88093610069
:100A90001092610081E090E00E94510E52982098DF
:100AA000289A89E291E00E94A40D82E00E94E20C63
:100AB0008AE090E00E94510E219A299A189B2EC03C
:100AC000A0E0B0E00E948414802D833139F584E0E9
:100AD000EFE2F1E0A1E0B0E0182E0E948C14E3E315
:100AE000F1E0A6E0B0E0182E0E948C14E7E3F1E0FC
:100AF000ABE0B0E0182E0E948C14A0E1B0E00E94A0
:100B00008414802D809328018AE0EBE3F1E0A3E1D7
:100B1000B0E0182E0E948C141092420166E774E037
:100B200084E10E94C50C84E190E00E94510E8CE0AB
:100B30000E943B1081E00E94FC0F40E56FE271E0F3
:100B400089E291E00E947B080E944A0387E792E0D5
:100B50000E942D1010E00E94ED0C811113E680E937
:100B600091E00E94510E1F5F1F30A8F37894332448
:100B7000BB2473E6A72E6EE4C62E61E0D62E5BE1A1
:100B8000652E712C6C0E7D1E45E0442E512C4C0EB2
:100B90005D1E4E010894811C911C02C033243394C5
:100BA000B60180E392E00E94320D7C01009709F0CB
:100BB000CFC080914501882399F30E94ED0C8823D2
:100BC00009F442C081E08B1510F40CE701C000E28B
:100BD00080914501843008F444C03320B9F481E0A9
:100BE0000E94FC0F8BE692E00E942D1061E080E0F5
:100BF0000E940A1085E692E00E942D101092450195
:100C000063E371E0C6010E94AF0ACACFBB2061F561
:100C100081E00E94FC0F89E592E00E942D1061E0C6
:100C200080E00E940A108EE492E00E942D10109243
:100C30004501409148014F5F4093480167E371E0EF
:100C4000C6010E94330AACCF332051F481E00E94E8
:100C5000FC0F80E492E00E942D1010924501A0CF7D
:100C60000FE2BB2009F49CCF60912801772767FD34
:100C70007095872F972F28E631E040E050E00E94E2
:100C8000F8139B01AC016091490170914A01809178
:100C90004B0190914C01620F731F841F951F9301AC
:100CA000A2010E947B0E182FA81631F081E00E944D
:100CB000FC0FC2010E94201061E080E00E940A1037
:100CC000C3010E942010A11601F18DE392E00E9461
:100CD0002D108091280187FD04C08BE392E00E94D3
:100CE0002D10809128014AE050E0B401992787FD3A
:100CF00090950E94B610C4010E94A704C4010E94EE
:100D0000201089E392E00E942D1060E08FE00E94A5
:100D10000A10802F0E9412101A3319F432E0B32EF9
:100D200013C01B3389F482E0B81671F40F3251F00E
:100D3000409148014F5F4093480167E371E0C6016D
:100D40000E94330A23E0B22E10924501A12E28CF33
:100D5000BC01C6010E949F088823B9F0C6010E9409
:100D6000C608882319F0C6010E94F30BC6010E9431
:100D7000BC08882309F414CF63E371E0C6010E9424
:100D8000CB09882309F00ACF0BCFB701C6010E9417
:100D9000D008882309F404CF80916501813051F493
:100DA00080917001883009F0FBCEB701C6010E9426
:100DB000D50BF6CE863009F001C1809172018823EF
:100DC00009F0EECE80917301803509F0E9CE809173
:100DD0007D01992781FF04C0C6010E945E0BE0CE11
:100DE00084FFDECEC6010E947B090E946C098C0143
:100DF000009741F480917D0180FFD2CEC6010E9410
:100E00002D0BCECEBC01625B7E4F44E050E08CE106
:100E100091E00E949910892B29F04DEF51E060E09C
:100E200070E082C0B8016E5A7E4F42E050E081E22D
:100E300091E00E949910892B09F080C040ED51E0AB
:100E400060E070E0C6010E94A00943EB51E0BC01E4
:100E5000C6010E94A0098C01BB2009F46BC06091FF
:100E60002801772767FD7095872F972F28E631E0B7
:100E700040E050E00E94F8139B01AC0160914901F1
:100E800070914A0180914B0190914C01620F731F48
:100E9000841F951F9301A2010E947B0EA201B8013D
:100EA000C6010E94B00944E251E0BC01C6010E94A3
:100EB000B009A301BC01C6010E94B0094CEA51E08F
:100EC000BC01C6010E94A0098C018091280187FD08
:100ED00007C046E251E0B801C6010E94B0098C018A
:100EE000809128014AE050E0B401992787FD909550
:100EF0000E94B610C4010E94A704A401B801C60153
:100F00000E94B00949EA51E0BC01C6010E94A00953
:100F1000BC0181E08B1530F444E851E0C6010E9429
:100F2000A009BC014FE551E0C6010E94A0097C0167
:100F300010E027C049E251E0BC01F6CFC8018D5A4C
:100F40009E4F0E94F303182F8F3F29F449ED50E084
:100F500060E070E012C0813021F4C6010E94CA0432
:100F60000FC0823071F44CEA50E060E070E0C601DE
:100F70000E94A00944E750E0BC01C6010E94A009FC
:100F80007C01C6010E942D0BB701C6010E94FE0A1A
:100F9000123009F005CE40E56FE271E089E291E0A0
:100FA0000E947B0881E00E94FC0F88E690E00E948E
:100FB0002D103324BB2493E6A92EF2CD813109F004
:100FC000EFCD80917001882309F0EACD8091710105
:100FD0008B3709F0E5CD4091480169E471E0C60125
:100FE0000E94EB09882309F4DBCD8091490190919F
:100FF0004A01A0914B01B0914C019C01AD012058D8
:101000003E474A4A53482093490130934A0140934E
:101010004B0150934C01BB24B394C2CDEF92FF928D
:101020000F931F93FC01413081F4685070407B01A5
:1010300000271127685F7F4F21E130E040E050E05A
:10104000E20EF31E041F151F2DC0423021F0EE24C6
:10105000FF24870127C0685070407B0100271127BB
:10106000685F7F4F86E090E0A0E0B0E0E80EF91EF8
:101070000A1F1B1F17C080819927AA27BB27BA2FD9
:10108000A92F982F88272181332744275527822B82
:10109000932BA42BB52BE80EF91E0A1F1B1F3296AB
:1010A000625070406230710530F7672BA9F0808183
:1010B0009927AA27BB27BA2FA92F982F882708C0BE
:1010C0002FEF3FEF40E050E0E222F322042315230C
:1010D000E80EF91E0A1F1B1FC801AA27BB2700978D
:1010E000A105B10569F7C701809590951F910F91F2
:1010F000FF90EF900895CF93DF93EC01FB014093B5
:10110000460180818093A80381818093A903828115
:101110008093AA0383818093AB0320E030E0F90140
:10112000E456FC4FDE01A20FB31F8C9180832F5F2A
:101130003F4F2630310599F7DF91CF910895FC019B
:1011400069327105B0F08485883099F485858630E0
:1011500081F4B696A8EAB3E090818C91981749F48F
:101160003196119683E0AC3AB807B1F781E090E090
:10117000089580E090E0089520E030E0FC0185894A
:10118000823011F421E030E0C901089520E030E020
:10119000FC018589813011F421E030E0C901089516
:1011A000FC016A327105C0F084858830A9F4858518
:1011B000882391F48685853479F4A8EAB3E0968D86
:1011C0008C91981749F43196119683E0AC3AB807A0
:1011D000B1F781E090E0089580E090E00895FC018F
:1011E000ACE9B3E0868180838D918683319683E07C
:1011F000A23AB807B9F708950F931F938C01FC0129
:10120000108E118E80E4848B158A868B40E064E119
:1012100070E0C8010E960E940E08292F3327F801AE
:10122000208F818F1F910F9108959C01FC01A8EAE6
:10123000B3E0828D868F8D91828F319683E0AC3AB8
:10124000B807B9F7C9010E94FC0808950F931F93CE
:10125000CF93DF93FC0182A184A312A283A185A373
:1012600013A28091460183A38F01075D1F4FD80110
:1012700094E08C91680F711DED018C816C832223A9
:1012800011F08C9301C01C9291501197992319F081
:10129000672F7727EECF222351F416A217A2809151
:1012A000470180A7D8011C928E5F8093470112AA44
:1012B00013AA442351F082E086AB84E087AB85E03B
:1012C00080AF80E881AF80E601C080E586A7DF912E
:1012D000CF911F910F910895809198039091990358
:1012E000892B19F480E090E0089580919A03909101
:1012F0009B0382960895FC0120893327322F2227F1
:1013000081899927282B392B2451304086A5829535
:101310008F709927880F991F880F991F90939B03AF
:1013200080939A03281B390B3093990320939803D9
:101330001216130624F01092990310929803089540
:10134000DC01D696A60FB71F03C08D936F5F7F4F4A
:10135000FA014F5F5F4F84918823B9F7CB0108955D
:10136000DA01FC01F696E60FF71F04C081936F5F68
:101370007F4F11968C918823C9F7CB010895DC012A
:10138000FA0105C084918D933196615070406115CA
:101390007105C1F70895CF93DF93EC01DB01FC01E8
:1013A00020E0948D8C91981719F080E090E010C0A7
:1013B0002F5F319611962430A1F7E2EAF3E08E898F
:1013C0008193219683E0E83AF807C9F781E090E03D
:1013D000DF91CF910895CF93DF93FC01EB0144237C
:1013E00019F085A18417D1F586A18823B9F587A1C5
:1013F0008833A1F583A18B3789F5EE5AFF4F2191F0
:10140000332744275527522F44273327222780810B
:101410009927AA27BB27DC0199278827282B392B56
:101420004A2B5B2B329680819927AA27BB27282B32
:10143000392B4A2B5B2B82919927AA27BB27BA2FDE
:10144000A92F982F8827282B392B4A2B5B2B2883F1
:1014500039834A835B8381E090E002C080E090E0C2
:10146000DF91CF910895A0E0B0E0E9E3FAE00C94B9
:101470005614EC017B01B42E8C01DC0120E030E03D
:10148000F901EE55FC4F80818C93F901E456FC4F35
:101490008081FD0186832F5F3F4F119626303105F5
:1014A00079F788E08C871D8643E654E06AE070E0B7
:1014B000CE010E960E94BF0920E030E0AE01465EEC
:1014C0005F4FF701E20FF31F8081F801868F6A01F9
:1014D000F901E855FC4F8081F801828F2F5F3F4F63
:1014E0000F5F1F4F2430310561F7CE010E94FC08C9
:1014F0001CA28BE78DA38AE08AA3BBA21EA288E36D
:101500008FA3F8E2EF2EF12CEC0EFD1E18A68E0133
:10151000075D1F4F19A6CE018A96FC0120E01192AB
:101520002F5F2033E1F74DE654E06AE070E00E945F
:10153000BF0941E060E470E0C6010E940E08292F57
:101540003327F7012083F8018083BE018AE590E00C
:101550000E94F90CE9E0CDB7DEB70C947214A0E05C
:10156000B0E0E5EBFAE00C945714EC016B018C0150
:10157000ACE9EA2EA3E0FA2EFC01D7018FEF8083BD
:101580008D918683319683E0A23AB807B9F788E057
:101590008C8786E08D874BE554E068E070E0CE01F3
:1015A0000E960E94BF09F70181917F01F801868B99
:1015B00010A20F5F1F4FF2EAEF16F3E0FF0699F754
:1015C000DE015C9620E030E0F601E20FF31F80813F
:1015D000FD018287F901E855FC4F80818D932F5FD3
:1015E0003F4F2430310581F7BE018AE290E00E942E
:1015F000F90CE8E0CDB7DEB70C947314EF92FF92CC
:101600000F931F938C017B0189E1F80187A79B0150
:10161000285D3F4F832F9927808B218BC8010E9423
:10162000FC08F80112AA13AA8CE190E0E80EF91E5A
:1016300042E0B701C8014A960E940E08292F3327BD
:10164000F80122AB83ABB801C7014A960E94F90C9E
:101650001F910F91FF90EF900895CF93DF93EC01CE
:101660000E94EF0880E18FA7609198037091990321
:101670006115710529F421E040E061E070E002C0ED
:1016800021E040E0CE010E942609188A88E2898B79
:10169000CE010E94150942E06CE170E0CE014A964D
:1016A0000E940E08292F33272AAB8BABBE0186E39D
:1016B00090E00E94F90CDF91CF9108950F931F9352
:1016C0008C010E94EF08F801108A8CE2818BC8011E
:1016D0000E94150982E1F80187A720E041E061E05E
:1016E00070E0C8010E94260942E060E270E0C80193
:1016F0004A960E940E08292F3327F80122AB83ABAC
:10170000B8018AE390E00E94F90C1F910F910895AF
:10171000A0E0B0E0EEE8FBE00C945514EC015B01B6
:10172000142F79010E94EF081D3D08F01CED188A66
:10173000145E198BCE010E9415098F2D99278CA359
:10174000EDA21EA214511FA3185068E2C62ED12C80
:10175000CC0EDD1E18A659E2E52EF12CEC0EFD1E76
:1017600019A6D501FE01BA9690E003C08D91819330
:101770009F5F9117D9F7012F1127005F1F4F41E09D
:10178000B801CE014A960E940E08292F3327F60190
:101790002083F7018083BE01C8014A960E94F90C9C
:1017A000EAE0CDB7DEB70C9471140F931F93CF937B
:1017B000DF93EC018B010E94EF08CE010E94150916
:1017C0001AA28CA1883F18F08DA18F5F8DA38CA1E8
:1017D000885F8CA3BE01C8010E94F90CDF91CF91F4
:1017E0001F910F910895CF93DF93EC010E94EF08B2
:1017F0001C8A82E08D8BFE01ACE9B3E0868980A370
:101800008D91868B319683E0A23AB807B9F7FE0135
:101810007C96A8EAB3E0808182878D91819383E0F2
:10182000AC3AB807C1F7BE018AE290E00E94F90C19
:10183000DF91CF9108952A98962F9F71982B9EBD86
:101840000DB407FEFDCF1EBC0DB407FEFDCF67FF34
:1018500004C01EBC0DB407FEFDCF2A9A8EB5992791
:1018600008952A986F71682B6EBD0DB407FEFDCFE9
:101870004EBD0DB407FEFDCF2A9A0895AC01FB01C1
:101880002A988AE38EBD0DB407FEFDCF9A01DF01D1
:1018900008C01EBC0DB407FEFDCF215030408EB5F0
:1018A0008D9321153105A9F7E40FF51F10822A9AAF
:1018B00008959C01FB012A988AE78EBD0DB407FCB0
:1018C00009C0FCCF2150304080818EBD0DB407FE91
:1018D000FDCF319621153105A9F72A9A08951F9356
:1018E000CF93DF93182FC82FDD27C076D07080915B
:1018F000AC039927C817D90791F043E06FE180EA5C
:101900000E94310C85E0D595C7958A95E1F74C2F5B
:101910006FE180E80E94310C10761093AC03DF91E8
:10192000CF911F9108951F93182F0E946F0C612F64
:1019300080E00E941B0C99271F9108950F931F931D
:10194000082F162F0E946F0C412F602F80E40E94F9
:10195000310C1F910F910895682F84ED0E949E0C09
:1019600061E082ED0E949E0C8EE38A95F1F78AEE8B
:101970000E94930C80FDFBCF60E082ED0E949E0CE4
:1019800089ED0E94930C992708950F931F938B0163
:10199000682F84ED0E949E0C602F86ED0E949E0CA5
:1019A000012F1127602F87ED0E949E0C03C08EE34C
:1019B0008A95F1F78AEE0E94930C80FDF8CF1F9173
:1019C0000F9108958770682F85E70E949E0C0895F7
:1019D00082E70E94930C9927089581E10E94AC0C44
:1019E00020E0892B09F421E081E02827822F992724
:1019F0000895EF92FF920F931F938C017B016FEF7D
:101A000082E00E949E0C69E183E00E949E0C602FA0
:101A1000615086E00E949E0C0150164E612F772780
:101A20000F5F194187E00E949E0C40E060E08AE76A
:101A30000E94310CB701C8010E94590C48E06FE1C7
:101A400080E80E94310C8CE10E94930C81FF05C05C
:101A500048E06FE180EA0E94310C1F910F91FF90E6
:101A6000EF900895A0E0B0E0E8E3FDE00C94551499
:101A70006C015B0189E30E94930C882319F400E058
:101A800010E05CC00091AD031091AE03602F80E0C8
:101A90000E949E0C012F1127602F81E00E949E0C56
:101AA00060E08AE30E941B0C082F60E08AE30E943A
:101AB0001B0C9927D82FCC271127C02BD12BD093C3
:101AC000AE03C093AD0360E08AE30E941B0CE82ED6
:101AD00060E08AE30E941B0CF82E60E08AE30E941B
:101AE0001B0C082F112760E08AE30E941B0C07FDE6
:101AF00003C000E010E014C02E2D33278F2D99274E
:101B0000182F0027022B132BC601019704501040F9
:101B10008017910708F48C01B501C8010E943E0CA2
:101B20006C2F8CE00E949E0C6D2F77278DE00E9419
:101B30009E0C40E46EE180E80E94310CC801EAE0AE
:101B4000CDB7DEB70C9471140F931F938C01229ABA
:101B50002A9A84B1886284B924982B982D9880E5BC
:101B60008CBD8DB581608DBD4FEF60E08FEF0E9421
:101B7000310C82E390E00E94510E1092AE0310925D
:101B8000AD0360E088E00E949E0C60E089E00E9466
:101B90009E0C60E08CE00E949E0C60E08DE00E9454
:101BA0009E0C6EEF8AE00E949E0C69E18BE00E9421
:101BB0009E0C6FEF84E00E949E0C69E185E00E941C
:101BC0009E0C6FEF86E00E949E0C6FE187E00E9402
:101BD0009E0C60EB88E30E949E0C6FE388E20E94FB
:101BE0009E0C60E389E20E949E0C69EF80E30E94F4
:101BF0009E0C67EF81E30E949E0C6DE080EC0E94DA
:101C00009E0C60E081EC0E949E0C42E362EC80E856
:101C10000E94310C62E186EC0E949E0C6CE087EC25
:101C20000E949E0C62E184EC0E949E0C6CED8AEC9A
:101C30000E949E0C65E08BEC0E949E0CF801608176
:101C400084EE0E949E0CF801618185EE0E949E0C3C
:101C5000F801628182EE0E949E0CF801638183EE9E
:101C60000E949E0CF801648180EE0E949E0CF80197
:101C7000658181EE0E949E0C60E071E080E10E942F
:101C8000C50C8FE10E946F0C40EC6BE180E80E9474
:101C9000310C44E06FE180E80E94310C1F910F91FC
:101CA00008959C0106C088EB9BE00197F1F7215055
:101CB000304021153105B9F7089588E190E02FE013
:101CC0000FB6F894A895809360000FBE2093600033
:101CD0000895A8950895613019F4845E99270895B0
:101CE000673008F0615060FF03C08EE190E0089516
:101CF0008FE190E00895AAE0B0E0E1E8FEE00C9406
:101D00004D147B018C0158874F833A87298720E83F
:101D100031E541E050E00E942B144B015C01C80109
:101D2000B70120E831E541E050E00E942B14890121
:101D3000C901049667E070E00E941714482E92EBE8
:101D4000E92E97E0F92E1AC0CD2889F4C70164E680
:101D500070E00E941714892B39F4C70160E971E023
:101D60000E941714892B19F48EE691E002C08DE6CB
:101D700091E0081B190B0894E11CF11C83E0C82EAC
:101D8000D12CCE20DF20C114D10489F4C70164E630
:101D900070E00E941714892B39F4C70160E971E0E3
:101DA0000E941714892B19F48EE691E002C08DE68B
:101DB00091E00817190740F6C70164E670E00E9439
:101DC00017149E838D83C70160E971E00E94171488
:101DD0001C016624772419C0C114D10419F080E0D5
:101DE00090E00BC08D819E81892B29F480E090E0EA
:101DF0002114310411F481E090E0652D0E946B0EF6
:101E0000081B11090894611C711C562CC114D104C3
:101E100019F080E090E00BC08D819E81892B29F420
:101E200080E090E02114310411F481E090E0652D10
:101E30000E946B0E99270817190770F683E0489ED9
:101E4000F0011124E958FB4FDE011196AD019E010E
:101E50002C5F3F4F84918D933196A217B307D1F732
:101E60001C820F5F1F4F1F930F93852D992701969B
:101E70009F938F93FF92EF925F934F938CE994E03F
:101E80009F938F938F8198859F938F930E94DF10EC
:101E9000C501B40120E13EE040E050E00E942B1477
:101EA0002CE330E040E050E00E942B1479018A01DD
:101EB000FF24C501B4012CE330E040E050E00E9473
:101EC0002B1477277F936F93FF92EF92C501B40194
:101ED00020E13EE040E050E00E942B1433273F9386
:101EE0002F938DE894E09F938F9389859A859F9394
:101EF0008F930E94DF108DB79EB746960FB6F89469
:101F00009EBF0FBE8DBFC701E2E12A960C946914F3
:101F10009C0106C088EB9BE00197F1F7215030400F
:101F200021153105B9F7089587FF02C0589A01C0FD
:101F30005898992786FF02C0599A01C0599885FF81
:101F400002C05B9A01C05B9884FF02C05C9A08954E
:101F50005C9808955D9A84E18A95F1F75D9884E034
:101F60008A95F1F70895FF920F931F93082FF62E8D
:101F7000509A519A539A549A10E1812F8A95F1F709
:101F8000802F0E94940F1A95F1F7FF2011F05E9AAE
:101F900001C05E980E94AA0F802F992783FF02C07C
:101FA000589A01C0589882FF02C0599A01C05998A6
:101FB00081FF02C05B9A01C05B9880FF02C05C9AFF
:101FC00001C05C9880E18A95F1F7FF2011F05E9ADC
:101FD00001C05E980E94AA0F1F910F91FF90089573
:101FE00095E29A95F1F7882321F082E090E00E9433
:101FF000880F80E090E008951F93182F80E00E94E2
:10200000F00F60E0812F0E94B30F81E00E94F00F7B
:102010001F910895662311F4805801C080540E94D6
:10202000FC0F08951F93182F80E00E94F00F61E0CD
:10203000812F0E94B30F80E00E94F00F1F9108953E
:10204000CF93DF93EC0103C00E9412102196888188
:102050008823D1F7DF91CF910895CF93DF93EC01DF
:1020600002C00E941210FE01219684918823C9F7B4
:10207000DF91CF9108951F93182F509A519A539A38
:10208000549A569A559A8CE090E00E94880F80E30B
:102090000E94940F0E94AA0F82E090E00E94880F95
:1020A00080E30E94940F0E94AA0F82E090E00E94B9
:1020B000880F80E30E94940F0E94AA0F82E090E0B4
:1020C0000E94880F80E20E94940F0E94AA0F88E26B
:1020D0000E94FC0F88E00E94FC0F81E00E94FC0F30
:1020E00086E00E94FC0F812F0E94FC0F81E00E947D
:1020F000F00F1F910895FC0188279927E8942191FA
:102100002032E9F3293010F02E30C8F32B3241F0A1
:102110002D3239F4689404C00E94D710820F911DAB
:10212000219120532A30C0F31EF4909581959F4F42
:102130000895FB01DC014150504030F08D91019039
:10214000801919F40020B9F7881B990B0895FB0139
:10215000DC014150504048F001900D920020C9F739
:1021600001C01D9241505040E0F70895FB019F01CE
:10217000E8944230C4F04532B4F44A3029F497FB75
:102180001EF4909581959F4F642F77270E94171416
:10219000805D8A330CF0895D8193CB010097A1F7B4
:1021A00016F45DE251931082C9010C94BB137AE0DE
:1021B000979F902D879F802D910D11240895A0E168
:1021C000B0E0E5EEF0E10C945B140F89188D8EE021
:1021D0008E831C830B838FEF9FE798878F83AE01DD
:1021E000455E5F4F5A834983698D7A8DCE01039690
:1021F0000E94041129853A85020F131FF8011082ED
:10220000E4E060960C947714A7E1B0E0EAE0F1E135
:102210000C944D148824992454012C017C8B6B8BD5
:102220003A01FC0117821682838181FD03C08FEF82
:102230009FEF7EC2CC24DD249E012F5F3F4F3F8B5A
:102240002E8B65C2C0FE48C2832D80538A30D8F4DD
:1022500030E3331641F48D85882329F4C3FC03C091
:10226000E0E0F1E073C08AE0FD85F802C0011124CE
:102270008053830D8D8787FF02C02FE72D87C3FC16
:1022800040C22D843EC2960128703070C3FE05C046
:102290008D85882311F491E09D87E7E6E3156CF1C5
:1022A000F5E63F160CF068C083E5381609F489C0DE
:1022B0008315BCF09BE2391609F442C093154CF02B
:1022C000E0E23E1609F440C0F3E23F1609F0FCC11B
:1022D00043C02DE23216E9F13EE2331609F0F4C1B3
:1022E00040C083E6381609F44DC083150CF481C054
:1022F00098E5391609F0E8C120C0E0E73E1609F478
:10230000A2C0E3155CF0FCE63F1689F12FE6321619
:1023100089F039E6331609F0D7C16BC085E7381666
:1023200009F499C098E7391641F0E3E73E1609F041
:10233000CBC130C0F8E0F88B8EC020E1288B8BC079
:1023400080E190E0C82AD92AE0E2F0E0CE2ADF2A34
:10235000D8C120E830E00DC080E490E0C82AD92A36
:10236000D0C1E8E0F0E0CE2ADF2A1D86CAC124E011
:1023700030E0C22AD32AC5C13FE3832E2A9423E644
:10238000322E30C1F30180802A9422E030E0620EC8
:10239000731E28C1F301A081B1814D01232B49F0A7
:1023A000FD856F2F772767FD7095CD010E94B013D3
:1023B00018C0FD0101900020E9F73197EA1BE88B76
:1023C00011C0F301808191814C01232B41F0FD85E7
:1023D0006F2F772767FD70950E94A51302C00E949A
:1023E0009C13888B22E030E0620E731E3889231A1A
:1023F000F9C0C2FE08C0F30180819181A281B3813E
:1024000024E030E009C0F30180819181AA2797FD83
:10241000A095BA2F22E030E0620E731E4C015D01E0
:10242000B7FF0CC082E090E0C82AD92AB094A094EB
:1024300090948094811C911CA11CB11CEFEBFFEFC8
:10244000CE22DF2221C020E430E0C22AD32A98E73E
:10245000392E30E1388BC2FE08C0F30180819181B2
:10246000A281B38124E030E007C0F3018081918133
:10247000AA27BB2722E030E0620E731E4C015D01EB
:102480008FEC9FEFC822D92285017401FE0131969D
:10249000FF87EE87F8898F2E9924AA24BB24232D49
:1024A00021522D8BC801B701A50194010E942B1464
:1024B0006A301CF03D89630F01C0605DEE85FF85C9
:1024C0006193FF87EE87C801B701A50194010E94BF
:1024D0002B1479018A01211531054105510511F7A8
:1024E0008824992454014E85FE894F1B842EC601F1
:1024F00082739070892B09F02A94C6FE07C0288940
:10250000203111F482E001C081E0281AC3FE12C01C
:102510008D85282F332727FD3095842F9927821703
:1025200093072CF0E7EFFFEFCE22DF2203C0FD85FB
:10253000F41BFD87860108701070C3FE03C02D8553
:10254000221A01C0241AC60180789170892B31F0BB
:102550000AC0B20180E290E00E94CB132A94822D3F
:102560008F5F1816B4F3C1FE04C0B2018DE290E093
:102570000BC0C4FE04C0B2018BE290E005C0C5FEF2
:1025800005C0B20180E290E00E94CB13C6FE0FC0EE
:10259000B20180E390E00E94CB133889303139F4E6
:1025A000B201832D992787FD90950E94CB13D0FC13
:1025B00006C00AC0B20180E390E00E94CB132A94C7
:1025C000822D8F5F1816B4F3012B31F40BC0B201CA
:1025D00080E390E00E94CB138D8581508D878F5FC3
:1025E0001816ACF3F601E078F070FA8BE98BC7FEB1
:1025F00006C00AC0B20180E290E00E94CB132A9488
:10260000822D8F5F1816B4F3F3E63F1641F4B20142
:10261000882D992787FD90950E94CB1345C023E70D
:102620003216B1F464017401188909C0F70181916F
:102630007F01B201992787FD90950E94CB1311501D
:10264000A8F74601F8898F0E911C2FEF288B2CC01C
:1026500033E5331619F00E851F851FC06401840110
:10266000F88808C0F8018491B20199270E94CB1321
:102670000F5F1F4FFA94FFEFFF16A1F7460128895D
:10268000820E911CF88B10C0F80182918F01B2016B
:10269000992787FD90950E94CB132E893F890217B9
:1026A000130791F71F870E8789899A89892B31F43F
:1026B00026C0B20180E290E00E94CB132A94822DC2
:1026C0008F5F1816B4F31BC0B201832D992787FDC5
:1026D00090950E94CB1313C095E2391641F4EAE0BD
:1026E000E88B22241D8681E0C82ED12C0AC0B201BD
:1026F000832D992787FD90950E94CB1302C0CC248F
:10270000DD242B893C892F5F3F4F3C8B2B8BF201C3
:10271000838183FF04C0EB89FC89349003C0EB897B
:10272000FC893080332009F08DCDF20186819781BC
:10273000E2E167960C946914FC0105900020E9F72A
:10274000809590958E0F9F1F0895FC010590615014
:1027500070400110D8F7809590958E0F9F1F0895B7
:10276000FC016150704001900110D8F78095909560
:102770008E0F9F1F0895DC01FC01672F7191772355
:10278000E1F7329704C07C916D9370836291AE172C
:10279000BF07C8F308950F931F93CF93DF938C0166
:1027A000EB018B81992781FF1BC082FF0DC02E8119
:1027B0003F818C819D812817390764F4E881F98174
:1027C0000193F983E88306C0E885F985802F099590
:1027D000892B31F48E819F8101969F838E8302C065
:1027E0000FEF1FEFC801DF91CF911F910F91089557
:1027F000629FD001739FF001829FE00DF11D649FE5
:10280000E00DF11D929FF00D839FF00D749FF00D70
:10281000659FF00D9927729FB00DE11DF91F639F11
:10282000B00DE11DF91FBD01CF0111240895AA1BB0
:10283000BB1B51E107C0AA1FBB1FA617B70710F0AB
:10284000A61BB70B881F991F5A95A9F780959095DD
:10285000BC01CD010895A1E21A2EAA1BBB1BFD01EC
:102860000DC0AA1FBB1FEE1FFF1FA217B307E4076F
:10287000F50720F0A21BB30BE40BF50B661F771FC7
:10288000881F991F1A9469F76095709580959095A7
:102890009B01AC01BD01CF0108952F923F924F9251
:1028A0005F926F927F928F929F92AF92BF92CF92E0
:1028B000DF92EF92FF920F931F93CF93DF93CDB7E9
:1028C000DEB7CA1BDB0B0FB6F894DEBF0FBECDBF61
:1028D00009942A88398848885F846E847D848C8432
:1028E0009B84AA84B984C884DF80EE80FD800C813B
:1028F0001B81AA81B981CE0FD11D0FB6F894DEBF1E
:102900000FBECDBFED010895F999FECFB2BDA1BDB7
:10291000F89A119600B40895F7DF01921A94E1F73E
:102920000895F999FECFB2BDA1BD00BC11960FB6B6
:10293000F894FA9AF99A0FBE08950190F2DF1A946A
:06294000E1F70895FFCF4E
:10294600636F6E6669670066640070770069700081
:102956006777006E7300747A006E700047455420E6
:10296600002F20000A002B000A5455581000280A90
:1029760000001C0A00000211FE001F7365637265E9
:08298600740000000001500A7A
:00000001FF
