:100000000C9456020C9473020C9473020C947302B9
:100010000C9473020C9473020C9473020C9473028C
:100020000C9473020C9473020C9473020C941403DA
:100030000C9473020C9473020C9473020C9473026C
:100040000C9473020C9473020C9473020C9473025C
:100050000C9473020C9473020C9473020C9473024C
:100060000C9473020C9473027570646174696E670A
:100070002E2E2E003C703E4F4B2C2076616C756509
:100080007320757064617465642E3C62723E3C61DD
:1000900020687265663D222F223E636F6E74696E22
:1000A00075653C2F613E3C2F703E0A004854545009
:1000B0002F312E3020323030204F4B0D0A436F6EDF
:1000C00074656E742D547970653A20746578742F58
:1000D00068746D6C0D0A0D0A00485454502F312E6F
:1000E000302034303120556E617574686F72697AD2
:1000F00065640D0A436F6E74656E742D5479706576
:100100003A20746578742F68746D6C0D0A0D0A3C82
:1001100068313E34303120556E617574686F726994
:100120007A65643C2F68313E0057616974696E6777
:1001300020666F72204E545020616E737765722E68
:100140002E2E3C62723E3C6120687265663D222E16
:100150002F223E726566726573683C2F613E003CDB
:100160002F7072653E0A3C62723E3C612068726587
:10017000663D222E2F223E726566726573683C2FA3
:10018000613E0A000A4C617374206E7470207379AA
:100190006E63206973206F6C646572207468616E91
:1001A000203120686F75720A00290A0020285554F2
:1001B0004320003C68323E415652204E545020634A
:1001C0006C6F636B3C2F68323E3C7072653E0A0078
:1001D000485454502F312E3020323030204F4B0DA8
:1001E0000A436F6E74656E742D547970653A20748D
:1001F0006578742F68746D6C0D0A0D0A00485454AC
:10020000502F312E3020323030204F4B0D0A436FAB
:100210006E74656E742D547970653A2074657874C7
:100220002F68746D6C0D0A0D0A3C68313E32303017
:10023000204F4B3C2F68313E0029002B0020280026
:100240004574682D6C696E6B20646F776E004E5438
:100250005020616E737765720077616974696E67AB
:1002600020666F72004757204950007761697469B2
:100270006E6720666F72004F4B003E0A4E65772016
:1002800070617373776F72643A203C696E70757435
:1002900020747970653D74657874206E616D653D7C
:1002A0006E703E0A0A50617373776F72643A202051
:1002B0002020203C696E70757420747970653D70E3
:1002C000617373776F7264206E616D653D70773E08
:1002D0003C696E70757420747970653D68696464FA
:1002E000656E206E616D653D66642076616C756536
:1002F0003D313E0A3C696E70757420747970653DBD
:100300007375626D69742076616C75653D6170709E
:100310006C793E3C2F666F726D3E0A3C2F707265A1
:100320003E003E0A4F666673657420746F20555414
:10033000433A3C696E70757420747970653D7465DC
:100340007874206E616D653D747A2076616C756598
:100350003D003E0A4E545020736572766572204906
:10036000503A3C696E70757420747970653D74659F
:100370007874206E616D653D6E732076616C756575
:100380003D003E0A44656661756C742047572049FC
:10039000503A3C696E70757420747970653D74656F
:1003A0007874206E616D653D67772076616C756548
:1003B0003D003C7072653E415652204E54502063C1
:1003C0006C6F636B2C20636F6E6669670A0A3C660C
:1003D0006F726D20616374696F6E3D2F636F6E661F
:1003E0006967206D6574686F643D6765743E436C32
:1003F0006F636B206F776E2049503A203C696E70B6
:10040000757420747970653D74657874206E616DC3
:10041000653D69702076616C75653D0048545450A7
:100420002F312E3020323030204F4B0D0A436F6E6B
:1004300074656E742D547970653A20746578742FE4
:1004400068746D6C0D0A507261676D613A206E6F51
:100450002D63616368650D0A0D0A00E30004FA006C
:1004600001000100004500004C0000400040110068
:100470000108000604000153756E4D6F6E547565DA
:10048000576564546875467269536174002530324B
:10049000753A253032753A2530327500257320259E
:1004A000752D253032752D253032750011241FBE73
:1004B000CFEFD4E0DEBFCDBF11E0A0E0B1E0EEE2CF
:1004C000F9E202C005900D92AA34B107D9F713E002
:1004D000AAE4B1E001C01D92A13BB107E1F70E947F
:1004E0003C050C9496140C940000CF93DF93DC0130
:1004F000FB0120E010C08081981759F4319680816B
:10050000882341F411968C918D3319F4FB0121E07D
:1005100001C0FB0111969C91992321F0903211F0BA
:10052000222349F3213011F080E018C0C1E8D3E064
:10053000FD0102C0299331968E2F8A1B2081222330
:1005400041F0203231F0263221F093E0C939D90749
:1005500089F7E82FFF27EF57FC4F10829927DF918B
:10056000CF910895982F80538A3010F499270895D9
:10057000892F8156863020F49755892F9927089521
:10058000892F8154863018F080E090E008959753C9
:10059000892F99270895FC01DC0190E008C08E3274
:1005A00021F08C3211F0819301C091E011968C9171
:1005B0008823A9F7992311F480E381931082089589
:1005C000CF92DF92FF920F931F93CF93DF936C0133
:1005D000EC011DC08B3211F480E215C0853299F414
:1005E0008E010F5F1F4FE8012196F80180810E9464
:1005F000B202F82EFF0CFF0CFF0CFF0CF8018181FA
:100600000E94B2028F29F60181936F0121968881A1
:10061000882301F7F6011082DF91CF911F910F918E
:10062000FF90DF90CF9008951F920F920FB60F9218
:1006300011248F939F93AF93BF9380914B0190911F
:100640004C01A0914D01B0914E010196A11DB11D2B
:1006500080934B0190934C01A0934D01B0934E01B8
:10066000809146018F5F8093460180914F018823DE
:1006700021F010924F01299A04C081E080934F012C
:100680002998BF91AF919F918F910F900FBE0F90BE
:100690001F9018951092850010928400109280008F
:1006A0008DE0809381008FE2809389008EEA8093B1
:1006B000880082E080936F000895CF92DF92FF92CE
:1006C0000F931F93CF93DF93EC016B01FF2400E0A6
:1006D00010E0BE016F0D711DF601E00FF11F80816A
:1006E0004AE050E099270E94AA1001C0F92EFE01AD
:1006F000EF0DF11D80819F2D9F5F8823B9F78EE25A
:100700008083F92E0F5F1F4F0430110511F79150B0
:10071000C90FD11D1882DF91CF911F910F91FF90CA
:10072000DF90CF900895CF93DF93C0E0D0E046E014
:1007300050E0BC018CE391E00E948D10892B11F4F4
:10074000C1E0D0E0CE01DF91CF910895A4E0B0E008
:10075000ECEAF3E00C9448147C018B016E010894E0
:10076000C11CD11C9C2C85E0A82EB12CAC0EBD1E4A
:1007700022C00F5F1F4FF8012081822F992787FD2C
:100780009095C0970A9710F4A80105C0222389F715
:10079000FBCF0F5F1F4FF8012081822F80538A30DB
:1007A000C0F3222311F011928F01CA010E946F1031
:1007B000F60181936F019C2D9919F801808188239E
:1007C00019F0CA14DB04B9F6943049F48981F701B1
:1007D00080838A8181838B8182838C818383EBE018
:1007E00024960C946414CF93DF93EC0146E050E020
:1007F000BC0180E091E00E948D10892B09F0A4C01B
:1008000067E071E0CE010E947502882319F481E04F
:1008100090E09CC06AE071E0CE010E9475028823DE
:1008200009F492C081E893E00E94E00281E893E03D
:100830000E949303882309F487C06DE071E0CE0124
:100840000E947502882331F061E873E080E391E053
:100850000E94A60360E171E0CE010E947502882328
:1008600031F061E873E084E391E00E94A60363E164
:1008700071E0CE010E947502882331F061E873E0D7
:1008800088E391E00E94A60366E171E0CE010E9438
:1008900075028823B1F081E893E00E94E00281E8CC
:1008A00093E00E94CB0281E893E00E946F109C01CC
:1008B00085579F4F8751914020F430932901209311
:1008C000280169E171E0CE010E947502882371F070
:1008D00081E893E00E94E00248E050E061E873E0C4
:1008E0008CE391E00E949B101092440183E1A0E010
:1008F000B0E0082E0E94851484E0E0E3F1E0A1E07E
:10090000B0E0182E0E949114E4E3F1E0A6E0B0E01C
:10091000182E0E949114E8E3F1E0ABE0B0E0182E4D
:100920000E94911480912801A0E1B0E0082E0E945D
:1009300085148AE0ECE3F1E0A3E1B0E0182E0E9418
:10094000911482E090E002C08FEF9FEFDF91CF9192
:100950000895CF93DF93DC01FC0101900020E9F7BB
:100960003197E81BE230ACF08E2F992787FD9095E8
:100970001197ED01C80FD91F11962881203311F46A
:10098000188207C0FD01E80FF91F20838EE28883DB
:100990001182DF91CF9108950F931F93CF93DF932F
:1009A000EC014CE154E060E070E00E94530A42EB3D
:1009B00053E0BC01CE010E94530A8C0160E371E058
:1009C00081E893E00E945D0341E853E0B801CE0165
:1009D0000E94630A42E853E0BC01CE010E94530A20
:1009E0008C0164E371E081E893E00E945D0341E8DB
:1009F00053E0B801CE010E94630A42E553E0BC0116
:100A0000CE010E94530A8C0168E371E081E893E013
:100A10000E945D0341E853E0B801CE010E94630AE1
:100A200042E253E0BC01CE010E94530A8C012091A6
:100A300028013091290137FD03C08BE280938103A7
:100A40004AE050E062E873E0C9010E94AA1082E81F
:100A500093E00E94A90441E853E0B801CE010E944E
:100A6000630A4AE752E0BC01CE010E94530ADF91BB
:100A7000CF911F910F910895CFECD4E0DEBFCDBF91
:100A800080E8809361001092610081E090E00E9414
:100A9000430E52982098289A8AE291E00E94B60C60
:100AA00082E00E94B00C8AE090E00E94430E219AFE
:100AB000299A189B31C0A0E0B0E00E947814802DE4
:100AC000833151F584E0E0E3F1E0A1E0B0E0182EDD
:100AD0000E948014E4E3F1E0A6E0B0E0182E0E944A
:100AE0008014E8E3F1E0ABE0B0E0182E0E9480143F
:100AF000A0E1B0E00E947814802D992790932901FD
:100B0000809328018AE0ECE3F1E0A3E1B0E0182E45
:100B10000E9480141092430166E774E084E10E9411
:100B2000930C84E190E00E94430E8CE00E94271019
:100B300081E00E94191040E560E371E08AE291E0F3
:100B40000E947D080E944A0387E792E00E94FE0F00
:100B500010E00E94370E811113E680E991E00E94B7
:100B6000430E1F5F1F30A8F378943324BB2473E631
:100B7000A72E60E5C62E61E0D62E5BE1452E512CF6
:100B80004C0E5D1E45E0642E712C6C0E7D1E4E01D8
:100B90000894811C911C02C033243394B60180E375
:100BA00092E00E94A10D7C01009709F0D1C08091D4
:100BB0004601882399F30E94370E882309F442C026
:100BC00081E08B1510F40CE701C000E28091460132
:100BD000843008F444C03320B9F481E00E94191035
:100BE0008BE692E00E94FE0F61E080E00E946710B9
:100BF00085E692E00E94FE0F1092460164E371E0E8
:100C0000C6010E94E00ACACFBB2061F581E00E94C4
:100C1000191089E592E00E94FE0F61E080E00E94D9
:100C200067108EE492E00E94FE0F10924601409100
:100C30004A014F5F40934A0168E371E0C6010E9498
:100C40004C0BACCF332051F481E00E94191080E4AA
:100C500092E00E94FE0F10924601A0CF0FE2BB204F
:100C600009F49CCF6091280170912901882777FDB4
:100C70008095982F28E631E040E050E00E94EC1388
:100C80009B01AC0160914B0170914C0180914D0131
:100C900090914E01620F731F841F951F9201A30153
:100CA0000E94700E182FA81631F081E00E941910D2
:100CB000C3010E940C1061E080E00E946710C20135
:100CC0000E940C10A11609F18DE392E00E94FE0F24
:100CD000809128019091290197FD04C08BE392E057
:100CE0000E94FE0F4AE050E0B401809128019091EB
:100CF00029010E94AA10C4010E94A904C4010E94F3
:100D00000C1089E392E00E94FE0F60E08FE00E94E9
:100D10006710802F0E94F00F1A3319F432E0B32EBF
:100D200013C01B3389F482E0B81671F40F3251F00E
:100D300040914A014F5F40934A0168E371E0C60168
:100D40000E944C0B23E0B22E10924601A12E26CF1A
:100D5000BC01C6010E9493088823B9F0C6010E9415
:100D6000BA08882319F0C6010E945809C6010E94DA
:100D7000B008882309F412CF64E371E0C6010E9431
:100D8000290B882309F008CF09CFB701C6010E94BB
:100D9000C408882309F402CF80916701813051F49F
:100DA00080917201883009F0F9CEB701C6010E9426
:100DB0008009F4CE863009F003C180917401882344
:100DC00009F0ECCE80917501803509F0E7CE809175
:100DD0007F01992781FF04C0C6010E94F109DECE80
:100DE00084FFDCCEC6010E942A0A0E941B0A8C01E5
:100DF000009741F480917F0180FFD0CEC6010E9410
:100E0000720ACCCEBC01605B7E4F44E050E08CE1C6
:100E100091E00E948D10892B29F04DEF51E060E0A8
:100E200070E084C0B8016C5A7E4F42E050E081E22D
:100E300091E00E948D10892B09F082C040ED51E0B5
:100E400060E070E0C6010E94530A43EB51E0BC0130
:100E5000C6010E94530A8C01BB2009F46DC0609149
:100E6000280170912901882777FD8095982F28E621
:100E700031E040E050E00E94EC139B01AC01609136
:100E80004B0170914C0180914D0190914E01620F88
:100E9000731F841F951F9201A3010E94700EA3016E
:100EA000B801C6010E94630A44E251E0BC01C601D8
:100EB0000E94630AA201BC01C6010E94630A4CEAB7
:100EC00051E0BC01C6010E94530A8C0180912801A7
:100ED0009091290197FD07C046E251E0B801C60193
:100EE0000E94630A8C014AE050E0B401809128011D
:100EF000909129010E94AA10C4010E94A904A40192
:100F0000B801C6010E94630A49EA51E0BC01C6016A
:100F10000E94530ABC0181E08B1530F444E851E093
:100F2000C6010E94530ABC014FE551E0C6010E9470
:100F3000530A7C0110E027C049E251E0BC01F6CF22
:100F4000C8018B5A9E4F0E94F303182F8F3F29F43C
:100F500049ED50E060E070E012C0813021F4C6013C
:100F60000E94CC040FC0823071F44CEA50E060E083
:100F700070E0C6010E94530A44E750E0BC01C6017C
:100F80000E94530A7C01C6010E94720AB701C60181
:100F90000E94A30A123009F001CE40E560E371E03F
:100FA0008AE291E00E947D0881E00E94191088E6A3
:100FB00090E00E94FE0F3324BB2493E6A92EEECDD1
:100FC000813109F0EBCD80917201882309F0E6CDE3
:100FD000809173018B3709F0E1CD40914A016BE4B8
:100FE00071E0C6010E94BE0B882309F4D7CD809121
:100FF0004B0190914C01A0914D01B0914E019C018B
:10100000AD0120583E474A4A534820934B01309344
:101010004C0140934D0150934E01BB24B394BECD7F
:10102000EF92FF920F931F93FC01413081F46850BF
:1010300070407B0100271127685F7F4F21E130E07E
:1010400040E050E0E20EF31E041F151F2DC0423099
:1010500021F0EE24FF24870127C0685070407B01F7
:1010600000271127685F7F4F86E090E0A0E0B0E0A6
:10107000E80EF91E0A1F1B1F17C080819927AA2797
:10108000BB27BA2FA92F982F8827218133274427E0
:101090005527822B932BA42BB52BE80EF91E0A1F84
:1010A0001B1F3296625070406230710530F7672B1B
:1010B000A9F080819927AA27BB27BA2FA92F982F9B
:1010C000882708C02FEF3FEF40E050E0E222F322F4
:1010D00004231523E80EF91E0A1F1B1FC801AA27A7
:1010E000BB270097A105B10569F7C70180959095C9
:1010F0001F910F91FF90EF9008959C01409348013C
:10110000DB01EEE9F3E08D91819383E0E23AF807A9
:10111000D1F7D901E8EAF3E08D91819383E0EE3ACB
:10112000F807D1F70895FC0169327105B0F08485A4
:10113000883099F48585863081F4B696AEE9B3E0BF
:1011400090818C91981749F43196119683E0A23AD8
:10115000B807B1F781E090E0089580E090E008954D
:1011600020E030E0FC018589823011F421E030E09C
:10117000C901089520E030E0FC018589813011F437
:1011800021E030E0C9010895FC016A327105C0F028
:1011900084858830A9F48585882391F486858534F3
:1011A00079F4AEE9B3E0968D8C91981749F43196B5
:1011B000119683E0A23AB807B1F781E090E0089574
:1011C00080E090E00895FC01A8EAB3E08681808386
:1011D0008D918683319683E0AE3AB807B9F70895CA
:1011E0000F931F938C01FC01108E118E80E4848B71
:1011F000158A868B40E064E170E0C8010E960E947B
:101200001008292F3327F801208F818F1F910F910C
:1012100008959C01FC01AEE9B3E0828D868F8D912B
:10122000828F319683E0A23AB807B9F7C9010E94CC
:10123000F0080895DC01FC01B29692E0808182837F
:1012400011929150D9F780914801FD0183A3B9967D
:1012500094E08081680F711D84816483222311F0E2
:10126000808301C01082672F77279150319799238F
:1012700081F7222351F4FD0116A217A280914701A4
:1012800080A711A68E5F80934701FD0112AA13AAC1
:10129000442351F082E086AB84E087AB85E080AFE9
:1012A00080E881AF80E602C080E5FD0186A7089551
:1012B000CF93DF93EC010E94E3081C8A82E08D8BC0
:1012C000FE01A8EAB3E0868980A38D91868B3196D2
:1012D00083E0AE3AB807B9F7FE017C96AEE9B3E019
:1012E000808182878D91819383E0A23AB807C1F70C
:1012F000BE018AE290E00E94680DDF91CF910895CF
:101300000F931F93CF93DF93EC018B010E94E308AF
:10131000CE010E9409091AA28CA1883F18F08DA164
:101320008F5F8DA38CA1885F8CA3BE01C8010E9432
:10133000680DDF91CF911F910F910895A0E0B0E06B
:10134000E4EAF9E00C944914EC015B01042F790103
:101350000E94E3080D3D08F00CED188A045E098B2D
:10136000CE010E9409098F2D99278CA3EDA21EA200
:1013700004510FA30850E8E2CE2ED12CCC0EDD1E76
:1013800018A679E2E72EF12CEC0EFD1E19A620E03E
:1013900030E00BC0FF27DE01AE0FBF1FEA0DFB1DC3
:1013A0008081FD0182A72F5F3F4FE22F201790F32E
:1013B0001127005F1F4F41E0B801CE014A960E94FD
:1013C0001008292F3327F6012083F7018083BE01FF
:1013D000C8014A960E94680DEAE0CDB7DEB70C94CA
:1013E00065140F931F938C010E94E308F801108A83
:1013F0008CE2818BC8010E94090982E1F80187A76C
:1014000020E041E061E070E0C8010E941A0942E07A
:1014100060E270E0C8014A960E941008292F332725
:10142000F80122AB83ABB8018AE390E00E94680D1B
:101430001F910F91089580919A0390919B03892B9E
:1014400019F480E090E0089580919C0390919D03B1
:1014500082960895FC0120893327322F2227818923
:101460009927282B392B2451304030939B0320930C
:101470009A0386A582958F709927880F991F880FE8
:10148000991F90939D0380939C03281B390B3093E5
:101490009B0320939A031216130624F010929B03C9
:1014A00010929A030895DC01A60FB71FD69603C0C9
:1014B0008D936F5F7F4FFA014F5F5F4F8491882359
:1014C000B9F7CB010895DA01FC01E60FF71FF69694
:1014D00004C081936F5F7F4F11968C918823C9F769
:1014E000CB010895CF93DF93EC010E94E30880E1E4
:1014F0008FA760919A0370919B036115710529F480
:1015000021E040E061E070E002C021E040E0CE0177
:101510000E941A09188A88E2898BCE010E94090963
:1015200042E06CE170E0CE014A960E941008292F3B
:1015300033272AAB8BABBE0186E390E00E94680D97
:10154000DF91CF910895EF92FF920F931F938C013B
:101550007B0189E1F80187A79B01285D3F4F832F1D
:101560009927808B218BC8010E94F008F80112AAEC
:1015700013AA8CE190E0E80EF91E42E0B701C80121
:101580004A960E941008292F3327F80122AB83AB1B
:10159000B801C7014A960E94680D1F910F91FF90F4
:1015A000EF900895DC01FA0120E030E005C084915D
:1015B0008D9331962F5F3F4F26173707C1F7089558
:1015C000EF92FF920F931F93CF93DF93EC017B0178
:1015D000FC0108EA13E09FEF9083D8018D918D0103
:1015E00086833196B3E00E3A1B07B1F788E08C870B
:1015F00086E08D874FE654E068E070E0CE010E96FD
:101600000E94D20AFE01D80116978D91868B10A2F6
:10161000319683E0AE3AB807C1F79701AE01445E58
:101620005F4FAEE9B3E0F90181919F01FA01828732
:101630008D918193AF01F3E0A23ABF07A1F7BE01FC
:101640008AE290E00E94680DE6E0CDB7DEB70C9428
:101650006914CF93DF93AC01DC01FB019B012C5F8C
:101660003F4FED019C8D8191981719F080E090E03B
:1016700010C01196E217F307A1F7FA01A2EAB3E04E
:1016800086898D93319683E0A83AB807C9F781E03F
:1016900090E0DF91CF910895EF92FF920F931F9307
:1016A000CF93DF93EC018B01F42EFC0142EA53E06F
:1016B00028EA33E0DA018D91AD018083D9018D9163
:1016C0009D0186833196B3E0483A5B0799F788E03D
:1016D0008C871D8645E654E06AE070E0CE010E96E8
:1016E0000E94D20A9801FE014EE953E0D9018D9182
:1016F0009D01868FDA018D91AD01828F3196B3E025
:10170000423A5B0799F7CE010E94F0081CA28BE7D2
:101710008DA38AE08AA3FBA21EA288E38FA368E2BE
:10172000E62EF12CEC0EFD1E18A68E01075D1F4F54
:1017300019A6FE01BA9680E311928150E9F74BE5B4
:1017400054E06AE070E0CE018A960E94D20A41E03D
:1017500060E470E0CE014A960E941008292F3327DA
:10176000F7012083D8018C93BE018AE590E00E94A6
:10177000680DE6E0CDB7DEB70C946914CF93DF9324
:10178000FC01EB01442319F085A18417C9F586A15A
:101790008823B1F587A1883399F583A18B3781F52B
:1017A000EE5AFF4F2191332744275527522F4427C4
:1017B0003327222781919927AA27BB27DC01992764
:1017C0008827282B392B4A2B5B2B81919927AA2715
:1017D000BB27BA2FA92F982F8827282B392B4A2BC4
:1017E0005B2B80819927AA27BB27282B392B4A2BD3
:1017F0005B2B288339834A835B8381E090E002C0BE
:1018000080E090E0DF91CF9108952A98962F9F7104
:10181000982B9EBD0DB407FEFDCF1EBC0DB407FE78
:10182000FDCF67FF04C01EBC0DB407FEFDCF2A9A92
:101830008EB5992708952A986F71682B6EBD0DB4E7
:1018400007FEFDCF4EBD0DB407FEFDCF2A9A0895C9
:101850009C012A988AE38EBD0DB407FEFDCFFB01E3
:10186000260F371F06C01EBC0DB407FEFDCF8EB578
:101870008193E217F307B9F710822A9A0895AC0111
:10188000FB012A988AE78EBD0DB407FEFDCF20E04C
:1018900030E007C081918EBD0DB407FEFDCF2F5FF4
:1018A0003F4F24173507B1F72A9A08951F93CF9316
:1018B000DF93182FC82FDD27C076D0708091B0033A
:1018C0009927C817D90791F043E06FE180EA0E9499
:1018D0001B0C85E0D595C7958A95E1F74C2F6FE1F4
:1018E00080E80E941B0C10761093B003DF91CF911B
:1018F0001F9108951F93182F0E94560C612F80E0AE
:101900000E94050C99271F9108950F931F93082F8C
:10191000162F0E94560C412F602F80E40E941B0C52
:101920001F910F9108950F931F938B01682F84EDE2
:101930000E94850C602F86ED0E94850C012F1127D7
:10194000602F87ED0E94850C03C08EE38A95F1F726
:101950008AEE0E947A0C80FDF8CF1F910F910895B6
:101960008770682F85E70E94850C08950F931F9359
:101970008C01229A2A9A84B1886284B924982B987F
:101980002D9880E58CBD8DB581608DBD4FEF60E0F9
:101990008FEF0E941B0C82E390E00E94430E109296
:1019A000AF031092AE0360E088E00E94850C60E017
:1019B00089E00E94850C60E08CE00E94850C60E06C
:1019C0008DE00E94850C6EEF8AE00E94850C69E133
:1019D0008BE00E94850C6FEF84E00E94850C69E12A
:1019E00085E00E94850C6FEF86E00E94850C6FE118
:1019F00087E00E94850C60EB88E30E94850C6FE312
:101A000088E20E94850C60E389E20E94850C69EF00
:101A100080E30E94850C67EF81E30E94850C6DE0F6
:101A200080EC0E94850C60E081EC0E94850C42E312
:101A300062EC80E80E941B0C62E186EC0E94850C3F
:101A40006CE087EC0E94850C62E184EC0E94850CBE
:101A50006CED8AEC0E94850C65E08BEC0E94850C95
:101A6000F801608184EE0E94850CF801618185EEA9
:101A70000E94850CF801628182EE0E94850CF801BB
:101A8000638183EE0E94850CF801648180EE0E94E0
:101A9000850CF801658181EE0E94850C60E071E0A3
:101AA00080E10E94930C8FE10E94560C40EC6BE1A8
:101AB00080E80E941B0C44E06FE180E80E941B0C50
:101AC0001F910F91089582E70E947A0C992708953B
:101AD000EF92FF920F931F938C017B016FEF82E0D7
:101AE0000E94850C69E183E00E94850C602F6150A3
:101AF00086E00E94850C0150164E612F77270F5FFC
:101B0000194187E00E94850C40E060E08AE70E946E
:101B10001B0CB701C8010E943F0C48E06FE180E850
:101B20000E941B0C8CE10E947A0C81FF05C048E0EA
:101B30006FE180EA0E941B0C1F910F91FF90EF90C4
:101B40000895A0E0B0E0E7EAFDE00C944B147C01BE
:101B50006B0189E30E947A0C882319F4C0E0D0E07D
:101B600067C06091AE0380E00E94850C6091AE0377
:101B70007091AF03672F772781E00E94850C60E0AA
:101B80008AE30E94050C082F11271093AF030093DE
:101B9000AE0360E08AE30E94050C9927982F8827FE
:101BA000082B192B1093AF030093AE0360E08AE378
:101BB0000E94050CC82FDD2760E08AE30E94050C17
:101BC0009927982F8827C82BD92B249760E08AE380
:101BD0000E94050C082F112760E08AE30E94050C83
:101BE0009927982F8827802B912B970121503040DF
:101BF0002C173D0708F4E90187FD03C0C0E0D0E0E1
:101C000004C0B601CE010E94280C6091AE038CE0A6
:101C10000E94850C6091AE037091AF03672F772708
:101C20008DE00E94850C40E46EE180E80E941B0C70
:101C3000CE01E8E0CDB7DEB70C946714682F84EDD1
:101C40000E94850C61E082ED0E94850C8EE38A95EE
:101C5000F1F78AEE0E947A0C80FDFBCF60E082ED06
:101C60000E94850C89ED0E947A0C9927089581E1E4
:101C70000E941E0E20E0892B09F421E081E0282734
:101C8000822F99270895AC0120E030E0E8EBFBE0DB
:101C900005C0CF010197F1F72F5F3F4F241735079C
:101CA000C1F7089588E190E02FE00FB6F894A89569
:101CB000809360000FBE209360000895A89508955A
:101CC000613019F4845E99270895673008F06150F7
:101CD00060FF03C08EE190E008958FE190E00895E9
:101CE000A9E0B0E0E6E7FEE00C9441147B018C0132
:101CF0001A013987288720E831E541E050E00E9449
:101D00001F145B016C01C801B70120E831E541E017
:101D100050E00E941F1489012CE330E040E050E0C5
:101D20000E941F146F83C601B50120E13EE040E030
:101D300050E00E941F142CE330E040E050E00E948D
:101D40001F142E83C601B50120E13EE040E050E0C3
:101D50000E941F142D83C801049667E070E00E9462
:101D60000B14882E92EBE92E97E0F92E1AC0CD289D
:101D700089F4C70164E670E00E940B14892B39F4E2
:101D8000C70160E971E00E940B14892B19F48EE6FB
:101D900091E002C08DE691E0081B190B0894E11C4C
:101DA000F11C83E0C82ED12CCE20DF20C114D10439
:101DB00089F4C70164E670E00E940B14892B39F4A2
:101DC000C70160E971E00E940B14892B19F48EE6BB
:101DD00091E002C08DE691E00817190740F6C701AF
:101DE00064E670E00E940B142C01C70160E971E009
:101DF0000E940B143C01AA24BB2416C0C114D104B8
:101E000049F44114510419F46114710419F481E086
:101E100090E002C080E090E0692D0E94600E081BF7
:101E200011090894A11CB11C9A2CC114D10449F4C5
:101E30004114510419F46114710419F481E090E023
:101E400002C080E090E0692D0E94600E992708177B
:101E50001907A0F683E0889EF0011124E958FB4F92
:101E6000DE0111969E012C5F3F4F84918D93319638
:101E7000A217B307D1F71C820F5F1F4F1F930F9359
:101E8000892D992701969F938F93FF92EF92CE0110
:101E900001969F938F938CE994E09F938F933F9249
:101EA0002F920E94D3102E81022F11272F81822F73
:101EB00099279F938F931F930F932D81822F99279B
:101EC0009F938F938DE894E09F938F938885998556
:101ED0009F938F930E94D3108DB79EB746960FB6EF
:101EE000F8949EBF0FBE8DBFC801E2E129960C9405
:101EF0005D14AC0120E030E0E8EBFBE005C0CF0171
:101F00000197F1F72F5F3F4F24173507C1F7089569
:101F100087FF02C0589A01C05898992786FF02C0CF
:101F2000599A01C0599885FF02C05B9A01C05B981D
:101F300084FF02C05C9A08955C98089595E29A9592
:101F4000F1F7882321F082E090E00E94790F80E091
:101F500090E008955D9A84E18A95F1F75D9884E0B8
:101F60008A95F1F70895FF920F931F93082FF62E8D
:101F7000509A519A539A549A10E1812F8A95F1F709
:101F8000802F0E94880F1A95F1F7FF2011F05E9ABA
:101F900001C05E980E94AA0F802F992783FF02C07C
:101FA000589A01C0589882FF02C0599A01C05998A6
:101FB00081FF02C05B9A01C05B9800FF02C05C9A7F
:101FC00001C05C9880E18A95F1F7FF2011F05E9ADC
:101FD00001C05E980E94AA0F1F910F91FF90089573
:101FE0001F93182F80E00E949E0F61E0812F0E94B6
:101FF000B30F80E00E949E0F1F910895CF93DF934F
:10200000EC0102C00E94F00FFE012196849188230A
:10201000C9F7DF91CF910895CF93DF93EC0103C00F
:102020000E94F00F219688818823D1F7DF91CF910C
:1020300008951F93182F80E00E949E0F60E0812F6B
:102040000E94B30F81E00E949E0F1F9108951F937D
:10205000182F509A519A539A549A569A559A8CE03E
:1020600090E00E94790F80E30E94880F0E94AA0FDF
:1020700082E090E00E94790F80E30E94880F0E9426
:10208000AA0F82E090E00E94790F80E30E94880FFF
:102090000E94AA0F82E090E00E94790F80E20E94E5
:1020A000880F0E94AA0F88E20E94191088E00E94FF
:1020B000191081E00E94191086E00E941910812FEA
:1020C0000E94191081E00E949E0F1F9108956623BF
:1020D00011F4805801C080540E9419100895FC0129
:1020E00088279927E89421912032E9F3293010F0CC
:1020F0002E30C8F32B3241F02D3239F4689404C0ED
:102100000E94CB10820F911D219120532A30C0F3E1
:102110001EF4909581959F4F0895FB01DC0141507D
:10212000504030F08D910190801919F40020B9F7DA
:10213000881B990B0895FB01DC014150504048F089
:1021400001900D920020C9F701C01D9241505040EE
:10215000E0F70895FB019F01E8944230C4F0453256
:10216000B4F44A3029F497FB1EF4909581959F4F63
:10217000642F77270E940B14805D8A330CF0895DF1
:102180008193CB010097A1F716F45DE25193108281
:10219000C9010C94AF137AE0979F902D879F802DF3
:1021A000910D11240895A0E1B0E0E9EDF0E10C9467
:1021B0004F140F89188D8EE08E831C830B838FEF55
:1021C0009FE798878F83AE01455E5F4F5A834983AF
:1021D000698D7A8DCE0103960E94F81029853A8583
:1021E000020F131FF8011082E4E060960C946B1448
:1021F000A7E1B0E0EEEFF0E10C94411488249924BB
:1022000054012C017C8B6B8B3A01FC0117821682E6
:10221000838181FD03C08FEF9FEF7EC2CC24DD243C
:102220009E012F5F3F4F3F8B2E8B65C2C0FE48C281
:10223000832D80538A30D8F430E3331641F48D85F2
:10224000882329F4C3FC03C0E0E0F1E073C08AE016
:10225000FD85F802C00111248053830D8D8787FF0F
:1022600002C02FE72D87C3FC40C22D843EC29601D9
:1022700028703070C3FE05C08D85882311F491E06D
:102280009D87E7E6E3156CF1F5E63F160CF068C0B4
:1022900083E5381609F489C08315BCF09BE2391632
:1022A00009F442C093154CF0E0E23E1609F440C038
:1022B000F3E23F1609F0FCC143C02DE23216E9F10A
:1022C0003EE2331609F0F4C140C083E6381609F443
:1022D0004DC083150CF481C098E5391609F0E8C1AA
:1022E00020C0E0E73E1609F4A2C0E3155CF0FCE66E
:1022F0003F1689F12FE6321689F039E6331609F0D8
:10230000D7C16BC085E7381609F499C098E739162C
:1023100041F0E3E73E1609F0CBC130C0F8E0F88B9E
:102320008EC020E1288B8BC080E190E0C82AD92A9A
:10233000E0E2F0E0CE2ADF2AD8C120E830E00DC08C
:1023400080E490E0C82AD92AD0C1E8E0F0E0CE2AA3
:10235000DF2A1D86CAC124E030E0C22AD32AC5C1C3
:102360003FE3832E2A9423E6322E30C1F30180808E
:102370002A9422E030E0620E731E28C1F301A0818E
:10238000B1814D01232B49F0FD856F2F772767FD24
:102390007095CD010E94A41318C0FD01019000208A
:1023A000E9F73197EA1BE88B11C0F3018081918135
:1023B0004C01232B41F0FD856F2F772767FD70952A
:1023C0000E94991302C00E949013888B22E030E093
:1023D000620E731E3889231AF9C0C2FE08C0F301C9
:1023E00080819181A281B38124E030E009C0F301B2
:1023F00080819181AA2797FDA095BA2F22E030E035
:10240000620E731E4C015D01B7FF0CC082E090E0CC
:10241000C82AD92AB094A09490948094811C911CCD
:10242000A11CB11CEFEBFFEFCE22DF2221C020E484
:1024300030E0C22AD32A98E7392E30E1388BC2FE29
:1024400008C0F30180819181A281B38124E030E052
:1024500007C0F30180819181AA27BB2722E030E0E9
:10246000620E731E4C015D018FEC9FEFC822D922D2
:1024700085017401FE013196FF87EE87F8898F2E62
:102480009924AA24BB24232D21522D8BC801B701E6
:10249000A50194010E941F146A301CF03D89630F4E
:1024A00001C0605DEE85FF856193FF87EE87C801FF
:1024B000B701A50194010E941F1479018A01211519
:1024C00031054105510511F78824992454014E85A1
:1024D000FE894F1B842EC60182739070892B09F0F0
:1024E0002A94C6FE07C02889203111F482E001C079
:1024F00081E0281AC3FE12C08D85282F332727FDBF
:102500003095842F9927821793072CF0E7EFFFEF80
:10251000CE22DF2203C0FD85F41BFD8786010870F3
:102520001070C3FE03C02D85221A01C0241AC601F3
:1025300080789170892B31F00AC0B20180E290E07E
:102540000E94BF132A94822D8F5F1816B4F3C1FE28
:1025500004C0B2018DE290E00BC0C4FE04C0B20121
:102560008BE290E005C0C5FE05C0B20180E290E0BC
:102570000E94BF13C6FE0FC0B20180E390E00E942C
:10258000BF133889303139F4B201832D992787FD83
:1025900090950E94BF13D0FC06C00AC0B20180E330
:1025A00090E00E94BF132A94822D8F5F1816B4F317
:1025B000012B31F40BC0B20180E390E00E94BF1305
:1025C0008D8581508D878F5F1816ACF3F601E0780A
:1025D000F070FA8BE98BC7FE06C00AC0B20180E238
:1025E00090E00E94BF132A94822D8F5F1816B4F3D7
:1025F000F3E63F1641F4B201882D992787FD9095A7
:102600000E94BF1345C023E73216B1F46401740180
:10261000188909C0F70181917F01B201992787FDCF
:1026200090950E94BF131150A8F74601F8898F0EAC
:10263000911C2FEF288B2CC033E5331619F00E8533
:102640001F851FC064018401F88808C0F8018491C7
:10265000B20199270E94BF130F5F1F4FFA94FFEF3B
:10266000FF16A1F746012889820E911CF88B10C035
:10267000F80182918F01B201992787FD90950E9400
:10268000BF132E893F890217130791F71F870E8703
:1026900089899A89892B31F426C0B20180E290E0C1
:1026A0000E94BF132A94822D8F5F1816B4F31BC0AB
:1026B000B201832D992787FD90950E94BF1313C007
:1026C00095E2391641F4EAE0E88B22241D8681E088
:1026D000C82ED12C0AC0B201832D992787FD909571
:1026E0000E94BF1302C0CC24DD242B893C892F5FBC
:1026F0003F4F3C8B2B8BF201838183FF04C0EB891E
:10270000FC89349003C0EB89FC893080332009F0C8
:102710008DCDF20186819781E2E167960C945D147C
:10272000FC0105900020E9F7809590958E0F9F1F82
:102730000895FC010590615070400110D8F7809514
:1027400090958E0F9F1F0895FC016150704001907D
:102750000110D8F7809590958E0F9F1F0895DC018A
:10276000FC01672F71917723E1F7329704C07C91C8
:102770006D9370836291AE17BF07C8F308950F93EE
:102780001F93CF93DF938C01EB018B81992781FFFE
:102790001BC082FF0DC02E813F818C819D81281737
:1027A000390764F4E881F9810193F983E88306C06D
:1027B000E885F985802F0995892B31F48E819F81D9
:1027C00001969F838E8302C00FEF1FEFC801DF9138
:1027D000CF911F910F910895629FD001739FF001D7
:1027E000829FE00DF11D649FE00DF11D929FF00DA1
:1027F000839FF00D749FF00D659FF00D9927729FD8
:10280000B00DE11DF91F639FB00DE11DF91FBD0162
:10281000CF0111240895AA1BBB1B51E107C0AA1FB9
:10282000BB1FA617B70710F0A61BB70B881F991F71
:102830005A95A9F780959095BC01CD010895A1E224
:102840001A2EAA1BBB1BFD010DC0AA1FBB1FEE1F2A
:10285000FF1FA217B307E407F50720F0A21BB30B75
:10286000E40BF50B661F771F881F991F1A9469F7F1
:1028700060957095809590959B01AC01BD01CF014D
:1028800008952F923F924F925F926F927F928F9214
:102890009F92AF92BF92CF92DF92EF92FF920F93EF
:1028A0001F93CF93DF93CDB7DEB7CA1BDB0B0FB6F9
:1028B000F894DEBF0FBECDBF09942A8839884888B6
:1028C0005F846E847D848C849B84AA84B984C8844C
:1028D000DF80EE80FD800C811B81AA81B981CE0F43
:1028E000D11D0FB6F894DEBF0FBECDBFED01089528
:1028F000F999FECFB2BDA1BDF89A119600B4089522
:10290000F7DF01921A94E1F70895F999FECFB2BD6D
:10291000A1BD00BC11960FB6F894FA9AF99A0FBEB1
:0E29200008950190F2DF1A94E1F70895FFCFB9
:10292E00636F6E6669670066640070770069700099
:10293E006777006E7300747A006E700047455420FE
:10294E00002F20000A002B000A00545558100028B2
:10295E000A00001C0A00000211FE001F736563725C
:0A296E00657400000000010A50002B
:00000001FF
